:02000004C0D06A
:1000000010B5044662B606F095FE002C0DD0012016
:1000100000022168814205D1606801280AD1A068E8
:10002000002803D106F010F802E0002006F02CF8BA
:10003000002010BD204606F0CDF810B50023052A9B
:1000400013D30C79521FA2420FD10A7802704A785A
:1000500042708A788270CA78C2700A7902710A790D
:10006000002A00D04A1D82600123184610BD0000FE
:10007000F0B587B0039302920E46069003F08AFF14
:10008000054603F087FF0446A427284639460DF0AD
:10009000C9FAA4340594204639460DF0C3FA002766
:1000A000F843A42E19D8022E17D301902846069C97
:1000B000214632460DF0BFFA2B487844F9B2B142DE
:1000C0000DD2625C312A07D37A2A05D8313A825C94
:1000D0006A547F1CFF2AF1D1019807B0F0BD0022BD
:1000E000D1B2B14204D2685C002801D1521CF7E7BA
:1000F00000910696D3B2B3421CD200270492114657
:10010000C8B2B04208D22C5C3A227A431219140ABF
:100110002C54D7B2491CF3E7E85C0699491E0691B6
:10012000C9B2059A5754002801D0049AE2E7049A0C
:10013000521CDFE7069AD1B2B14204D20598405C66
:10014000521C0028F7D0009A501A8519039885424E
:100150000198C2DC05984018811A02982A460DF0D1
:100160006AFA2846B9E7C046BAD60000F0B5B3B07F
:10017000019300920D46049009A8A6210DF052FAB1
:100180000024E0430290782D62D80595A54206D060
:100190000498005D002804D1641C059DF6E72C46F8
:1001A00000E0059D291B8A20484364210DF074F965
:1001B0002146069004460598039181421FD2049877
:1001C0000791405C611E0891069C002C12D409AD79
:1001D000295D09020E183A27304639460DF05CF9C0
:1001E0004743F11B295508998C4201D83A2E02D376
:1001F000641EEAE7029C0799491C0598DDE706980A
:10020000441C0020844206D009A9095C002901D1C0
:10021000401CF7E70446039906980818001B401C89
:10022000019A904214D83122009D28460DF007FA19
:100230000948784406998C4208D809A9095D415CAF
:10024000039AA954521C0392641CF3E7039802908A
:10025000029833B0F0BDC0468CD50000FEB50192C7
:100260000291062B13D81C46074600252E46A642AF
:100270000BD20298854208D83846294608F0D6FAAB
:1002800001994851761C2D1DF1E7A64201D20020AC
:10029000FEBD0120FEBD0000F0B589B007920890B8
:1002A000002006296ED81C46002B6BD00A46002978
:1002B00002D10020079908700492501E019000227C
:1002C00031487844039010460294069081B2049815
:1002D00081424DD2079885181746A61A05918C00C1
:1002E000089803590120C007834328463146039AE2
:1002F00007F0FCF928460DF001FA00283AD0B04288
:1003000038D2089909193A46C2190868002801D458
:10031000029C13E007988518029C1746A61A1B4AF0
:100320007A442846314607F0E1F928460DF0E6F90F
:10033000002822D0B04220D23A46C219059901982D
:10034000884212D0079885181746A61A104A7A4490
:100350002846314607F0CAF928460DF0CFF90028A3
:100360000BD0B04209D23A46C2190698401CACE7FD
:10037000012007E00798029901E0079821460DF057
:1003800051F9002009B0F0BD96D80000D8D4000083
:10039000ACD40000FCB5002502290CD303290AD8EF
:1003A00004460120C607019672402768974202D191
:1003B0006268002A01D42846FCBD0092079F002FE6
:1003C0000AD07F1C7F1EF6D01A1D1B68019E734049
:1003D000009E9E421346F5D1022905D00199653150
:1003E000A068884201DB0020FCBD0120FCBD0000AC
:1003F000BCB5002405291AD10546069800900321B2
:100400002846FFF7C7FF002811D0E86801280ED85A
:100410000799022902D2884202D008E0481C06D17E
:1004200028690449884201D3002400E001242046C1
:10043000BCBDC04651C30000012807D0042807D026
:10044000032807D0022807D1542070472C2070477A
:1004500056207047312070470020C0437047F8B5E0
:1004600004460020002A16D00B780A2B13D89D00D2
:100470006D1C95420FD82370261D4D1C00279F42EE
:1004800008D20021284608F0D1F901C62D1D7F1C95
:100490002378F4E70120F8BDF0B58DB04C484D4C01
:1004A00000262652AF208700E65501AD28460DF004
:1004B00003F9A88581B2002913D005297FD005460C
:1004C00001A886850B980AF09BFE022040496052E5
:1004D00042486F21017045700121204602F09AF8D0
:1004E00045E001A80AF08CFE0B90208802F097F8F6
:1004F0002078002801D0384816E038484278037840
:100500003A49794435460D2D0CD0394E7E44765DFE
:10051000B34204D1374E7E44765DB24235D0091DD8
:100520006D1CF0E76D200002294E2D496052E15DFF
:1005300051222C4B9A5C002A0AD0EF221140E1553F
:1005400009221203904203D05D22274B01259D54BE
:100550000A46A35B010A214DE954991CA153EB18EB
:100560005870D00603D489B2202006F049FE0AF064
:100570003DFE01A9884202D10B980AF041FE01A874
:10058000808D002819D10DB0F0BD1B4A7A44525D10
:10059000002A0F4E0AD067221202007900280AD0E2
:1005A0005720C000205A05281046BED0086807F022
:1005B00041FB8047B9E71046B7E706F0C0FB01A84A
:1005C00086850B980AF01CFE052006F0B8FBC04695
:1005D000BA02000000020020AA6F000018080020E4
:1005E000BE02000090090020C8050020AAD3000028
:1005F00079D300007CD3000013D30000F8B5304C51
:100600007C44204607F016FB808802F008F820465C
:1006100007F010FB8088C0B2244CFF2844D0294842
:10062000784407F007FB808800063DD02048046826
:10063000054620891F4B5870E189D970227C1A71B8
:10064000000A1870080A98701F4611341E4E7E4426
:100650002046B04778712046B0470246B81D214673
:1006600006F08AFB2C6820461130B0470546801DF5
:1006700000902F342046B0470099C9B27854ED1D40
:10068000EFB22046B04702460A48C019214606F09C
:1006900073FB074800682F30B0474019C0B20649C5
:1006A000064A5052092004032046F8BD856900001F
:1006B000BC06002018080020BA020000000200203A
:1006C000BCED00009CED0000ABD0000080B51148EF
:1006D000784407F0AFFA0C490C4A082353520C49EE
:1006E00001224A7104230B71CB708A7030234B7046
:1006F000807900238B710323CB7110401B22424071
:100700000A700920000380BDBA0200000002002028
:1007100018080020ECEC000010B51A4C7C44204670
:1007200007F088FA808801F07AFF204607F082FA05
:100730008088C0B20F4CFF2819D01348784407F0C6
:1007400079FA8088000612D00B4CA078002802D0DD
:100750006B2004020BE00D48784407F06BFA074960
:10076000074A012353528088207009200403204641
:1007700010BDC0468569000018080020BA020000BC
:1007800000020020A0EC000080EC000064EC0000FF
:1007900010B50A480479002C00D1F824F82C02D9AD
:1007A0006720000210BD0548214603F0D1FB044834
:1007B00004490C520920000310BDC046180800204F
:1007C000BA02000000020020F0B585B0524F38791F
:1007D0000490564D7D44284607F02CFA808801F09D
:1007E0001EFF284607F026FA8088C0B24B4C04282A
:1007F00000D98BE00126314681401620014200D10C
:1008000084E0B8786B210D0280281BD000287ED1AF
:10081000781D002731463A4601F04EFDAD21890092
:100820003F4A50502B20000117543E481754A9202E
:10083000800017546520800016541775D777364FFF
:10084000042000E00020F978002960D10499091AF9
:100850005522D200324EB1543818401DAB218900C8
:100860007050012001F0A0FF09200503307D082809
:100870004DD1002030752B200001305C002844D081
:1008800020203946303104910091039001903C467C
:10089000374628370121002638463246334603F0D2
:1008A00015FB002836D1384603F00AFB08210291D7
:1008B000204603F04DFB667032202070221D049804
:1008C000039F39463B4603F007FBAD208000144EE2
:1008D00031582046243001F00EFD204628303146A4
:1008E0001531029A06F048FA1148784407F0A2F947
:1008F000049900910197083030233946224603F0CD
:10090000F1FA09483821315201E0FB3425462846E6
:1009100005B0F0BD06F013FA180800208569000044
:1009200000020020B6030000BA020000E8EB00005D
:10093000D2EA000070B59EB01E4614460D4601A9CD
:100940000091012114AB324601F020FD002D01D0B1
:10095000412504E001A8083001F0B2FB212501A9DE
:1009600008314122204606F007FA28461EB070BD25
:10097000F0B59BB0AC4E7E44304607F05BF9807911
:100980000A90A24CA0780B90304607F053F9292624
:10099000805D002700283D4608D0A07802283D460B
:1009A00004D19B488079C01F454245419F48784407
:1009B00007F040F9805D0B9A012A08D0002D06D17E
:1009C000002804D092488079C01F47424741E3780D
:1009D000012A07D151208F49085C002802D08E4F90
:1009E000FE370EE109976B200702A078022800D994
:1009F00007E10893022B07D300D002E18748006883
:100A0000C06B002800D1FCE0207900286FD0012ABB
:100A100003D1601D06F054F80790002D09D06079CD
:100A20008000801DC0B220180121002201F044FC8A
:100A30001A907F4E7E44304607F0FCF8808801F023
:100A4000EEFD304607F0F6F87349CF1C8088C0B23F
:100A5000042800D9D5E00126314681401620014204
:100A600000D1CEE00AF05EFBAA2843D10A9F3740AE
:100A7000661D0121304601F00FFD069041202070D7
:100A8000611C12AB30460E460A9739463246FFF7D4
:100A900051FF0246089F781E02282DD20CA914206F
:100AA00004904870002005900870D0B28E1C31462A
:100AB000039200F0C1F859480068022F28D1049F22
:100AC0000399C06B002800D19EE007F0B3F80146FF
:100AD00000972746433700223846334608F00EFA7F
:100AE000C6B2012E20D138460CF008FE1BE067206C
:100AF000070286E0484F84E04848006800890021EA
:100B000000900191D1B2224643329623304608E04C
:100B1000C089009005980190224643320CA8162106
:100B2000962301F0F0FBC6B2422026540A98002812
:100B300001D104206070A7193846433012A9202241
:100B400006F01AF9304663303549364B58520B9847
:100B5000012830D0069800282DD009200703002D49
:100B600044D02426985D002809D0194620311AA8BF
:100B700004221D4606F00CF92B46002836D000252D
:100B80009D55184620301AA904221E4606F0FAF890
:100B90001A9B2046C8300921264A7A4406F0A6FD51
:100BA000D0202554AF208000315C10220A433254FB
:100BB00005F0B2FF25E0322E00D910E72046C830FC
:100BC0004334214632461C4606F0D6F8C8200021A0
:100BD0003954AF208000215C10220A432254079828
:100BE000C0B205F07BFF092007030AE0099800283E
:100BF00007D0AF208000195C10220A431A5405F078
:100C000095FF38461BB0F0BDCEB28DE71808002026
:100C10001C0900209009002082690000BC06002009
:100C2000BA0200000002002046EA00000EEA0000BE
:100C300088E9000062CC000080B50A4601460248FF
:100C4000401C02F017FE80BD1808002070B5002877
:100C500002D06F21CA4300E069220D4C0D4D0028DF
:100C600001D1014601E0295B891E8EB20A4B9A55DB
:100C70008A1C2A53002801D0002001E07A20C043BA
:100C8000491C89B2585491B2202006F0B9FA70BDBF
:100C9000BA0200000002002018080020B0B5EB20C6
:100CA0008000084D01212954E720800000242C52A7
:100CB000054828180822214606F06EF803482C54EF
:100CC000B0BDC04600020020AD030000B503000027
:100CD000F0B591B07520C700894D0024EC51EB2090
:100CE0008600A85D022826D0012800D005E1E92071
:100CF0008700EC51E7208000295A002900D1EBE061
:100D00006720C000285CFD2822D201220221A955BB
:100D1000E8511D21490168506720C000281881183A
:100D20001646E72294002A5B921B06F025F8285B02
:100D3000801B2853CFE0E7208600A95B092900D259
:100D4000CAE00D208301E85CFC2811D809221FE0CD
:100D5000FE287ED0FD2800D0CFE0032900D2BBE0E2
:100D60006B48285C6B49695C090208180322CDE7CF
:100D7000FD2800D0C1E00B2900D2ADE06148281861
:100D800000210A46089301F097FA089BA95B0B2201
:100D900012188A4200D99FE00720C04306920893A8
:100DA0000446002813D02819C15C601C0029F7D024
:100DB0006720C00029180FAE0822304601F0DDFA86
:100DC000514828180146324601F040FC089B019723
:100DD000EF18384601F036FA0590384601F0C2F9AE
:100DE0000790384601F0D8F90646384601F0E7F991
:100DF0000490384601F0F9F90390384601F000FA02
:100E000000905C210291384601F021FA384602999F
:100E100001F03EFA079806430498064303980643F8
:100E2000384601F067F93043059804D10834082C9E
:100E300063D3002861D00028069A44D1CD208000D9
:100E4000285C00283FD00798009901430BD0032766
:100E50000AE0052940D32E48281800210A4601F04F
:100E60002BFA052252E704270899002820D0A92050
:100E70008000285C002826D009AC1426667000206B
:100E80002070192040012918A01C324605F074FF7B
:100E900016212046224602F0EDFCE8190899401878
:100EA0002146324605F074FF002826D0069A0AE053
:100EB000E8194018192149016918142205F068FF42
:100EC000069A00280BD001982A50AF208000295C98
:100ED00010220A432A540124204611B0F0BD0B48C9
:100EE000295C002909D101242C541D2040012958D6
:100EF000491E2950002AEFD00EE7012005F01FFF00
:100F00000002002041030000AD030000B503000013
:100F1000390300003A03000080B58CB00091012134
:100F2000002202AB01F032FA0CB080BD10B594B0D3
:100F30000C4601A9FFF7F0FF0A48784406F07AFE54
:100F40008079C00705D101A8083001F0B9F8212146
:100F500000E0412101A80830224602F08BFC14B0C9
:100F600010BDC04682E40000F0B59BB0CE490A79BE
:100F70008E78002E03D0FF2E01D0802E11D1069046
:100F8000CA4BCB4FA92080000590385C0024002874
:100F900014D0F85C002811D14879FD2804D201242E
:100FA0000CE06B20000281E0FE2801D0002100E06F
:100FB0000521FD2801D00C4600E00324049207AD72
:100FC00028460CF079FBA885000405D007A800216D
:100FD00081856F2000024BE007A80AF011F91190FB
:100FE000387DB449092842D1FF2E61D1787F00288D
:100FF000069C00D133E1B44EB85D002800D1C2E0B8
:1010000000255A222046294605F0C6FEA64840790A
:10101000002800D123E12534A348411D2922204680
:1010200005F0AAFE1920400139182046FFF77EFF7F
:10103000BD55CD20800001213954204601F0E8F94A
:10104000002800D10BE15120A049085C00289948F4
:101050000ED1EB20800004213954AF208000395C90
:1010600010220A433A54204605F06AFDF7E008468C
:10107000044611980AF0C4F8924D00207853387550
:10108000E7208600BA5B6720C0003918864805F063
:1010900073FEB85B78530AF0A9F807A9884202D119
:1010A00011980AF0ADF8FFF7F9FD20461BB0F0BD2E
:1010B000814EB85D00287C4D0BD10498031B12D4DF
:1010C0000021009101912819421D3846283000F076
:1010D000FFF8787F00282CD0E7208400385B049E3E
:1010E0008119642902D97348FB30C1E732463818A8
:1010F0006721C9004018691D05F03EFE385B801964
:101100003853AF208400FFF7E3FD395D10220B4612
:101110001340002801D0002BF3D01D204001385887
:101120000343654E05D1EB20800003233B5411435C
:1011300039550598385CA978002926D00028069CE6
:10114000049B0ED12020019013A800902520C00000
:1011500038186A1D012100F0BBF80598385C00289A
:1011600053D0B85D002824D02020019013A800900F
:101170002520C00038183321C9007A1801216023C6
:1011800000F0A6F841E04B4872E70028049B08D124
:101190000021009101912520C00038186A1D00F03F
:1011A00097F8012041497854464978520020287028
:1011B00055E04248385C029020243B20C0003A1899
:1011C000009201943D4628350121002328460392D0
:1011D00000F07EF8029800280AD1284602F0C4FEEA
:1011E000039A0092019401212846234600F070F8EA
:1011F000019413A800902520C000381801212A4A24
:10120000002300F065F8284D069C787F00282CD03C
:10121000CD208000385C002804D100215A222046CD
:1012200005F0BAFD26480068017A6170817AA170E4
:10123000017BE170807B207120464E30082102F056
:1012400087FE204802213952002068702870787F7C
:10125000002810D0601D13A9202205F08DFD1198E3
:1012600009F0CEFF092004031FE716480221395276
:10127000002068702870611D13A8202201F00DF86D
:1012800000280C4800D0F3E60598395C0A200029B4
:1012900005D0B95D002902D10120B855002038756C
:1012A00009200403F7E6C0461808002037030000B1
:1012B0000002002085690000A6020000B6030000BD
:1012C000BC060020BA02000036030000900900208E
:1012D0001CB504460598019004980090204602F041
:1012E000F5FD002803D1204602F0EAFD1CBD05F003
:1012F00026FD000070B5B1208000134D2818FFF7BF
:1013000033FE0446AF208600A85DC0061AD5EB2048
:101310008000295C042904D0032905D105F0A8FB2D
:1013200004E0012129540DE005F074FB002809D1E7
:10133000064800212952A85DEF220240AA552975CE
:10134000D520C401204670BD00020020BA02000072
:10135000FEB509210C030028029448D01D20470146
:10136000424DE859EB218E00A95D022901D1401EB2
:10137000E851002820462CD001967520C4002A5937
:101380006720C00028188118E7239E00AB5B9A1ADB
:1013900005F0F2FC285BA95B081AA853AF20840073
:1013A000285DEF2101402955FFF792FC2A5D1021AD
:1013B0001140002801D00029F6D000290298019E92
:1013C00007D005F027FB00280FD1002028752848FA
:1013D000FB30A95D022912D1EA59002A0FD103205E
:1013E000A85505F045FB00281BD00120FEBD1F4875
:1013F00000220275EB218900415C1D481CE0032995
:1014000017D100226A77A92189006C5C03210A2385
:10141000002C0CD0174C2E5D002E08D101232B552B
:1014200006E00022AA551248FB30114600E01A4699
:101430002A75114AAA5A921E931C0F4D0B4C6353E6
:1014400096B2070A0D4DAF55521C92B2A854029A9B
:10145000904201D1032903D1FFF720FC0648235A0B
:1014600099B2202005F0CCFE0020FEBD0002002035
:1014700085690000A6020000BA02000018080020DA
:10148000F8B54C4D2E79554C7C44204606F0D2FBE5
:10149000808801F0C4F8204606F0CCFB0146464C9B
:1014A000E01C8988C9B2042900D982E0009601278E
:1014B0003A468A4016210A427BD040487630AA78C4
:1014C000802A08D0002A74D1652189003C4B03266C
:1014D0005E5400211975E97805292AD8012928D0F8
:1014E000002A28D1881E042800D30027344E707F9C
:1014F000002804D109F016FEAA28204659D1314807
:10150000002434523048345430483454A9208000E8
:10151000375401277777F4831920400130181822B7
:10152000214605F039FC2A4837542A483454AA7811
:1015300001E080293DD1224CA9208000205C0028B8
:101540002AD02449605C002826D1802A24D16879D9
:10155000022821D8EA78802A1ED02A790A3A312A2C
:101560001AD8012808D1A879382805D1E879322875
:1015700002D1287A00280FD05120174A105C002889
:101580000E4816D101206054AF208000215C10224B
:101590000A43225405F0F4FA5520C0000099215462
:1015A000AB208000691D2150022001F0FDF80920C8
:1015B0000003F8BD18080020826900008A6A000054
:1015C00000020020B6030000A5020000A6020000F1
:1015D00036030000A70200009009002034DF00005D
:1015E000F0B591B06A4C7C44204606F023FB80881D
:1015F00001F015F8204606F01DFB8088C0B25D4D55
:10160000042832D8012739468140162001422CD0C7
:10161000594EB078022804D3F178002901D06B200C
:1016200005E0002805D13079072802D2672004029E
:101630001CE004AC20460CF03FF8A085000418D054
:1016400004A8002181856F2005020E9809F0D8FDBD
:101650004A48002101752C4609F0C8FD04A98842BA
:1016600004D10E9809F0CCFD00E02C46A0B211B0D8
:10167000F0BD04A809F0C4FD0E90B07800280DD08C
:101680000128E9D133790021009101913B482830AC
:10169000721D00F081F809200403DDE73749087D59
:1016A0000A28D2D12C46FB3470790A2801D9254664
:1016B000CBE733480818751D29220390294605F009
:1016C0005BFB70798000401C295C28184018457825
:1016D000C720800029490D542E48784406F0AAFA04
:1016E0008079400729460FD426480068006C0028FE
:1016F00006D0412D2546A8D100024130014603E025
:10170000012D39462546A0D110AD284600F0F3FD45
:10171000002600960196194C2046283004233146B5
:101720002A4600F039F8039D2846314600F0B4FE01
:10173000002804D00120014600F040F808E0AF2066
:101740008000215C10220A432254284605F008FA42
:1017500051200D49095C09200003002908D00B49DC
:101760008A68521C8A604B689A4201DB5D228F5462
:10177000044671E785690000180800200002002077
:10178000E9020000BC06002090090020C8050020E6
:10179000D6DD0000E2DC00001CB50446059801908F
:1017A00004980090204602F091FB002803D12046C7
:1017B00002F086FB1CBD05F0C2FA0000F0B5B3B024
:1017C0000F46002844D0002500952D482D490818C3
:1017D0000E4629AB039329462A46049700F0D6FD0E
:1017E0002027019721AC009430462830012631464D
:1017F000224605952B46FFF7CFFF06AD284602F09F
:10180000B3FB009401972846314622463B46FFF73A
:10181000C3FF1F48784406F00DFA80794121890002
:101820008007C00F00910190174D039821463A465A
:101830002B4600F0C1FE049F6978C81C134A114C66
:10184000A052C7229200A25C49198A70902106E03A
:101850000E490C4A00205052692185220592002F22
:101860000BD1094A1154811C084B064CE152101847
:10187000059A4270202005F0C3FC33B0F0BDC0468D
:10188000E90200000002002018080020BA0200004F
:10189000A8DB0000F8B5284D2879012843D1284C51
:1018A0007C44204606F0C6F9808800F0B8FE204649
:1018B00006F0C0F98088C0B2204EFF2836D02148FB
:1018C000784406F0B7F9808800062FD009F02AFC8A
:1018D000AA282ED16C791C48784406F0ABF909216E
:1018E0000F038088C0B284421BD03046FB30082CE6
:1018F0001DD80121A1408B225200114217D0134D57
:101900007D44284606F096F9408800F088FE284677
:1019100006F090F940882042304608D0204600F07A
:10192000D7FB384603E06720000200E0304680B273
:10193000F8BDF01EFBE7C0461808002085690000CE
:101940001CDB0000FCDA0000E4DA0000BCDA000076
:101950006D20000270470000F0B58FB00DAE002181
:1019600006220292304605F017FA0A200E9901432A
:101970003171012403943046214600F04BFEB01C27
:10198000214600F047FE134D7D44134C7C4428460D
:10199000A0470094801C114B7B4401933146029A6E
:1019A000984704AE20273046394602F0D1FA28463F
:1019B000A047083031463A46019CA0470CAE039F31
:1019C0003770284600998847401C31463A46A04760
:1019D0000FB0F0BD34DA0000A5620000DD96000013
:1019E000F8B5441C077800260096BE420FD20125A8
:1019F00000222046294600F05FFC80B2064988425A
:101A000008D00649884204D0761C241DEDE7009DCD
:101A100000E002252846F8BD1DB100001EB10000FF
:101A2000F0B597B0B64A9678802131436B2000021A
:101A3000802936D11479D578002E03D1022D01D317
:101A4000802D2ED1D520C70109F06CFBAA2826D104
:101A500008940BAC20460BF02FFEA085000422D08A
:101A60000BA8002181856F20010215980C4609F012
:101A7000C7FB21460C46B1208000A349081800216D
:101A80005A2205F089F92046044609F0AFFB0BA95C
:101A9000884202D1159809F0B3FB204601E0FE3FD1
:101AA000384617B0F0BD0BA809F0AAFB1590002E20
:101AB000089B12D09349944C615A002952D0934A02
:101AC000A25A8A423946D1D191482018FFF788FF9F
:101AD000002849D000F03EF9D6E7012D12D8B120F8
:101AE00080008949081800265A22314605F054F929
:101AF000834C60790B2840D3159809F081FB384658
:101B00003146F8E07F49804D695A804AAA5AD21876
:101B10008A423946AAD81E460024009401942846D9
:101B20002830774F7F1D21463A4600F001F9009496
:101B300001942520C000281821463A46334600F07B
:101B4000F7F86F4F714AA85A08994018A8523C708C
:101B50006C49695A80B2884234D16E4802212952B8
:101B60007C7032E0394681E7AF208000215C102292
:101B70000A432254092004038CE707973746664E30
:101B80003068017A654A604B9954817A644A995465
:101B9000017B644A99545921C900807B58545C48A0
:101BA0001818611D292205F0E7F860798000821D70
:101BB000A15C002D0CD001231A43A25C09028A18F3
:101BC000072108E0534801212952092000035BE75F
:101BD00006230A4619464C4C4A4BE252002A5DD075
:101BE000401C40180490494827522546283528466D
:101BF00002F0BAF92520C0002018059002F0B4F9CF
:101C0000306811300BF07AFD11300AAA107000977D
:101C1000019701233446444E7E44284639460693B4
:101C2000B0472468113420460BF068FD0346009746
:101C30000197284639462246B047009701973B4A0C
:101C40007A441123039528463946B0472E4D2D4836
:101C5000285A2E46FC2803D809A90870012306E05B
:101C600009A94870FD220A70000A88700323089CA5
:101C7000039D0097019709AA2846394600F058F8B5
:101C80000499601A0C46401D0AA908701F49715A30
:101C9000C3B2C8181B49715A884205D9159809F072
:101CA000AFFA0798394626E00097019714480219C1
:101CB00028463946154600F03BF80AAC23780097D1
:101CC0000197059839462A4600F032F80C4B0F4A26
:101CD000B05A21784018B0521F700A49715A80B228
:101CE0008842069A104601D15F700220094970525D
:101CF0000920000311460029014600D1BAE6C3E6D7
:101D0000180800201A030000000200201E03000033
:101D1000E9020000BA020000BC060020C502000073
:101D2000C6020000C702000015010000D4BB00007D
:101D30001CB504460598019004980090204602F0D6
:101D4000C5F8002803D1204602F0BAF81CBD04F003
:101D5000F6FF0000F0B5A1B03548364F00243C52E4
:101D600003AD28460BF0A8FCA885000407D003A803
:101D700084850D9809F044FA6F2004023FE003A81F
:101D800009F03EFA0D9020200290019019AE0096C5
:101D9000284F283701253846294632462346FFF783
:101DA000C7FF384602F0E0F80096029B01933846E0
:101DB000294632461D46FFF7BBFF00941E481D49C9
:101DC00008180FAF214622463B4600F0DFFA1C48B8
:101DD000784405F02FFF807964218007C00F0091BF
:101DE0000190164C3846134F31462A46234600F0E0
:101DF000E3FB6078801C0E4978520920040309F047
:101E0000F5F903A9884202D10D9809F0F9F9B1203A
:101E10008000381800215A2204F0BEFF03A8808DEC
:101E2000002802D1204621B0F0BD04F088FFC04652
:101E3000BA02000000020020E90200001808002099
:101E4000ECD50000B0B551200949085C002801D04C
:101E5000084C0AE0AF208500FFF7E2FD0446064883
:101E6000405DC00601D504F01FFE2046B0BDC0464F
:101E7000900900208269000000020020B0B500280F
:101E800003D0FFF767FF010A01E069218520074AB7
:101E9000074B9C5A074D2955A11C9952621C92B2BE
:101EA000A85489B2202005F0ABF9B0BDBA020000F9
:101EB00000020020180800206D2000027047F0B5D5
:101EC0008FB0009000202A2804D004A900230B52D0
:101ED000801CF8E7132100230192082B40D00098C2
:101EE0000293C05C03900025082D35D0CAB2530080
:101EF00004A8C0180724641B01273E46A640039C83
:101F00002640142A07D80488042C00D9E41C048035
:101F1000801C521CF5E704AAD05A072800D9491E94
:101F2000C8B24300D21813280CD85388072B3B465D
:101F300000D8002314886407240FE3181380921C30
:101F4000401CF0E7701E86410E984007000F801974
:101F500004AA10856D1CC7E7029B5B1C019ABCE7B5
:101F6000002108460C461A290ED004AB5B5A002CFF
:101F700001D1002B06D0C4B230331355401C0124CC
:101F8000891CF0E70024FBE7010602D13020107025
:101F9000012004A91A31012500230D24082B1ED08D
:101FA0000E461A46072A1AD8B71C521C3688002E2D
:101FB0003E46F7D0EA0705D0C2B22E25019EB554A1
:101FC000401C00E0019E620004ADAA5C3032C5B244
:101FD0007255891C5B1C401C641C0025DEE7C0B2E6
:101FE0000FB0F0BDFEB57920C2002B4D002628466B
:101FF000314604F0D1FE2846314600F00BFBEB20C1
:10200000800001242C54E72080002E5251202349C7
:102010000E54234828180822314604F0BDFE2148FA
:102020002E5421482E542148784405F003FE407870
:10203000012801D0FFF790FC1D48784405F0FAFD17
:102040004078002807D01B48784405F0F3FD8088CD
:1020500000F0E5FA02E0FF2000F03AF81648784474
:1020600005F0E8FD0078002800D0FEBD02AD2C7020
:1020700001AE3470114F7F44384605F0DBFD293046
:102080003146224608F0F8FF384605F0D3FD2946D0
:10209000224608F0F1FFFEBD00020020900900205A
:1020A000AD030000B5030000A702000094D30000B8
:1020B00082D3000074D300005ED3000046D300003A
:1020C0004021415C01220A40911C017070470000D0
:1020D0001CB5014601AC204600F09CFA0448784447
:1020E00005F0A8FD001D0222214608F0C5FF1CBD19
:1020F000DED20000B0B5044615480068C06B002869
:1021000010D0144979440322204604F041FE0125F1
:10211000002819D0104979440322204604F038FEE3
:10212000002811D00D4979440422204604F030FEE5
:10213000002808D118340A4979440222204604F0C4
:1021400027FE002802D000252846B0BD0125FBE768
:10215000BC06002007B70000F8B60000DBB60000A0
:10216000CDB60000B0B5044609497944032204F015
:102170000FFE002809D1173406497944012520466D
:102180002A4604F005FE002800D000252846B0BDF0
:102190009DB6000090B600004178C6290DD1817827
:1021A00063290AD1C178762907D10179A92904D1F7
:1021B0004079142801D10120704700207047817DAB
:1021C000752910D1C17DC6290DD1017E63290AD19F
:1021D000417E762907D1817EA92904D1C07E1428A9
:1021E00001D1012070470020704741786A2904D14D
:1021F0008078C12801D1012070470020704700007D
:10220000B0B504460C480068C06B002810D00B49DC
:1022100079440322204604F0BBFD0125002808D0A4
:10222000074979440322204604F0B2FD002800D07B
:1022300000252846B0BDC046BC060020FBB5000006
:10224000ECB5000041786A3948424841704780B592
:10225000C12200F001F880BDF8B515460F460646CC
:10226000FFF748FF0024002810D13046FFF77AFF1F
:1022700000280BD170786A2808D03078EA2805D871
:10228000B84203D2305C401B444244412046F8BD72
:1022900080B5C222FFF7E0FF80BDB0B5491E431EE6
:1022A0000020002A06D0541E9D5C8A5C6A401043C0
:1022B0002246F6E7C0B2B0BDF0B5002902D0072330
:1022C000DC4300E00824002900D0182100252B461B
:1022D000042D0ED0475D002A3E4601D07F263E40A9
:1022E000002D00D03E46C9B28E40F31809196D1C6E
:1022F000EEE71846F0BD01700A0EC2700A0C82703B
:10230000090A41707047F0B58BB00193154603463A
:10231000109CFF2C01D8012600E00226119800280D
:1023200006D03246143202A8194604F025FD0CE00E
:1023300002A88219184601F09DFA200A03D002A9CA
:102340004C70087001E002A80470374602ACA21974
:10235000143214362046314601F0C2FA18372046AE
:1023600039462A46019BFDF701FF002802D480B2BE
:102370000BB0F0BD012004F0E2FC491E002A04D09D
:102380008B5C0370401C521EF8E77047F0B58FB0AD
:102390000493039107780B2F36D2154614990191B7
:1023A000461C05AC0297002F08D0012100223046C0
:1023B000FFF782FF01C47F1E361DF4E705F058F8D1
:1023C0000095212505AE28463146029A334608F08D
:1023D00077FE202228463146049C234601F05EFD0C
:1023E0000398002807D0212001230199224601F0FB
:1023F0004FFD002809D105F03BF805A80021202257
:1024000004F0CAFC0FB0F0BD022004F098FC0000FC
:10241000F0B58BB0009104780B2C36D2451C01AF7F
:102420002646002E08D0012100222846FFF744FF4F
:1024300001C7761E2D1DF4E70120052C23D1C1070D
:10244000019A4A402C2A03D0542A01D0312A1AD1A9
:102450000F4A12689388002B06D0029C4C409C4285
:1024600002D0D28894420ED16431039A8A420ADCA7
:102470000499009A914206D106480599814201D8F3
:10248000002000E001200BB0F0BD022004F057FC5A
:10249000BC06002050C30000F0B58DB00C461D49AD
:1024A0000A6893880121002B14D00778022F2AD3C1
:1024B0000193009202910B2F28D2451C03AE002FEE
:1024C0000AD0012100222846FFF7F6FE01C67F1E32
:1024D0002D1DF4E70C4616E00120C007039941408A
:1024E0002C2903D0542901D031290CD10499414021
:1024F0000198814201D1029C05E00098C088814288
:10250000029C00D0002420460DB0F0BD022004F053
:1025100016FCC046BC060020F0B587B00E46017818
:1025200004910B2942D2202131700292911E019117
:10253000431C012400210396049881422DD2059169
:10254000012600270693184631463A46FFF7B4FEA7
:102550000546F007039E2B4683433019029A111B50
:102560001446144A7A4405F0C1F8304621460BF06F
:10257000F2F8C1B2019A914215DA002D02D5272254
:102580007254401C069B1B1DC1B22F227254401C6A
:10259000C4B237550599491CCEE7601E002131545D
:1025A000C0B207B0F0BD072004F0C9FB022004F060
:1025B000C6FBC046ADB20000F0B587B01C4617465A
:1025C0000D46064604F054FF0C98069005A80390AB
:1025D00006A80290019400970D98002801D00C499C
:1025E00000E00A49032230462B4601F045FC002852
:1025F0000AD10598C00703D020780121014321703A
:1026000004F036FF07B0F0BD04F099FB01040000B0
:1026100001060000CA43120251180180704780B5BC
:10262000FF218143000A814201D008F01BFD80BDDB
:1026300080B55521C900044A515C814200D380BD58
:10264000012004F07CFBC0460002002070B500248D
:1026500007235D1C0CD2D55CCE5CE4B2341964193E
:10266000C454FF2C01D8002400E001245B1EF0E7D5
:10267000E0B270BDF0B5002707235C1C14D2D45C17
:10268000CD5C00263F0605D0A54201D96D1E01E0B4
:10269000FF3501262F1BC754ADB2A54201D33746E3
:1026A00000E001275B1EE8E7F8B2F0BD7CB5044608
:1026B000652086000F4DA85DC0070AD0AB208000C2
:1026C0002A5800210091019128462830234600F025
:1026D00013F8A85D80070BD5AB2080002A58002195
:1026E000009101912520C0002818234600F004F82D
:1026F0007CBDC046000200201CB504460598019030
:1027000004980090204601F0E1FB002803D1204608
:1027100001F0D6FB1CBD04F012FB000010B504460E
:10272000FFF7C4FFAB20800004490A5812190A5071
:102730005520C0000A5C121B0A5410BD0002002084
:10274000F8B501242046FFF773FFAB208600154F34
:10275000B8590578FC2D1DD9FE2D0ED0FD2D1ED1AA
:102760000120FFF7DBFF02242046FFF761FFB85985
:1027700001784078000245180CE00120FFF7CEFFF9
:1027800004242046FFF754FFB85900210A46FFF7FA
:1027900093FD05462046FFF7C1FF2846F8BD0220FD
:1027A00004F0CDFA00020020F0B5BFB00646AA48FA
:1027B000784405F03FFA847933AD28460AF07CFF6F
:1027C000A88585B2002D01D000F078FC2007C40F49
:1027D0001C961A9633A808F013FD3D90601E1B94BA
:1027E0008441199425A8011D18912830179025A817
:1027F0000C301690F34F387DC0B203281FD0042848
:1028000030D0062836D15520C400385D002801D1CB
:1028100000F046FC04252846FFF70AFF2846FFF78C
:102820007DFF385D002823D06520840000203855C6
:10283000FFF786FF012139553861072016E01C9803
:10284000022800D19FE05520C000385C002801D14B
:1028500000F026FCFFF774FF042139750021B860F1
:10286000F96000E0B868002844D106203875C3E755
:102870000820FBE701460839032901D200F010FCCB
:1028800007286ED001287CD0022800D1EFE205286D
:1028900056D00028AFD10026BE60FE603E613846AB
:1028A00015300822314604F077FAC748385C002812
:1028B00000D1D3E0C548385C002800D1D2E025A87B
:1028C000C3497944102204F057FABF48385C022803
:1028D000C04906D1C0480068406C0028BF4900D0FC
:1028E00001461698FFF707FD3846283025A900F065
:1028F000FBFBB7E05520C000385C002800D1CFE3D7
:102900000820FFF795FE1C98012811D1AD2080000A
:102910003858F96881420BD1AB20800039583846CD
:102920001530082204F028FA2B2000010121395427
:102930000820FFF7F3FEFFF703FF05213975386123
:102940005520C000385C002800D1A9E3396900296E
:1029500005D0814200D301460C46C8B2B0E2042043
:10296000F1E23869002800D121E15521C900795CE4
:10297000002900D194E3884200D308460446C0B23F
:102980009EE2B868ACE1A9208200B85C002849D07A
:102990008E49795C002945D10F928B48385C0890AC
:1029A0002025019525AA00923320C0003C18012162
:1029B000002620463346FFF79FFE0898002819D1CD
:1029C000204601F0D1FA019525AA00920121069135
:1029D00020462B46FFF790FE01951DAA00923E4629
:1029E0002836002330460699FFF786FE304601F070
:1029F000BBFA2E46334601951DAE00963846283068
:102A000001213246FFF778FE25A920462A4604F028
:102A1000B3F93720C000381831462A4604F0ACF923
:102A20000F98385C002800D1C4E06848385C002862
:102A300000D1EBE06448385C00280AD10021009105
:102A400001913B20C0003A18384628302023FFF778
:102A500053FE0A203875CEE60CCC000038462830EC
:102A600001F082FA2520C0003D18284601F07CFACA
:102A7000A9208000385C002800D1F4E065208000A7
:102A80003E5451483C5C5148385C002800D1ADE0D0
:102A9000009601965320C0003A1838462830042387
:102AA00012903146FFF728FE002C4D4878440E90D6
:102AB00000D1B9E0009601967720C0003A180423AF
:102AC000129C204631460E9DA84700960196332061
:102AD000C0003A182023049320463146A8470096A8
:102AE00001963720C0003A1820463146049D2B46F7
:102AF0000E9CA047009601963B20C0003A18129CFD
:102B0000204631462B460E9DA84700960196354A31
:102B10007A4420463146049BA8472B48385C02285B
:102B200012D100960196304D7D4420230393204618
:102B300031462A46FFF7E0FD0096019620463146D1
:102B40002A46039BFFF7D8FD009601960F208001CF
:102B50003A180425204631462B46FFF7CDFD009656
:102B60000196EF2080003A18204631462B46FFF7A9
:102B7000C3FD1548385C02280ED125AD082202920B
:102B80002846314604F008F9009601962046314661
:102B90002A46029BFFF7B0FD00960196F1208000C7
:102BA0003A18042320463146FFF7A6FD5BE00820D3
:102BB000387520E6092038750348385C00282CD188
:102BC00019E6C04600020020B6030000A60200007D
:102BD00093AF0000191BA85BBC060020BB09B876A8
:102BE00049FCFFFF55AD00003DAD00003320C000A3
:102BF0003818002C35D0ED49794400F075FA384684
:102C00002830EB49794400F06FFA2CE00920387540
:102C1000FD48385C002800D1D6E038462830FB4912
:102C2000794400F061FAE6E5009601963320C00091
:102C30003A180B9220230593129831460E9CA04718
:102C4000009601963720C0003A1812983146059B2D
:102C5000A047009601966023284631460B9AA0476C
:102C600001E001F081F904252846FFF7E1FCAB20E3
:102C7000840039595320C00038182A4604F07CF8E3
:102C80002846FFF74BFDE048385C00280DD00425AE
:102C90002846FFF7CDFC39597720C00038182A465E
:102CA00004F06AF82846FFF739FD04252846FFF7A7
:102CB000BFFC2846FFF732FDFFF742FDB8601C99C4
:102CC00002290BD15121D24A515C002906D0D14AA8
:102CD00051680029114600D148600E600121397504
:102CE000002816D05520C600B85D002800D1D7E1D5
:102CF0001C98022810D0012400261A98012800D020
:102D0000A3E024252846FFF793FC2846FFF706FD9D
:102D10009BE0032038756EE50220FFF789FCAB20AD
:102D200085007859017801221592072302290FD0D6
:102D3000002201293CD01446159A002905D1A9206A
:102D40008000385C002844D001222046194678E0F3
:102D5000A9208000395C0020002900D1FBE01493F9
:102D60000A9001242046FFF7D9FC2420FFF760FCDD
:102D7000DA48385C002800D11CE1652013958500F5
:102D80007C552420FFF7CAFC0020785508263046E1
:102D9000FFF74EFC13983958A720800038183246A8
:102DA00003F0EAFF3046FFF7B9FC7C550A9B3CE094
:102DB000139545780124382D02D8082D00D3CCE096
:102DC0001046194622463CE03846283001F0CCF83F
:102DD00011E51493C34C7C44204604F02BFF8088FB
:102DE000FFF71DFC204604F025FF8088C0B20428B0
:102DF0000BD0022809D00022012800D0FFE00022D9
:102E000010461B99002914991BD07859401C785101
:102E1000B85D401EB85524252846FFF709FC284612
:102E2000FFF77CFC0120B87700231A46A920800018
:102E3000385C0021002803D16520800001233B5429
:102E400015980028159E144658D0FFF779FC386174
:102E5000002E0AD0002C08D1002806D0A92080001E
:102E6000385C1B99084300D133E1022038755520A6
:102E7000C500785D002800D112E13869012814D11D
:102E8000AB20800038580078AE38414241410122E1
:102E9000199B5A40114202D141424141F977012028
:102EA000FFF73CFC3869401E386100280ED0795D80
:102EB000441E8C4200D30C46002C00D1F0E0E0B25E
:102EC000FFF72CFC3869001B386194E41C98022839
:102ED0001ED1A9208000385C002815D07F48385CBE
:102EE000002815D0002100910191A72080003A18F8
:102EF000384628300823FFF7FFFB09E00029B6D049
:102F0000032900D177E4C9E065208000032139540A
:102F10000420FFF78DFBA9208000385C00280ED02C
:102F20006E48385C00280AD1AB2080003A58002156
:102F300000910191384628300423FFF7DDFB04207F
:102F4000FFF7ECFB01203875B868401EB860F868E0
:102F5000401CF8604FE40122F8E61094119214939B
:102F60000795A81C0D90C0B2FFF762FB5C4878443F
:102F700004F060FE139C3959079A019225AA099220
:102F800000928A1C2B46083B083020210C9300F04D
:102F9000A9FF38594019811F08220998FFF77DF9C8
:102FA000002839D011981499109A4AE72DAC0000E6
:102FB00031AC00007A590026009601963320C000FB
:102FC0003818242431462346FFF796FB2046FFF7A6
:102FD000A5FB08242046FFF72BFB79591DAD284699
:102FE0002246FFF7CAF93846153001462A46FFF750
:102FF0002DFB002826D0304614990A9A21E7114665
:10300000104614991DE7C046B603000025AC000029
:1030100090090020C80500200C9AA92080003B5C84
:10302000139D7959002B11D032310B7A0B70B95D99
:103030000D39B9557959491D7951385C002805D0A9
:1030400001208DE60820FFF769FBAFE6891C25AC5F
:10305000204603F091FE20783228A3D17C5918989D
:1030600078512420FFF722FB0D9960187851B85D44
:10307000401AB8551DAD082228461799FFF77DF96B
:103080003846153001462A46FFF7E0FA01220028AB
:1030900013461198149900D0D3E6C6E6052918D135
:1030A00008F0A4F833A9884202D13D9808F0A8F8A6
:1030B00033A8808D00280AD13FB0F0BD33A800248A
:1030C00084853D9808F09CF803480475284603F071
:1030D00036FE012003F033FE00020020A6020000AD
:1030E0004EC40000E6C50000E0B510220091019238
:1030F000012109020022134600F0B8FE002800D189
:103100008CBD03F01CFE42688068101A884201D210
:10311000002070470120704702468368591800203C
:10312000994204D35368994201D8916001207047B5
:1031300010B5426883689A420AD00468E45C0C7057
:103140008168491C06D24468A14203D8816001E02D
:1031500000200870D01A411E884110BD4268836863
:103160009A4202D00068C05C0870D01A411E8841A3
:10317000704770B50D4604464068A168461A032E94
:1031800005D92068002A05D005F07BFB04E000206B
:1031900028600CE005F04AFB2860A0680421C943C0
:1031A000884204D8001D6168884200D8A060032EC0
:1031B00001D8002070BD012070BDB0B50D46044699
:1031C00000686168A2688018891A2A4609F0C2FD61
:1031D000002807D4A168091807D26268914204D870
:1031E000A16002E0002129606960C043C00FB0BD4A
:1031F000B0B515460A46044600686168A368C01861
:10320000C91A2B46FDF72AF8002807D0A900A268A2
:10321000511803D26268914200D8A160B0BD70B568
:103220001446054642688068161AA6420DD32A68DD
:1032300012180846114622460AF0FDF9A86800193E
:1032400003D26968884200D8A860A64201D2002053
:1032500070BD012070BD70B5144605464268806897
:10326000161AA6420BD32A68101822460AF0E3F970
:10327000A868001903D26968884200D8A860A642ED
:1032800001D2002070BD012070BDB0B5002A08D069
:10329000826803689C180323234004D00424E31AA3
:1032A00001E08268002359184468A51A8D4201D2B2
:1032B000002108E0551801688918C918954202D301
:1032C000A54200D885600846B0BD0000F8B50346A9
:1032D000CA06D0170090174A02400C07E617164C92
:1032E00034405D01654055408A06D417134A224098
:1032F0006A404D06ED171248284050400A06D7177D
:10330000104A3A40424098203040DB0E4901C9182B
:10331000C9B241407920009B18404840F321214028
:103320004140AE20284048401E21394041401046CF
:10333000F8BDC046E2996DB7618EBCF2C4B35F3E82
:10334000A8E2AB2E70E4434FF8B514460D4606468E
:10335000002101203778FFF7B9FF002F0BD01F2283
:1033600017407840761CF5E7FFF7B0FF0246287853
:103370005040641E6D1C002CF6D10824002C03D094
:10338000FFF7A4FF641EF9E701225040F8BD0000DA
:10339000F8B514460A4601460A487844FFF7D4FFB8
:1033A00005460E462827002F0AD07F1F28463146A3
:1033B0003A460AF0FDF81F2101402170641CF2E733
:1033C000F8BDC04646A50000F0B599B0002417949A
:1033D00016941470142962D1154606461E980024CE
:1033E0000028214602D0012859D1082101930CAFB1
:1033F0003970781C1422314603F0BEFC1522204699
:103400002146002A11D0521E3B780002C018083114
:10341000052908DB491F0346CB401F261E4002AB8F
:103420001E55641CF4E77F1CEBE7002907D005223A
:10343000511A88401F21014002A80155641C02AFA7
:1034400016AA38462146FFF7A3FF3A78002017490D
:103450007944019F84420AD0202A1ED2431CBB42D9
:103460001BD802AE365C8E5D2E541846F2E7621C05
:10347000009208340023EF18082B13D016AE3678CC
:10348000202E0AD2009AD618019A964205D816AE76
:10349000F65C8E5D3E545B1CEDE700242C702046EC
:1034A00019B0F0BD00213954F9E7C0469CA40000D2
:1034B000F0B5B1B0029314460591049000273698F8
:1034C00003903D46AC4234D05020019009A80090B2
:1034D0000498059922462B4601F088FA002828D442
:1034E0000646002D12D0B7423A4600D33246002A93
:1034F0000AD01DA809A90AF0ADF8B74201D30028E7
:1035000017D0002802DD14E0B74212D21DA809A985
:1035100032460AF08CF8039A002A07D0002008905F
:10352000079609A8069006A9029890476D1C374691
:10353000C8E70020A54200D2C04331B0F0BDB0B50D
:1035400090B01D462223059307AB049300240694F4
:1035500004AB029301924A1E91410091149A159B6B
:10356000294604F075FB00280AD4179A904208D126
:10357000169907A80AF06EF8002802D1012400E08D
:10358000E443204610B0B0BDF0B597B01F461546D5
:103590000E4602900FA820210AF044F803AC204602
:1035A0000AF08AF8A085000407D003A800248485C7
:1035B0000D9807F025FEE44315E003A807F020FE70
:1035C0000D90009621240FAE204629463A463346F8
:1035D00007F076FD202220463146029B00F05EFC7B
:1035E000002813D1002407F001FE03A9884202D16C
:1035F0000D9807F005FE0FA820210AF027F803A870
:10360000808D002802D1204617B0F0BD03F097FB53
:10361000F0B5CBB005460220C443002927D4287951
:10362000FF2826D0069404922A462D322AAC079110
:103630002126204605921146324609F0F8FF204621
:103640003146079A09F001FF402601963BAF0097EB
:1036500028460D3020212523224600F049FC2C4924
:103660007944384600F056F8002806D4069CA41C7D
:1036700000E0641C20464BB0F0BD039702963BA8C7
:1036800019AE314600F052F808AF0598394600F0FF
:103690006DF82AA831463A4600F0B2F80028069C98
:1036A000E8D0039F203768782978EA78AB78049EC1
:1036B000B370F270317070702879401C30710598C9
:1036C00000F0B3F80246701D0024214609F0BDFE4B
:1036D000304609302146079A09F0B7FE30460D30D2
:1036E0002022394609F0A3FF2AA800780428C1D176
:1036F0002AA80299415C01220A40911C2D22B15452
:10370000411C2D36701C202209F091FFB2E7C04603
:10371000ADA20000E0B5202201AB00F0F5FB0028CF
:1037200001D101988CBD03F00AFB0000BCB50C462A
:1037300005460D4979444122204609F078FF2120B1
:10374000202321462A4600F0AFFB002809D1212082
:1037500001A907F09DFC002803D101984000401CFE
:10376000BCBD03F0ECFAC04644A20000F0B58BB03B
:103770000D460478FE2121400022022935D1019214
:103780006F1C411C20220092384609F054FF0AAAFF
:10379000032010702E46213601233046394600F0B2
:1037A00079F802AF1F21384609F03CFF0720F8776F
:1037B000104B7B44304631463A4600F07BF80E4AC7
:1037C0007A4430463146009B00F064F84020285C83
:1037D0006040C00705D0094979443046324600F0C0
:1037E00073F804202870019A00E0D24310460BB011
:1037F000F0BDC0467BA100008DA1000055A10000D6
:10380000E0B513460A460146212000F03BFB0028A4
:1038100009D1212001A907F03BFC002803D1019820
:103820004000401C8CBD03F08AFA10B586B02121FF
:1038300001AC224600F01EF80021204604F0F6FFFD
:1038400006B010BDF8B515460E460746084C204692
:1038500000F072FB20463946324600F073FB2046EA
:10386000294600F063FB6C21204609F0EFFEF8BD0D
:103870000014002070B588B014466D4620262A46F4
:10388000334600F029FB284631462246FFF7DAFF8F
:1038900008B070BDBCB52024054D7D440095019451
:1038A00000F038FB002800D1BCBD03F048FAC04648
:1038B00093A000001CB52024009400F01FFB0028FA
:1038C00000D11CBD03F03BFA80B5202300F028FB9B
:1038D0000146DF3101D0002800D180BD03F02FFA6E
:1038E00070B588B014466D4620262A46334600F04F
:1038F000F3FA284631462A46334600F0EDFA00989E
:103900002070010EE170010CA170000A607008B017
:1039100070BDF0B5C5B0019315460F46064622A806
:10392000282109F07FFE03AC204609F0C5FEA085E2
:10393000000406D003A8002484850D9807F060FCDD
:1039400038E0029503A807F05BFC2CAC0421217041
:103950000D90413422A8214632463B46FFF714FE23
:103960000198002803D02022214609F060FE212082
:103970000FA922AA01252B4600F08AFA0028029FEF
:1039800030D12CAE701C0FA909314024224609F019
:103990004EFE307804280CD12CA9085D012202408B
:1039A000901C3870781C491C202209F040FE2C46DF
:1039B00000E0002407F01AFC03A9884202D10D9808
:1039C00007F01EFC2CA84130202109F03FFE22A860
:1039D000282109F03BFE03A8808D002802D1204653
:1039E00045B0F0BD03F0ABF910B58AB009A86C463C
:1039F000002122460B46FFF78CFF2046FFF715FFFC
:103A00000AB010BD70B58CB015460C46014604AE28
:103A10003046224609F00BFE0020009501900290EE
:103A20000390022021213246234607F059FB0CB0B7
:103A300070BD0000F0B59BB005930D4600290490C1
:103A400011D007466E1EF1B206AC00230192224649
:103A5000FFF75FFF2046FFF7E8FE019A0290B000F3
:103A60003858039002E000200390029006AC002733
:103A7000144E7E4420463946B0472571601D3946B4
:103A8000029AB047204609303946039AB047224689
:103A90002D3223460D3304982946FFF73AFF22467C
:103AA0004E324E212046FFF71BFF52217123204644
:103AB000059C2246FCF75AFB012800DB27541BB06B
:103AC000F0BDC046D5990000F0B589B001930092D1
:103AD0000A460646FF2903D802A8027001270DE016
:103AE000100C06D192B202A8002109F0A9FC02270D
:103AF00004E002A8002109F0A8FC042702ACE519A3
:103B000014222846314609F092FD14353946143105
:103B100020462A46FFF7E4FE183720463946009A29
:103B2000019BFCF723FB09B0F0BDF0B5A7B00593EE
:103B300006920C4607461BA8282109F073FD13A81E
:103B40002026314609F06EFD07AD284609F0B4FD88
:103B5000A88585B2002D07D007A800248485119878
:103B600007F04EFB26461DE007A807F049FB119021
:103B7000E3B21BAC13A920463A46FFF705FD4820E7
:103B8000269025A8039026A80290059801900096FB
:103B9000032251022046069B00F06EF900281DD139
:103BA000269C259E07F022FB07A9884202D1119886
:103BB00007F026FB1BA8282109F048FD07A8808DE7
:103BC00000280BD1002D02D00020C04304E02C9827
:103BD000002800D00660204627B0F0BD03F0AFF803
:103BE000F0B589B015460E46044600F0BDF90C4FFD
:103BF0007F44204631462A46B84701AD2046294633
:103C000000F019F8204600F0AFF92026204629469A
:103C10003246B847204629463246B84709B0F0BD7B
:103C200031000000E0B513460A46002100910191E1
:103C300000F00AF98CBDE0B520220091019201212B
:103C40000022134600F000F98CBD0000F0B5BBB0B7
:103C500014460E4607462AAD294600F07DF839493C
:103C600079442846FFF756FD0021CA43002835D580
:103C700006920191029603943AAA059203201070CD
:103C8000394608AE771C012307932F4D7D443846F3
:103C90000491A84719AC1F21204609F0C3FC072056
:103CA000E0772A4B7B44384639462246FFF702FE2E
:103CB0002136274A7A44202330463946A847022035
:103CC000059A107032AC20463146079BA847204623
:103CD0003946FFF71FFD002803D0069A10463BB077
:103CE000F0BD049C402108A80591405CC00705D0A8
:103CF0001849794430463246FFF7E6FD08A804210A
:103D0000017020223846214609F091FC2AA819A901
:103D1000FFF70CFD0028E0D019A808AA0146FFF71C
:103D20006FFD0028069AD9D019A80599415C079A19
:103D30001140029A1170411C2022039809F077FC6F
:103D4000019ACBE7AD9C000005FCFFFF899C0000B9
:103D5000999C00003B9C000070B59CB00C46064648
:103D600001AD284600F000F90849794408222846A8
:103D7000FFF736FF202228463146FFF753FF28463B
:103D80002146FFF758FF1CB070BDC046039C0000E1
:103D9000B0B5A6B0044609AD284609F08DFCA8854B
:103DA00000040FD009A800248485139807F028FA8E
:103DB000E44307F01BFA09A9884228D1139807F0B9
:103DC0001FFA24E009A807F01BFA139015AD20464E
:103DD0002946FFF7ABFC4020285CC00705D01749F7
:103DE000794420462246FFF76FFD15A8401C01AD1F
:103DF0002946FFF7B1FF124979442846FFF78AFCAC
:103E000000280FD4139807F0FBF90020C44315A82D
:103E1000412109F01BFC09A8808D00280BD1204608
:103E200026B0B0BD01AA074B7B4420462146FFF7D0
:103E300041FD0024BDE702F082FFC0462D9B00003B
:103E4000159B0000E59A00001CB5044605980190FA
:103E500004980090204600F039F8002803D120464D
:103E600000F02EF81CBD02F06AFF000003B4014808
:103E700089E000000800000003B4014883E000006E
:103E80001500000003B401487DE0000017000000A9
:103E900003B4014877E000001B00000003B40148B0
:103EA00071E000001C00000003B401486BE000005A
:103EB0001E00000003B4014865E000001F00000080
:103EC00003B401485FE000002F00000003B4014884
:103ED00059E000003200000003B4014853E0000044
:103EE0003300000003B401484DE000003D00000035
:103EF00003B4014847E000004000000003B401485B
:103F000041E000004500000003B401483BE0000030
:103F10004700000003B4014835E000004F000000F6
:103F200003B401482FE000005100000003B4014831
:103F300029E000005500000003B4014823E0000020
:103F40005600000003B401481DE0000057000000C7
:103F500003B4014817E000005800000003B4014812
:103F600011E000005E00000003B401480BE0000017
:103F70005F00000003B4014805E00000600000009D
:103F800003B40248FFE7024908470000710000003F
:103F9000010012000048704700140020FEB5029393
:103FA00001920D460446099EB3683179304A0027D4
:103FB000D760916053602F49CF800F71089B0B60D1
:103FC0000F722F4878442F4B7B4413622E4B7B4457
:103FD000D3612E4B7B4493612D4B7B442D49794417
:103FE00050629162D3622C49794451612B497944E2
:103FF00011613178F8290AD17178012907D1B17896
:10400000002902D1F17800292AD01B481AE0019832
:104010001060029909F01AFB3846A8420BDA317891
:1040200022798A4204D1717862798A420DD00127BF
:104030000834401CF1E7F80702D06D20000201E0CF
:104040003720400201F0C0FEFEBD206803F0F2FD03
:10405000044601F06FFB0648A04700F095F8FEBD4E
:104060001068002802D040680028F6D10348E9E72C
:1040700070060020A0060020866A000007B000003D
:1040800091010000E9000000DB000000C900000011
:10409000FB000000E3000000850100006F0100004C
:1040A00001490968486070477006002080B501F03A
:1040B0001FFE80BD80B50249C88001F045FE80BD6D
:1040C000A006002010B5034B1C6862600C601960EC
:1040D000486010BD70060020FEB50546002402941D
:1040E0000194009401F00EFB174F3988204603F02D
:1040F00087F8064601F016FB144844803C801448BB
:10410000C480684613493246FBF797FF00280DD05C
:1041100068460178F8290ED16946497801290AD103
:10412000007902996960A860EC600BE0296AD520EB
:10413000C001C01D02E0296AD520C0018847686A15
:104140008047E4432046FEBDB00600201C09002045
:10415000A00600201808002080B501F023FE80BDD5
:1041600002480121017201717047C046A00600207B
:1041700080B504480021017101F0DCFA00F004F878
:1041800080BDC046A0060020B0B5174C20680028AE
:1041900029D0164D2879002823D1E888002815D188
:1041A00020684168002909D00022426020468847E3
:1041B00007204003E9888142ECD112E00068002822
:1041C00001D02060E6E70A4801F0FEFD28680028DB
:1041D00007D00849097801220A40297A114300D002
:1041E000804701F0B7FAB0BD70060020A00600209D
:1041F00007B00000BA06002010B50446016A024864
:104200008847606A804710BD8569000010B5044C7E
:10421000A1690448784488476069804710BDC0465A
:1042200070060020E1FFFFFF10B504480068044C51
:10423000A16988476069804710BDC046AC06002070
:104240007006002010B504480068044CA169884736
:104250006069804710BDC046AC0600207006002093
:1042600010B5044CA16904487844884760698047C8
:1042700010BDC046700600208DFFFFFF10B504483A
:104280000068044CA16988476069804710BDC0463A
:10429000AC0600207006002010B504480068044CED
:1042A000A16988476069804710BDC046AC06002000
:1042B0007006002070B51D4614460E460069804702
:1042C0000C484922314609F032FA49307222294617
:1042D00009F02DFA084804990160002C02D1084920
:1042E000794401E0054979440020024608F06AF863
:1042F00070BDC04600020020AC060020029C0000F9
:10430000F09B000070B51C4615460E4600698047BC
:1043100009484922314609F00AFA49304122294622
:1043200009F005FA05480460054979440020024671
:1043300008F048F870BDC04600020020AC0600201E
:104340008E9B0000B0B514460D4600698047A91C3D
:104350000948112209F0EBF9113016354A22294695
:1043600009F0E5F905480460054979440020024652
:1043700008F028F8B0BDC04600020020AC060020BE
:104380009E9B0000B0B514460D46006980470E485C
:10439000A322294609F0CBF90499002902D10D4A3C
:1043A0007A4401E00A4A7A44A330631C122103F0E4
:1043B0009DF90648059901600749794400200246A5
:1043C00008F000F8B0BDC04600020020AC06002096
:1043D0008A9700009F970000629B000070B51D4601
:1043E00016460C46006980470C485B304B2231462C
:1043F00009F09DF90A480560002C07D007481122F2
:10440000214609F094F90849794401E005497944C5
:104410000020024607F0D6FF70BDC0460002002013
:10442000AC060020329B0000249B0000B0B514466F
:104430000D460069804707481122294609F077F99F
:1044400005480460054979440020024607F0BAFF98
:10445000B0BDC04600020020AC0600200A9B000050
:1044600010B50C460069804704480460044979444B
:104470000020024607F0A6FF10BDC046AC06002093
:10448000F29A000010B50C460069804704480460A9
:10449000044979440020024607F094FF10BDC0464D
:1044A000AC060020DE9A0000F8B51C4615460F4603
:1044B000006980470F4E0C21104A7A4430463B4633
:1044C00003F014F930460C30AD22294609F02FF9DB
:1044D000B9360096069A079B204600F031F8064848
:1044E00008990160064979440020024607F06AFFF6
:1044F000F8BDC04600020020AC06002096960000E1
:10450000A29A00007CB51C4615460E4600698047FD
:104510000848069901600848009030462A4623461C
:1045200000F00EF8054979440020024607F04AFFE2
:104530007CBDC046AC060020000200207A9A000034
:10454000F0B587B01E461746044609F0D7F8054671
:104550000C98214609F0CAF82021415540190590D0
:104560000824384606963546002C05D0294600F02A
:104570005FF80D46641EF7E70026F3432A4A044617
:10458000294609F021F8C019029006984141059882
:10459000401C0190012302220494204606952946DE
:1045A0001C46154600F044F807460F436A1C631C7E
:1045B000761C002FF4D10396049E002C16D03046B2
:1045C000069900F035F807460920C2430020C3438E
:1045D0003846069108F0F8FF05994919491E8019D7
:1045E000303008706D1E641E3E46E6E7039D01985C
:1045F0004019029B002B13D02E210170401C09246E
:104600000A4A7A44214603F071F805984019022CB1
:1046100008D0015D302905D100210155641EF6E75F
:104620000021017007B0F0BD001F0AFAB299000026
:10463000F0B589B0002602460A3A0A46B24137462A
:1046400003D23046394609B0F0BD002207900A383F
:1046500002900891914101911C491D4B06920592CF
:10466000079D0698049318180391059A5141400834
:10467000CA0786184F080A220024304639462346C6
:1046800008F0A2FF029A121A019A8A4104D2079AEC
:10469000121A089A8A41D4D2731E3A46A241281AA5
:1046A0000898884101D3204600E00120002800D16D
:1046B000039A711C6741002800D10597002800D19A
:1046C000049B002800D106911146CAE799999919CF
:1046D00099999999F0B5A1B0044606F023FDAA284E
:1046E00018D1251D20A92846FEF722FD002847D015
:1046F0001FA92846FEF71CFD002841D020A80078FD
:10470000012803D81FA80278072A06D3216A5A482D
:10471000FE3038E0216A584835E019A92846FEF7EE
:1047200067FD00282CD056480068818817910390B7
:10473000C18818911FA90978032965D35148199A8E
:10474000024003252C2A09D0562A07D0312A05D049
:10475000542A03D0302A57D11046042502928D42A4
:1047600002D0AA1C8A424FD10026F24319AF521C34
:1047700095420DD0381D3F68002F0746F7D443E01F
:10478000216A3E48401D8847606A804721B0F0BDDD
:10479000AA0019AFBF186A1E521C8A4205D2381DE2
:1047A0003F68002F0746F7D52EE01A9F354807408F
:1047B0003246082E07D017A88059381A4342434181
:1047C0001A43361DF5E7D0071ED01B982D4A10401E
:1047D000642819D88D420DD28A0019A810180838FB
:1047E0000068012810D819A81018001F0068264A70
:1047F000904209D80025029830280AD11C98214AF5
:104800001040401E022804D320A80078002827D09A
:104810000125039802681D4E083619A83346FFF794
:1048200009F9401C1FD004A81A497944492208F00C
:10483000FEFE1FA80178002904D019A804AA492364
:10484000FBF72AFD20A8007800280FD012487844F2
:10485000009004A920462A463346FFF72BFD95E732
:10486000216A06488FE7216A09488CE7A1690B484D
:10487000784488478AE7C04682690000826A00005F
:10488000BC060020FFFFFF7F50C30000D8020020BD
:1048900007B00000929700004F0000002D000000BC
:1048A000B0B50446074D0835284608F027FF0146F5
:1048B000E26928469047216A092000038847606A18
:1048C0008047B0BDD8020020F0B58BB01C24019405
:1048D00004AC009400F0FBFA0024E14303910428A7
:1048E00004DB0321014001D11F2802DD03980BB036
:1048F000F0BD119F109D001FC117890F4018801037
:10490000039004AE3046214603F0BBFF2860361DFD
:10491000254603988542E9DA3046214603F0B1FF87
:104920003851241D6D1CF4E7F0B58BB01D240194A3
:1049300003AC009400F0CBFA0027FC43052808DB09
:1049400003A9421E920704D10978002901D1202829
:1049500002DD20460BB0F0BD11990291109D401F61
:10496000C117890F4018841003AE0121304603F0AF
:1049700088FF2860761D3D46A542EADA3046394672
:1049800003F07FFF0299C8513F1D6D1CF4E7000042
:10499000B0B58CB0044606F0C5FBAA2818D10BA808
:1049A00002AA00210B46FEF7B4FF002813D002A88C
:1049B000FEF73BFF024601AD0021284608F045FD09
:1049C000E269042128469047216A0920000304E097
:1049D000216A044801E0216A03488847606A8047E9
:1049E0000CB0B0BD8269000007B0000010B58AB0FD
:1049F000044602A80090204600F00AF8002805D4DA
:104A00000D9B0C9A02A9204600F022F90AB010BDB5
:104A1000F0B593B0069316460C4607460BAD412001
:104A20002870FA69012128469047FA6920210494E8
:104A300020469047002428462146059632462346C4
:104A400008F0B4F90146FA692846904728462146FD
:104A5000069A234608F0AAF90146FA6928469047C3
:104A6000396A0720450328468847F96A3846884747
:104A7000002800D584E001953E1D0BA92022304678
:104A8000FEF7CDFBE54300287ED00AA93046FEF7AD
:104A90004FFB002878D009A93046FEF749FB0028D3
:104AA00072D009A800780AA9097888426CD8410117
:104AB0003046FEF728FB002866D018980BA9202264
:104AC00008F0B5FD09A80078009502962D1BC0B22C
:104AD00020180390039884421EDAF86879680E184B
:104AE0000AA800782A180598069902F0E9F8012822
:104AF00005D0002847D10BA83146024602E00BA999
:104B000030460A4602F0B6F82021029E3046FEF7F3
:104B100003FB6D1E641CDDE70AA80078A04236D0B6
:104B200008A8A0210170FA6901219047396A01980B
:104B30008847F96A38468847002824D409A93046AE
:104B4000FEF7F6FA00281ED007A93046FEF7F0FA65
:104B5000002818D009A8007807AD297841433046CD
:104B6000FEF7D1FA00280ED0287820280BD109A80A
:104B7000007801190AAA1278914204DC009DA5E789
:104B80000020C04301E0009D284613B0F0BD0BA9F2
:104B90002022049808F05EFD002801D10546F3E7C5
:104BA0000020C543F0E7F0B599B01E4603910746D3
:104BB00008AD42202870681C20240292114622462B
:104BC00008F035FD2846213001963146224608F08E
:104BD0002EFDFA69412128469047396A0720400393
:104BE0008847F96A384688470421CE43002827D4ED
:104BF0003C1D07A92046FEF79BFA351D002820D052
:104C000004A92046FEF7D9FA00281AD007A8007890
:104C1000012819D8002813D0049B08A80090384612
:104C20000299039AFFF7F4FE00280FD408A9202266
:104C3000019808F00FFD0028354602D1049D00E0E0
:104C4000B51C284619B0F0BDF51CFAE7751CF8E74D
:104C5000F0B5B3B0099308920E46054632A840213C
:104C60000170EA6901242146904731A800210A9188
:104C70000170EA6921469047EA6920213046079190
:104C80009047296A0720440320468847E96A284656
:104C900088470921CA43002831D406962F1D2EA922
:104CA00038460B92FEF789FA0B9E0836002828D06A
:104CB0002DA93846FEF73CFA002822D02DA801780D
:104CC00005973846FEF71FFA00281AD02F982E991C
:104CD0000A4602430B9BDE1D002A12D02DAA17782C
:104CE000002F0ED004944B1E06460A9A9641099C4A
:104CF000E31A1346B34107D20B98861D01E009322F
:104D00001646304633B0F0BDC91B904102D20B9815
:104D1000461DF6E7EC686F6812AE3046FFF724F9DF
:104D20003C192DAF3A783046214600F080F80A98B9
:104D300011900998109008980F900394611C38788E
:104D4000421E0FA8FEF787FA38782E99081A002815
:104D500053D004460EA8A0210170EA6901210991EF
:104D60009047296A04988847E96A284688470028B6
:104D70005AD40DA905980746FEF7DAF90B99C91C14
:104D800000281DD008910CA93846FEF7D1F900285B
:104D900019D00DA800780CA9097841433846FEF7D0
:104DA000B2F900280FD00CA8007801280B9910D177
:104DB0000DA8027894420FD220464E1C0A9F05E0AF
:104DC0000A9F0E4601E00A9F089E2046002FBED192
:104DD00097E78E1C0A9FF8E7E8686968091812A827
:104DE00000F025F80DAF3A780FA80399FEF733FAD3
:104DF0003878241A2046099FE8E7079E019612A8F2
:104E000005464C35009501210022134600F018F8A4
:104E100028460699324608F01DFC00280B9E00D05B
:104E20006FE72E98461E6CE70B98061D69E7E0B504
:104E300013460A4600210091019100F001F88CBD53
:104E40001CB5044605980190049800902046FFF791
:104E50003DF8002803D12046FFF732F81CBD01F0D1
:104E60006EFFF0B599B004464920019006A8009065
:104E70002046FFF7BBFD0021CD43002824D4209E0F
:104E80000591049006A8039003A83146FEF795F912
:104E9000002819D03746083703A820223946FEF7E4
:104EA000BEF9002810D03146283103A82022FEF791
:104EB000B6F9002808D01F981E9B32680090204643
:104EC0003946FEF7F5FA0546284619B0F0BD70B52B
:104ED0008AB00C46054602AE10461946324601F02D
:104EE0009DFE21682246083228463346FFF75BFEC6
:104EF00000280BD403460F980E9922680091019068
:104F0000283428462146FFF771FD01E00020C04308
:104F10000AB070BD70B58AB00C46054602AE1046A8
:104F20001946324601F07AFE2168224608322846A8
:104F30003346FFF738FE002809D403460E9822684E
:104F40000090283428462146FFF762FD01E000204A
:104F5000C0430AB070BDF0B5BBB00A9317460E4609
:104F600005463AA840210170EA690124214690478C
:104F700039A800210C910170EA6921469047EA693D
:104F80002021304609919047296A072040030B9061
:104F90008847E96A284688470821CC43002820D45E
:104FA000089707962F1D36A93846FEF706F9E61D25
:104FB000002818D035A93846FEF7BAF8002812D0D4
:104FC00035A801783846FEF79EF800280BD00697E2
:104FD000369900290AD035A80078884208D9661D7C
:104FE00001E00834264630463BB0F0BDA61DFAE786
:104FF0000C9834900A9833900898329068680A9018
:10500000EF68049117AE3046FEF7AEFF0A98C1195B
:1050100035AF3A7830460E4600F073F83A7832A849
:105020003146FEF718F9387804990F1A002F52D03C
:105030000DA8A0210170EA69012108919047296A11
:105040000B988847E96A28468847002857D40A976A
:1050500016A9069F3846FEF76BF8E11C00281BD006
:10506000059115A93846FEF763F8002817D016A851
:10507000007815A9097841433846FEF744F800281E
:105080000DD015A8007801280A9F0ED116A8027825
:1050900097420DD2661C09E00C980E4601E00C9870
:1050A000059E0A9F0028C1D19DE7A61C0C98F9E730
:1050B000E86869680918059117A800F022F816A891
:1050C0000390027832A80599FEF7C5F80398007896
:1050D0003F1A0898E6E7099E01960DAD009517A8BE
:1050E00001210022134600F015F8284607993246A0
:1050F00008F0B0FA0028049E00D073E773E7261D7D
:1051000071E7E0B513460A4600210091019100F0D5
:1051100001F88CBD1CB504460598019004980090D8
:105120002046FEF7D3FE002803D12046FEF7C8FE36
:105130001CBD01F004FE0000F0B5DBB0044605F034
:10514000F1FFAA2877D1251D904E31460D31284612
:10515000FDF7EEFF002873D04D208000311820228B
:1051600028460891FEF75BF8002869D0552080009A
:105170003718202228463946FEF751F800285FD01C
:1051800031460C312846FDF7D3FF002858D0307B3C
:10519000022800D3CEE0314608310022284607928B
:1051A000FDF7E7FF00284BD0354614357C23204619
:1051B00008992A46FFF7CFFE002800D5BAE00799E4
:1051C0005A91599058953546903558A8294607F078
:1051D00016FE002800D5ADE005955D20850070190C
:1051E0003146F4312022039008F021FAF020049097
:1051F0003058652189000291705007985790A4207B
:10520000305A56903046A63055903320C0003118A1
:1052100055A88022069107F03AFF002800D589E0C2
:105220001F20C2431046079B002810D03118495D4B
:105230000B43401CF8E7216AD520C001FE3801E08D
:10524000216A53488847606A80475BB0F0BD002BF5
:105250001AD00898394602F01DFF00286ED00020B1
:10526000B0734520800035180598294608F030F8BD
:1052700020220898294608F0EDF900285AD1A169A2
:10528000484878448847E0E70792069802F0E9FE2C
:105290003061401C52D00498305801284AD1FEF7A2
:1052A000A3FB069002983258A22001903A48351884
:1052B00000950027204603993B46FFF797FB0028FF
:1052C00038D454975390529552A82DA907F0F8FD61
:1052D000401C4FD02DA818300027394603F0A6FAFD
:1052E0000699884246D12DA8017F2C4D2A68126864
:1052F00010ABFEF79FFB401C23D02DA81F3010A938
:10530000712208F002FA002834D13069FBF794F8D2
:1053100002462DA8007F03282CD1286881880E9191
:10532000C0880F900C2F0FD02DA8C05909A9C851C3
:105330003F1DF7E7216AD520C00183E7216A1548A0
:1053400080E7216A164818E0B0680D90307B411E56
:1053500088410C9007991F3102200090019109A803
:1053600005210EABFBF744F8002803D00120B073F1
:10537000002006E0216AD520C0018847606A804786
:105380000120002800D060E76BE7C046D80200206B
:10539000876A000008B000008B020000BC060020F5
:1053A00007B0000023010000F0B587B004460027D5
:1053B0000697222005904320C000244D2E18049605
:1053C000652080002B58287BA96804AA02920191CD
:1053D000411E884100903320C00029185D208000C4
:1053E0002A18204602F034FC002819D401460397FD
:1053F000174802684B200090092080012F18304682
:105400003B4603F014FC8F2189006850002807D424
:10541000687B00280AD0A87B00280CD0039D0BE0F5
:10542000216A0C488847606A80470CE0A1690A48F5
:105430007844884707E09235084B7B44204629464C
:105440003A46FEF7CBFF07B0F0BDC046D8020020B9
:10545000BC06002007B000002D0000002300000063
:10546000B0B504468F208000064A11580925A801CE
:105470001018E2699047216A28038847606A8047CC
:10548000B0BDC046D8020020F0B593B00F46044628
:105490001C9E1B980390002C12D0032C22D121219A
:1054A00005AC38462246FEF7E5F9002500951421A3
:1054B0002046039A3346FDF787FF002832D132E0B9
:1054C0001546212105AC38462246FEF7D3F9731E56
:1054D00020462946039C2246FEF7F6FA00281FD5EF
:1054E000002520E00DA814210191417000250570D0
:1054F000821C212138460292FEF7BCF9012C15D1FD
:10550000199C0DA8162105AF3A46FEF7B3F9731E94
:1055100038462146039C2246FEF7D6FA002802D4DC
:10552000002121540125284613B0F0BD1A9E002EFB
:10553000F9D0042C08D0022CF5D10198009000225B
:1055400003983146029B0BE0781C04A905AC224667
:10555000FEF77CFB20200090012203983146234671
:1055600003F0CCFCA9E770B5ACB004460069002894
:1055700033D00D46207BA168491C401EC2B218A83A
:10558000FAF76DFF002828D018A80178001D23AA7B
:1055900000263346FEF7BDF900281FD02A89A068EF
:1055A0000078E989EB6B4B25049505AD01AE2AC661
:1055B0000026009623A93346FFF766FF00280DD08A
:1055C000246905AD284608F099F8421C2846214672
:1055D00008F040F84642464100E0002630462CB034
:1055E00070BDF0B585B00E4600218173027B082A9C
:1055F00025D805460E35002101910391029102A99B
:1056000000918B1A08338168184608F010F8344668
:105610002F34204608F072F80746284621463A46BD
:1056200008F009F82020E855E819421CF16C0098B0
:10563000FCF745FC381840190199417001210846D2
:1056400005B0F0BDF0B597B0044606AE4121304636
:1056500007F0E8FF00250395029505950495A169DB
:10566000402730463A4608F062F8F05D00283DD108
:10567000227B082A3AD8277D082F37D804AEB01AE3
:105680000830A16807F0D3FF02A80190C01B0830C2
:1056900021693A4607F0CBFF164D6021284607F0F6
:1056A000C1FF28461C3006AC412721463A4607F088
:1056B000BEFF05980499039A029BE96028616B611B
:1056C000AA6100253046294603F0BCF80A4E03C6FD
:1056D00001982946083E03F0B5F8B060F160103635
:1056E000304621463A4607F0A2FF0125284617B06A
:1056F000F0BDC046C80500209009002080B501F02B
:10570000D9FC80BD04480088044908800448017819
:1057100001220A4302707047B2060020B40600203E
:10572000B606002002480178FE220A400270704747
:10573000B60600200448008804490880044801781F
:1057400002220A4302707047B2060020B806002009
:10575000B606002002480178FD220A400270704718
:10576000B606002004480021017004480178FC229C
:105770000A4002707047C046BA060020B6060020F4
:10578000F8B5F14D287815282DD00D2833D00E28E6
:1057900078D0FC4C0027052800D0E7E067600120A6
:1057A0002070204605F0CAFC042005F035FD60603D
:1057B000002800D165E2972800D162E2692800D074
:1057C00021E201F01FFC01F01FFCC225EE4E7753D1
:1057D000042005F021FD6060002800D151E29728E7
:1057E00000D14EE238E1E9488079012803D1A87957
:1057F000000700D450E2E34C0027676001202070CE
:10580000204605F09BFC042005F006FD60600028A2
:1058100000D136E2692800D155E1972800D130E265
:10582000D94CC426A059002800D122E2C820205C0F
:10583000C225615B814200D31BE205F0C1FC002858
:1058400000D016E205F030FCAA2804D105F06AFC6D
:10585000AA2800D00DE2A159625B50010818D0239C
:10586000E358002B04D09847002807D0625BA15969
:10587000012801D15001081801F01CFC605B401C9C
:105880006053CEE7C24D2888411C2980C14C207846
:10589000820712D5C04A128889B2891A0A290CDBFC
:1058A000BF4901220A70FD2108402070BB4979449C
:1058B0000020024606F086FD2078C10706D0F84990
:1058C00009882A88511A322900DBE2E1F54D0026C9
:1058D0006E6001202870284605F030FC042005F099
:1058E0009BFC6860692800D030E101F08BFB01F07F
:1058F0008BFBC224EC4E00203053042005F08CFCBE
:105900006860002800D1BCE197282AD1B9E1C820FD
:10591000305C315B814200D3B3E105F051FC0028DB
:1059200000D0AEE105F0C0FBAA2804D105F0FAFBD7
:10593000AA2800D0A5E17159325B50010818D02384
:10594000F358002B04D09847002807D0325B7159D8
:10595000012801D15001081801F0ACFB305B401C5C
:105960003053C42570590028D1D18AE167600120E5
:105970002070204605F0E2FB042005F04DFC60603D
:1059800069286ED101F03EFB01F03EFBC225C64EF8
:105990007753042005F040FC6060002800D170E1DE
:1059A00097282AD16DE1C820305C715B814200D319
:1059B00067E105F005FC002800D062E105F074FB0A
:1059C000AA2804D105F0AEFBAA2800D059E131592C
:1059D000725B50010818D023F358002B04D098476D
:1059E000002807D0725B3159012801D150010818F5
:1059F00001F060FB705B401C7053C42430590028D8
:105A0000D1D13EE1C820305C715B814200D338E1E6
:105A100005F0D6FB002800D033E105F045FBAA28AD
:105A200004D105F07FFBAA2800D02AE13159725B2E
:105A300050010818D023F358002B04D098470028B1
:105A400007D0725B3159012801D15001081801F0CB
:105A500031FB705B401C7053C42430590028D1D1F5
:105A60000FE1914CC426A059002800D101E1C820C3
:105A7000205CC225615B814200D3FAE005F0A0FB07
:105A8000002800D0F5E005F00FFBAA2804D105F0AE
:105A900049FBAA2800D0ECE0A159625B500108182C
:105AA000D023E358002B04D09847002807D0625B2E
:105AB000A159012801D15001081801F0FBFA605BDF
:105AC000401C6053CEE701F09DFA01F09DFAC2251B
:105AD000754E7753042005F09FFB6060002800D1CD
