:02000004C0D06A
:10000000B0B58CB062B600280AD0044601200002C8
:100010002168814202D0022005F09AFB606803E06B
:100020002548784405F02EF92149086004F00CFABF
:10003000204C01200102204608F0F0F86D462846C9
:1000400008F0D2F9A88585B2002D0BD068460021B2
:1000500081850A9805F0E2FB0A9805F0DFFB102D78
:10006000E7D01FE06D46284605F0D8FB0A9004F063
:1000700057FB01F0D9FE002007F01CF8012007F023
:1000800019F803F041FA00F0B9F805F0BBFBA842FB
:1000900002D10A9805F0C2FB6846808D0028C8D0BE
:1000A00004F00AFA04F0B0F900200CB0B0BDC0466C
:1000B000081D0020901D002042920000F0B58DB078
:1000C0004548464C00272752B7208000275401AEF0
:1000D000304608F089F90546B08580B2002812D074
:1000E00010286ED001A887850B9805F097FB022099
:1000F000394960523C486F2101704570012120460A
:1001000002F060FA16E001A805F088FB0B90208849
:1001100002F05DFA207800281AD031483149215286
:100120006F21AA202C4D625B2F4B9954991848706F
:10013000901C605305F066FB01A9884202D10B9820
:1001400005F06CFB01A8808D002842D10DB0F0BDF8
:1001500025494A780B780020244D7D44244E7E4466
:100160002F5CBB4202D1375CBA420BD0401C0E2838
:10017000F6D3C2B20E2A05D16D210802184AA05248
:100180000020CFE71B4A7A44125C002A124D07D0A8
:100190005B22D200097900290DD0A15A05290AD085
:1001A000800015497944085805F06CF880470C49DF
:1001B0006052010AB7E767210802094AA0520020ED
:1001C000B1E701A887850B9805F028FB102004F003
:1001D00073F904F071F9C046DA02000078180020C3
:1001E000DE020000AA6F00005820002047850000B2
:1001F0005185000037850000288500000C48002448
:10020000FF22214604F03BF9B725A800094E3454DB
:10021000094FF4532046C0B2A1B204F08FFB5B211A
:10022000C9007052FFF74AFFF45BA800305CF2E7A8
:100230005820002078180020DA020000F0B581B0C4
:10024000254C7C44204605F01DF8808802F0BFF95B
:10025000204605F017F88088C0B21B4CFF282FD02D
:100260001E48784405F00EF88088000628D0174C08
:10027000208C174D6870E18CE9702822A25C2A71ED
:100280003B26A25D6A71000A2870080AA870A81DA2
:100290002146293104F0DDF83C27E25DA05D811D97
:1002A000C9B26A54C61DF0B228182146363104F08E
:1002B000D0F8E05D8019C0B20649605209200403FD
:1002C000204601B0F0BDC0468569000078180020C6
:1002D00058200020DA0200003A9700001A97000028
:1002E00010B51148784404F0CDFF80790B490C4AD1
:1002F000082353520B4930224A7001228A7004238A
:10030000CB7003230B714A7100248C71CB711040A8
:100310001B2242400A700920000310BDDA020000CF
:10032000781800205820002098960000B0B5194C8D
:100330007C44204604F0A6FF808802F048F920465D
:1003400004F0A0FF8088C0B20E4CFF2818D01248DD
:10035000784404F097FF8088000611D06B200402D7
:10036000094DA87800280BD10C48784404F08AFF86
:1003700080880649064A0123535228700920040345
:100380002046B0BD8569000058200020DA02000038
:10039000781800204C9600002C9600001296000061
:1003A00010B50720C0430A490979002900D0084642
:1003B000C4B267200002F82C08D80548214605F091
:1003C000C5F8044804490C520920000310BDC0467A
:1003D00058200020DA02000078180020F0B5B1B0F3
:1003E000574C26795B4D7D44284604F04BFF8088AE
:1003F00002F0EDF8284604F045FF8088C0B2514F66
:10040000042800D995E03546012631468140162062
:10041000014200D18DE0A1786B20020200208029EA
:100420001DD0002900D085E0601D002731460592CF
:100430003A4601F0D3FEB5218900434A50502D20A1
:10044000000117546D2080001654B120800017540D
:100450003E4817541775D777059A3A4F0420E1782C
:10046000002967D1291A5922D200374EB1542018D9
:10047000401DB32189007050012002F077F9092056
:100480000203307D082855D13946002737752D20C5
:100490000001305C002850D020256846456006A940
:1004A00003910160304648300121029105923A469D
:1004B0003B4605F059F808210491204605F046F81E
:1004C0003220207067700EAF384605F06DF8684630
:1004D000211D22C038460299039A2B462F4605F06B
:1004E00043F8B520800031582046243001F09AFEB0
:1004F0002046283031461531049D2A4603F0A9FFD5
:100500001548784404F0BEFE6A463946576029AF64
:10051000176008303023224605F066F83034204654
:1005200039462A4603F095FF059A09483821315289
:1005300000E03A46104631B0F0BD0A46FB32F9E71A
:100540005820002085690000781800207A040000F7
:10055000DA020000969500007A940000F0B5A5B08C
:10056000BA4D7D44284604F08DFE8779B04CA078C2
:100570000990284604F086FE2925405D0126374073
:100580000897002700280A9709D0A07802280A9F18
:1005900005D1A8488079C01F00210F1A4741AC48F7
:1005A000784404F06FFE405D099901290AD0002FBC
:1005B00008D1002806D09F488079C01F0021091A61
:1005C00041410A916B200502A078022800D92CE154
:1005D000E278022A11D3032A08D0022A00D024E1AB
:1005E000954800688069002807D11EE1924800689C
:1005F0002421405C022800D017E167200502207901
:10060000002800D111E10792611D1AA8292203F0E8
:1006100020FF002F09D060798000801DC0B2201813
:100620000121002201F0DAFD19908A4D7D4428460F
:1006300004F028FE808801F0CAFF284604F022FE5C
:100640007E49CD1C8088C0B2042800D9EDE08640E8
:100650001620064200D1E8E005F062F800282CD010
:100660001AA8012111AA01F09FFE412525700898C2
:10067000002804D17248083001F074FC2125601C68
:100680006F49083141220690059203F0E2FE079A75
:10069000012A16D0032A12D10BAE069829463246FB
:1006A00001F0FAFD00206946086022464332142119
:1006B0003223304602F0A8FE48E0604DB5E0022A41
:1006C00038D10BA8142103914170002104910170CD
:1006D000861C06982946324601F0DEFD079802285E
:1006E0001CD107965448006880690028089E2FD0C6
:1006F00004F0C8FD01466846039A02602046433074
:1007000000220690079B04F07BFE0546C0B201283C
:100710001ED1069807F082FE054619E04948C08CB4
:100720006946086004984860224643320BA81621A7
:10073000962309E04348008C00216A4603C2224602
:10074000433296230698294601F0CAFD0546089EC5
:1007500042202554002E01D104206070EDB26619AC
:100760003046433011A9202203F073FE284663303F
:100770003549344B5852099801281AD12A462F4D31
:10078000FE35322A51D82046C830433421461C4613
:1007900003F05FFEC82000213154B7208000215CA7
:1007A00010220A4322541AA803F0D6FD092005039B
:1007B0003BE0002F2CD00598185C002809D0194682
:1007C0003D3119A804221D4603F062FE2B46002885
:1007D0001ED0002605981E5418463D3019A9042243
:1007E0001F4603F036FE199B2046C83009251A4AD9
:1007F0007A44294604F078FBD0202654B7208000A4
:10080000395C10220A433A5403F0D0FD2D030CE06A
:10081000092005030A98002807D0B7208000195C3A
:1008200010220A431A5403F0CBFD284625B0F0BD30
:1008300058200020AC210020081D00208269000003
:100840000018002078180020DA0200001A94000036
:10085000DC93000050930000987D0000F0B581B05B
:100860007A21C9430B460B336922002800D01A466F
:100870000C4C0D4D2B5B9B1E002800D103469FB2F4
:100880000A4EF2559A1C2A530024002800D0214613
:10089000581C80B2315491B2202004F04FF801B0BE
:1008A000F0BDC046DA020000781800205820002071
:1008B000F0B59DB0ED4A95786B210E021179002DAF
:1008C00004D0FF2D02D0802D00D0BCE1059108900E
:1008D0007320C100E64FB12080000790385C0024EF
:1008E0000028049112D0785C00280FD1507901249F
:1008F000FD21FD280AD34A1CD4B205220023A042C0
:1009000000D01A460324884200D0144609AE30466F
:1009100007F06AFDB085000408D009A80021818590
:10092000139804F07BFF6F20060268E109A804F029
:1009300075FF1390387DCF4E092800D05CE102216D
:10094000C843801CC0B2854256D1787F002800D1B0
:100950003FE1D048385C002800D14DE100219A22C7
:10096000089803F08CFDC1494879002800D130E196
:10097000089D6F35491D2922284603F06AFD01268E
:10098000002228463146039201F00EFDC548784406
:1009900004F078FC80794121C00704D1BE480830BA
:1009A00001F0E0FA2121BC480830089C22465B3265
:1009B00001F072FC0720C00138185A341522214674
:1009C00003F047FDB34803993954B0483E542846D4
:1009D000314601F021FD002800D1FAE04720000156
:1009E00004213954B7208000395C10220A433A545C
:1009F000284603F0EFFCECE006919F48385C0028A5
:100A000012D10598031B3546FB36002B00DAF3E0C4
:100A1000002168460160416094480019421D384633
:100A2000483004F0A1FD2E46787F00282DD0934C4D
:100A3000385B059D4119FB36C82900D9DCE0381820
:100A40008F4940188949491D2A4603F002FD385B49
:100A50004019385300F006FA002804D0B72080006F
:100A6000385CC006F6D5874838580028814E0CD12E
:100A7000B7208100795CCA0607D4472212010323FC
:100A8000BB5410221143800039540798385C774AD0
:100A9000917800292AD00028089C12D1202069468C
:100AA000486015A808602920C00038186F494A1D01
:100AB0000121059B04F058FD6C490798385C00281B
:100AC0005BD06D48385C002827D0202069464860FC
:100AD00015A808602920C00038183721C9007A18E5
:100AE0000121602304F040FD604946E000280CD15C
:100AF00000216846016041602920C00038185B4A27
:100B0000521D059B04F030FD584A614801213952BD
:100B100004983954002010705BE05B48385C029008
:100B2000202468463F21C9007E18066044603D4687
:100B30004835012100232846324604F015FD02986D
:100B400000280BD1284604F02FFD6846066044605B
:100B5000012128463246234604F006FD68464460DB
:100B600015A901602920C000381801213F4A00233F
:100B700004F0FAFC089C3D493E4E787F00282ED0B8
:100B80004248385C002804D100219A22204603F014
:100B900076FC2020385C60702220385CA070242015
:100BA000385CE0702620385C207120462530082112
:100BB00004F0CCFC36480699395200202B490870C5
:100BC0004870787F002810D0601D15A9202203F0FE
:100BD00040FC139804F022FE0920060333E02C4861
:100BE000069A3A52002048700870611D15A820220C
:100BF00001F0E5FA002829D0139804F00FFE244CE8
:100C00000020385338751D4D7A5B1D483918174838
:100C100003F01FFC785B385304F0F4FD09A9884207
:100C200002D1139804F0FAFD144800243C524720E6
:100C3000000101213954194838180822214603F0CF
:100C40001EFC17483C5430461DB0F0BD0798395C77
:100C50000A20002906D0084AB95C002902D10120E7
:100C6000B8540020387509200603D5E75820002025
:100C70007818002085690000C602000062040000A8
:100C800099030000640400007A040000950300004A
:100C9000DA02000097030000001800207104000031
:100CA00079040000EE8F000070B5B9208000134D6C
:100CB0002818FFF7FDFD0446B7208600A85DC00692
:100CC0001AD547200001295C042904D0032905D145
:100CD00003F024FB04E0012129540DE003F0FAFAAB
:100CE000002809D1064800212952A85DEF220240C0
:100CF000AA552975D520C401204670BD781800205A
:100D0000DA020000F0B581B009210A030028009240
:100D10002BD0494C494D285947210E01A95D022984
:100D200001D1401E28510028104633D0444FEA59C3
:100D3000444828188118444C2B5B9A1A03F089FB0D
:100D4000E85B295B081A28533B4CB7208700E85D15
:100D5000EF210140E95500F085F8EA5D10211140CE
:100D600000280AD00029F6D00AE034480022027593
:100D700047210901415C354836E00029009809D037
:100D800003F0A8FA01460120002952D1002028755D
:100D90002E48FB30A95D022910D12A59002A0DD115
:100DA0000320A85503F0BAFA01460120002940D1DA
:100DB0000022AA552548FB30114611E0032910D125
:100DC00000216977B12189006B5C03210A22002B85
:100DD00006D01F4BEC5C002C02D10122EA54002209
:100DE0002A751C4AAA5A921E93B2040A1A4FFC543E
:100DF000931C184D114E7353521C92B2B854009A62
:100E0000904201D103290FD10F48002434524720CA
:100E1000000101213154114830180822214603F005
:100E20002EFB0F483454735B99B2202003F086FDEB
:100E3000002001B0F0BDC046640400007818002016
:100E40006C04000099030000620400008569000042
:100E5000C6020000DA0200005820002071040000E1
:100E600079040000F0B593B09A489B4D00272F50AD
:100E700047200401285D02281FD0012800D025E169
:100E80008D20C600AF519548295A002900D106E1AE
:100E90009548285C0122FD2844D3FE2838D0FD283F
:100EA00000D013E1032900D2F9E09648285C964966
:100EB000695C09020818032234E0884C295B09297F
:100EC00000D2ECE0864EA85DFD22FC2801D8092264
:100ED0000DE0904200D0F9E00B2900D2DFE081481C
:100EE000281800210A4601F079F9295B0B22101815
:100EF000884200D9D3E00890002001277A492A18B7
:100F0000525C401C002A20D100240728F7D92BE08E
:100F1000052900D2C3E07B48281800210A4601F0C9
:100F20005DF9052276496850A851022028556E487F
:100F300028188118694C16462A5B921B03F089FA1F
:100F4000285B801B28530127A9E06918344611AE9D
:100F50000822304601F01FFA64482818014632463C
:100F6000264601F03DFB3C46AE19304601F0F8F84C
:100F70000990304601F09AF80A90304601F05CF88A
:100F80000490304601F078F80390304601F06BF899
:100F90000290304601F0C2F80590C021069130461B
:100FA00001F0E4F8019007963046069901F002F945
:100FB00001464F4800682426805D112810D107980B
:100FC000069100F0EBFF0A9908430699002807D123
:100FD00001980143002C01D109980143002975D0E3
:100FE00043480068805D112813D0079800F0D6FFB1
:100FF0000A99049A0A4303990A4302990A4302434D
:1010000000200999401A48410443012C01D11006DF
:101010005CD009980028089A39D13648285C002805
:1010200035D00A980599014304260320002900D0F1
:1010300006460A9800281FD0B1208000285C0028AE
:1010400025D00BAC14220A926270002020702A482E
:101050002918A01C03F0FDF916212046224601F0B4
:101060001BF9A8191E49401821460A9A03F010FAE4
:10107000002817D0089A0AE01F482918A819184A0A
:101080008018142203F004FA089A002811D011489D
:101090002A50B7208000295C10220A432A5438467F
:1010A00013B0F0BD124800682821405C40070DD500
:1010B000089A1248295C002908D1012129541048B6
:1010C0002958491E2950002AE9D030E7012003F0B1
:1010D000F3F9C0466C040000781800206204000098
:1010E000A1030000A20300009903000071040000A6
:1010F000081D002095030000810300007904000012
:10110000640400009A0300009B030000F0B581B066
:101110005C4D2E79664C7C44204604F0B3F8808800
:1011200001F055FA204604F0ADF80146564CE01C9B
:101130008988C9B2042900D9A2E0009601273A465D
:101140008A4016210A4200D19AE0A9786B20000259
:10115000802909D0002900D092E06D2292004B4BEB
:1011600003269E5400221A75EE78052E38D8012EDB
:1011700036D000294BD1B01EC1B20020042900D3C3
:1011800007464249487F002805D104F0C9FA3F4983
:101190000028204674D0B12080000F540F46012152
:1011A00079770024FC833A4800682422825C39481D
:1011B0003C5403235E40022353403343E61A5E410E
:1011C000354BFE541A2A3E460FD89140334A1142FD
:1011D0000BD0E978052906D0042906D1012103E0C6
:1011E000802E14D04CE0022131542D4834542D4827
:1011F00034540720C00130181922214603F03FF96A
:1012000029483454294801213154EE78A9781F4CDB
:10121000B12080008022802E25D0205C002822D0A2
:101220002148235C002B1ED191421CD129790A3917
:10123000C9B2312917D86979022914D8012908D1EE
:10124000A979382905D1E979322902D1297A0029E9
:1012500009D001212154B7208000215C10220A43CB
:10126000225403F0C7F85920C00000992154B3203C
:101270008000691D2150022001F078FA0920000346
:1012800001B0F0BD582000208269000078180020CD
:10129000081D00207A040000C502000080014004FF
:1012A000C60200007B040000C70200009703000094
:1012B00066880000F0B5F1B0774C7C44204603F01E
:1012C000E1FF808801F083F9204603F0DBFF80888E
:1012D000C0B2694D04282FD8012739468140162015
:1012E000014229D0654E6B200002B178022902D359
:1012F000F278002A21D167200002002902D1317939
:1013000007291AD307AC204607F06EF8A085000421
:1013100016D007A800218185119804F07FFA6F206C
:10132000050257480021017504F06CFA07A98842AC
:1013300002D1119804F072FA284680B271B0F0BD63
:1013400007A804F06BFA1190B07800280ED001289D
:10135000EAD133790021684601604160484848304D
:10136000721D04F001F909200503DDE74449087DF9
:101370000A280BD14448085C002803D04148085C87
:10138000002803D0FB3570790B2803D3119804F0A3
:1013900045FAC6E7741D2EA82922214603F059F804
:1013A00070798000401C215C2018401844783B482C
:1013B000784403F067FF8079400711D43348006810
:1013C0002421415C022902D0C169002905D0412CA9
:1013D000DCD1C0690002041902E0012C3C46D5D1E1
:1013E000B9208000264F391839A89A2203F031F825
:1013F0002EA800210A4600F0D7FF2146069470ACC3
:10140000204600F00FFF20256846456068A904913A
:1014100001601B484830012704233946224604F066
:10142000A3F813AC204604F0BFF86846456060A9F5
:101430000591016020463946049A2B4604F094F841
:101440001748784403F01EFF80798007C00F694673
:10145000FF2252320E604A6088600D483946059A74
:101460002B4601F075F87078C11C0A4A044B99525A
:1014700030180699817076E78569000058200020B1
:10148000781800207B0400007A040000081D00206A
:101490004C180020DA020000C2860000CC85000053
:1014A0003A850000F0B581B06B2004023B4FBD7857
:1014B000012D6DD8387967210C02002D02D0192832
:1014C00002D965E0052863D1384C7C44204603F0FE
:1014D000D9FE808801F07BF8204603F0D3FE304E21
:1014E000F41C8088C0B2FF2852D03148784403F001
:1014F000C9FE808800064BD004F012F9002846D0BF
:10150000787AFE36012810D0032808D002283ED170
:10151000244909682822895C890706D437E02149D3
:1015200009682422895C112931D128211E4A50548E
:10153000B8797979090208181084387AF97909029A
:101540000818D08409200103012D24D1BD7A78190F
:101550000D2D1CD8C07A0528344619D806461046E9
:101560002930009139460B3114462A4602F071FFAA
:101570003B2025540B35E8B23818411C2046363044
:10158000324602F066FF3C202654009C00E03446C0
:10159000204601B0F0BD0C46FAE7C04658200020B6
:1015A00082690000081D002078180020B284000025
:1015B00090840000F0B581B067200602274D28799D
:1015C000012829D1274C7C44204603F05BFE80880B
:1015D00000F0FDFF204603F055FE8088C0B2204F8A
:1015E000FF2818D02048784403F04CFE808800067D
:1015F00011D0FE1E04F094F800280DD06C791B4821
:10160000784403F03FFE092109038088C0B2844278
:1016100005D10E4600E03E46B0B201B0F0BD3E46F8
:10162000FB36082CF8D800910120A0408B214900FE
:101630000842F1D00E4D7D44284603F023FE408839
:1016400000F0C5FF284603F01DFE408820423E46BC
:10165000E2D0204600F08EFC009EDDE758200020FE
:1016600085690000B6830000968300007C8300003B
:10167000468300006D20000270470000F0B58BB07B
:1016800009AE0021062730463A4602F0F8FE0A204D
:101690000A990143317101243046214600F092FF3E
:1016A000B01C214600F08EFF114D7D44284603F00A
:1016B000E9FD801C31463A4603F03AFF6E4620278A
:1016C0003046394603F042FF284603F0DBFD083080
:1016D00031463A4603F02CFF08AE3470284603F03A
:1016E000D1FD401C3146224603F022FF0BB0F0BD75
:1016F000D2820000F0B581B0017800250091002968
:1017000018D0441C002701250026204629463246D1
:1017100000F064FD80B2094988420BD00849884234
:1017200007D0241D7F1CF8B2009988423546EAD3C1
:1017300000E00225284601B0F0BDC0461DB1000002
:101740001EB10000F0B599B0B24A977880203843B6
:101750006B210E02802800D02EE110790A90D578F6
:10176000002F04D1022D02D3802D00D024E1D520FA
:10177000C4012646FE3E03F0D3FF002800D11BE142
:101780000DAE304606F030FEB085000408D00DA83E
:1017900000218185179804F041F86F200402FAE0D7
:1017A0000DA804F03BF81790002F16D09B4DDF21B9
:1017B0008900695A002900D1EBE0974AAA5A8A4267
:1017C00000D0E6E096482818FFF794FF002800D1E3
:1017D000AEE000F031F90446E5E0012D77D8B920FC
:1017E00080008E4F381800269A22314602F047FEBC
:1017F000884B58790B2800D3CAE02020385C8A49EE
:1018000078542220385C894978542420385C8849EF
:1018100078542620385C5D21C900785480483818F7
:10182000591D292205921F4602F013FE7879800087
:10183000401C431DF95C0622002D05D001221343F4
:10184000FA5C090289180722744FDF239B00F952C2
:101850008018002900D19BE007906F483E523D461A
:1018600048373846099303F09FFE0598C0002818B2
:10187000069003F099FE3B200390285C11300CAADF
:10188000107068460660466001233846314608936A
:1018900003F06AFE03982B5C6846066046602A46A1
:1018A00029323846314603F05FFE684606604660DE
:1018B000604A7A4411233846314603F055FE0998B0
:1018C000285AFC2844D80BA90870012347E0DF21DF
:1018D0008F00524DE95B504AAA5A0A9E92198A42D9
:1018E00057D8002468460460446028464830494977
:1018F0004A1D02922146334603F036FE68460460D4
:1019000044602920C00028182146029A334603F07B
:101910002BFE404A4049685A801968521470E95BAE
:1019200080B2884210D13F480221295254706DE0A4
:10193000B7208000295C10220A432A54179803F02C
:101940006DFF0920060337E03648012129525DE08A
:101950000BA94870FD220A70000A887003236846AC
:10196000066046600BAA3846314603F0FDFD0A9832
:10197000401D0497079D401B0CA90870264A11467C
:10198000264A515AC3B2C818099FD15B884216D95A
:10199000179803F043FFB920800020490818002160
:1019A0009A2202F06CFD03F02DFF0DA9884202D1AE
:1019B000179803F033FF2646B0B219B0F0BD684661
:1019C000066046601446134F7F19049831463A4624
:1019D00003F0CAFD0CAD2B78684606604660069899
:1019E00031463A4603F0C0FD0A4F0B4AA05A297807
:1019F0004018A0523E700999615A80B28842089AF4
:101A000001D17E700222074804490A5209200403CA
:101A1000C9E7C046582000207E0300007818002047
:101A200053030000DA020000E5020000E6020000B5
:101A3000E70200007E6D0000F0B599B03648374EE1
:101A40000025355205AC204606F0CEFCA0850004EA
:101A500007D005A885850F9803F0E0FE6F200402EB
:101A600042E005A803F0DAFE0F90202103916846BA
:101A7000416011AD0560294E4836012400273046EB
:101A8000214604942A463B4603F06EFD304603F09F
:101A90008BFD68460560039B4360304621462A461D
:101AA0001C4603F061FD1E481C49081839463A4699
:101AB00000F07AFC1D48784403F0E4FB807980074D
:101AC000C00F6946886064204860164E0E60164854
:101AD00004992A46234600F03BFD70780F4E801C87
:101AE0000D4970520920040303F08CFE05A98842B9
:101AF00002D10F9803F092FEB92080003018002127
:101B00009A2202F0BCFC05A8808D002802D1204654
:101B100019B0F0BD02F0D0FCDA0200007818002005
:101B200053030000582000204C180020C67E0000FF
:101B3000B0B5B7208500FFF705FE04460348405DB9
:101B4000C00601D502F0FCFB2046B0BD781800208D
:101B5000B0B5014669228520002902D0FFF76CFF4D
:101B6000020A0749074B5C5A074D2A55A21C5A52D4
:101B7000611C89B2685491B2202002F0DFFEB0BD32
:101B8000DA02000078180020582000206D200002A2
:101B900070470000F0B5B3B01C4615460F460690DE
:101BA00009A8A62106F03AFB0026F043782F6FD84B
:101BB0000090002F07D000260698805D002802D1F3
:101BC000761CBE42F8D301950394B91B8A20484382
:101BD000642106F0A1F903460296BE42059026D282
:101BE0001946029A049706980792805C491E08914C
:101BF0001F4609AEF15D09020D183A242846214618
:101C000006F014FA4443291BF155393508998F42DF
:101C100001D8732D04D3791E002F0F46E9DC00E0B4
:101C20003946079A521C049FBA42059BDBD100201B
:101C3000039A029F09A9095C002904D1451C984216
:101C40002846F7D300E00546F818401C441B1068EE
:101C5000A04201D200981AE00E4E7E4431780198DD
:101C60003A4602F00CFC059B00209D4201D93C46FF
:101C70000CE002460198C01909A9495D715C017028
:101C8000401C691C9D420D46F6D31046039A146011
:101C900033B0F0BD9C690000F0B593B0039060488C
:101CA0000068846A08A82A2106F0B8FA01221440C4
:101CB0000D210F20002C00D0014601910820029038
:101CC0000620002C00D002901320002305920399D7
:101CD0000493C95C069100260721891B17468F4093
:101CE00006990F40C1B214290ED81522541A4A0081
:101CF00008AB9B181D88EA1C042D00D82A461A80C0
:101D0000641E9B1C002CF5D1490008AA515A421EA2
:101D1000072900D802460792D2B2132A14D81420F9
:101D2000801A510008AA5418535A658801220021CC
:101D3000072D00D80A465907090F89182180401E2F
:101D4000A41C00282B46F0D1002F059A104600D184
:101D5000384612994907090F081808A90885761C02
:101D6000082E07990846B7D1049B5B1C082B084630
:101D7000ADD100222B4C13461046019ED1B2490032
:101D800008AD695A000602D10020002907D01720AB
:101D900040012058DDB2303141555B1C0120521CFE
:101DA000D5B2AE42EAD8180605D117204001205816
:101DB000302101700123002107910298CFB2B8426F
:101DC0000E4629D97F197F0008A8C05B761C002821
:101DD00004D1F7B20298B842F4D81DE00798000683
:101DE00008D1172040012058DEB22E2787555B1CF2
:101DF00001200790172040012058D6B2760008AF86
:101E0000BE5D3036DFB2C6555B1C521C491CC8B2E1
:101E1000029E86423046D1D8D8B213B0F0BDC0463B
:101E2000081D002078180020F0B583B04920020179
:101E3000414D00262846314602F021FB2846314616
:101E400000F0C0FB4720000101242C543B482E52D7
:101E50003B4828180822314602F011FB39482E541D
:101E600039482E543A48784403F00CFA4078012857
:101E700001D0FFF703FC3748784403F003FA4078B9
:101E8000002837D0314E3068018829844188698420
:101E90008188A984C188E984017A2822A954C0686C
:101EA00003F0F0F906F0BAFA3B27E8553068C0684D
:101EB00003F0E8F90146EA5D2846293002F0C9FA44
:101EC0003068406903F0DEF906F0A8FA3C27E855CF
:101ED0003068406903F0D6F90146EA5D3635284698
:101EE00002F0B7FA1C48784403F0CCF9808800F07F
:101EF0006EFB02E0FF2000F03DF81848784403F044
:101F0000C1F90078002814D102AD2C7001AE3470F4
:101F1000134F7F44384603F0B5F929303146224645
:101F200003F006FB384603F0ADF92946224603F0DC
:101F3000FFFA03B0F0BDC04678180020620400002C
:101F400071040000C702000079040000081D002091
:101F5000167B0000047B0000967A0000807A000067
:101F60006A7A00004021415C01220A40911C017004
:101F70007047000010B582B0014601AC204600F069
:101F800021FB0548784403F07DF9001D022221461B
:101F900003F0CEFA02B010BDF879000070B5044627
:101FA0001E4E30688169002911D01D4979440322F1
:101FB000204602F06DFA012500282CD019497944F9
:101FC0000322204602F064FA002824D0306824213D
:101FD000405C13280CD1144979440422204602F0B5
:101FE00057FA002816D118341049794428220BE0FA
:101FF0000F4979440422204602F04AFA002809D108
:1020000018340C4979440222204602F041FA012595
:10201000002800D00025284670BDC046081D0020BD
:102020001566000006660000EF650000E16500002F
:102030009B6500008D65000042785621C9431D3123
:10204000CBB2A9219A420CD18278632A09D1C278F5
:10205000762A06D102798A4203D1417901201429D6
:1020600000D00020704741786A2903D1817801208F
:10207000C12900D000207047817D752914D1C27D0F
:102080005621C9431D31CBB2A9219A420CD1027EFF
:10209000632A09D1427E762A06D1827E8A4203D102
:1020A000C17E0120142900D000207047B0B504463D
:1020B000154800682421405C132810D11349794445
:1020C0000322204602F0E4F900281AD117341049FF
:1020D00079442722204602F0DBF901250FE00D4963
:1020E00079440322204602F0D3F9002809D117349D
:1020F00009497944012520462A4602F0C9F90028F9
:1021000000D000252846B0BD081D0020D96400007D
:10211000CA640000B3640000A4640000B0B50446C3
:102120000C4800688069002810D00B4979440322CC
:10213000204602F0ADF90125002808D0074979446E
:102140000322204602F0A4F9002800D000252846EA
:10215000B0BDC046081D00209564000086640000E4
:1021600041786A390020401A4841704780B5C12241
:1021700000F001F880BDF0B581B015460F46064667
:10218000FFF70CFF0024002811D13046FFF78EFF27
:1021900000280CD170786A2809D03078EA2806D84F
:1021A000B84204D2305C401B00210C1A4441204646
:1021B00001B0F0BD80B5C222FFF7DDFF80BD70B574
:1021C0000023002A08D00023521E94B2055D0E5D44
:1021D0006E403343002CF7D1D8B270BDF0B581B05A
:1021E00000920722D3430822002900D01A4618245F
:1021F000002900D10C4600252946465D7F2737403F
:10220000002D334600D13B46009F002F00D01E46D4
:10221000E3B29E4071189C186D1C042DEDD1084648
:1022200001B0F0BD01700A0A42700A0C8270090EFA
:10223000C170704770B58CB00C4605466E4630468E
:1022400006F0D2F8B085000411D1684603F0E6FA32
:102250000A90212020220E4B294603F0D9F9002CA8
:1022600005D021200B490A4A012303F0E1F903F0CC
:10227000C9FA6946884202D10A9803F0CFFA684643
:10228000808D002801D10CB070BD02F015F9C04658
:102290004C18002000180020F0B5A9B003AB07C30C
:1022A0000EAD284603F080F920266846466006AF4A
:1022B0000760012428462146039A049B03F054F941
:1022C000284603F065F914206946059A0A604860BB
:1022D000284621463A46334603F046F929B0F0BD78
:1022E000F0B5B1B01E4615460346369C02270120C4
:1022F000FF2C00D80746379800280595049606D08D
:102300003A4614322AA8194602F0A3F80DE02AA88A
:10231000C2191846FFF7C0FF200A04D02AA844704B
:10232000210A017001E02AA8047007AD284603F0D5
:102330003BF920266846466022AC04603B461433D5
:10234000012102912AAA0392284603F00DF928469A
:1023500003F02AF9684650C02846029922463346BF
:1023600003F002F9039DE81914300422214602F01B
:1023700070F804980690183706AB28463946059A37
:10238000FFF708FC002803DB06A8008831B0F0BD89
:10239000012002F091F8002A05D0491E8B5C0370E1
:1023A000401C521EFAD17047F0B595B005780B2D40
:1023B0002FD216460291002D13D0401C0021182266
:1023C00000273B46C45DD2B29440E3187F1C083A14
:1023D000042FF7D18A000BACA350491C001DA94261
:1023E000EDD102F049FC6846066021200BA903AE3E
:1023F0002A46334603F076F930460299FFF71AFF72
:1024000002F03AFC00212022304602F038F815B0E4
:10241000F0BD022002F050F8F0B58DB00246007811
:102420000B2837D20124002831D002940191521C8C
:102430000024182500273E46D35DEDB2AB409E191F
:102440007F1C083D042FF7D1A30003ADEE50641CA0
:10245000121D8442EDD10528029C18D10124E20707
:10246000039B53402C2B03D0542B01D0312B0ED186
:102470006432059991420ADC06990198814206D19D
:10248000064A079B01240021934200D80C462046AF
:102490000DB0F0BD022002F00FF8C04650C300009E
:1024A000F0B585B0049202780B2A4BD20F4620215A
:1024B00039700021002A3DD00499891E0191461CE3
:1024C0000023012102920393182000221546B35CD9
:1024D000C0B283405D19521C0838042AF7D178181D
:1024E000049A511A0122D2072B469343174A7A4481
:1024F00002F0FAFC3C463846049906F031F8C1B2C5
:10250000361D019A91421ADA002D039B01DB274602
:1025100003E0272227466254401CC1B22F227A547E
:10252000401CC1B2002078545B1CD8B2029A904281
:10253000C9D3491E00207854C8B205B0F0BD0320AD
:1025400001F0BAFF022001F0B7FFC04605610000AC
:10255000F0B587B01E4605920F46044602F08CFB8C
:102560000D980C9D002F0DD0059B0E990022069210
:1025700006AF6A46166055609060D76000290CD09F
:102580000F490BE069460E604D608860012103220F
:102590002046059B03F074F80BE00849032220460F
:1025A00003F056F83878C00703D02878012101439A
:1025B000297002F061FB07B0F0BDC04601040000C5
:1025C00001060000CA43120251180180704780B50D
:1025D000FF218143000A814201D002F09FFF80BDAC
:1025E000F0B5002307241E46155D0F5DF619751919
:1025F00005550126FF2D00D81E46671E002C3C46BF
:10260000F2D101200021FF2D00D80846F0BDF0B521
:1026100081B0002607240096155D0F5D330604D0B7
:10262000AF4204D97F1E002303E0009B01E0FF3787
:1026300033467E1B0655BFB20126AF4200D31E466D
:10264000631E002C1C46E7D1F0B201B0F0BD0000C3
:1026500070B582B004466D26B000114D285CC107EC
:102660000DD0B32080002A580021684601604160E7
:1026700028464830234602F077FFB000285C8007E8
:102680000CD5B32080002A580021684601604160C3
:102690002920C0002818234602F066FF02B070BD52
:1026A00078180020F0B583B05920C6002E4DA85DE3
:1026B000002853D0B3208700E85904780320C04392
:1026C000401CC0B2FC21844209D201252846019653
:1026D0000E46FFF7BDFF3246019ED21C33E0FE2CB2
:1026E00002911AD0FD2C3CD10120FFF7B1FFE8592F
:1026F000411CE951A95D491EA955C9B201292DD92D
:1027000041780191847802252846FFF7A1FF200235
:1027100001994418029A921C15E00120FFF798FFD6
:10272000E859401CE851A95D491EA955C9B20329C1
:1027300014D900210A46FFF751FD04460425284616
:10274000FFF786FF029A08480146C0594019C85150
:10275000885D80188855204603B0F0BD012001F047
:10276000ABFE022001F0A8FE78180020F0B5B7B04B
:102770000646EB48784402F085FD85792BAC20466F
:1027800005F032FEA0852907CD0F84B2002C01D0C0
:1027900000F089FD2BA803F041F83590012012903C
:1027A000002D00D11295139515A8C01D11901DA8DC
:1027B000011D0F91283010901DA80C300E90F24B87
:1027C00014969EE2072800D09BE21C69002C00D1E1
:1027D00025E25920C500585D002801D100F052FDC6
:1027E000844200D30446002C01D100F04BFDE0B23E
:1027F000FFF72EFFE44BB320800019580919195038
:10280000585D001B58551869001B186179E24E7815
:102810003546083DE9B2302901D900F041FDB11C2F
:102820000891C9B2884201D200F03AFDD7487844F5
:1028300002F028FDD44909596A4656600D941DAC32
:1028400014608A1C083020212B4602F0CDFE0D9822
:10285000CD4908588019811F082220460D9CFFF79A
:10286000AEFCC94A002801D000F01AFD1059B12170
:102870008900525C002A10D03A22825C3223C25472
:10288000C14803460059401D1851DA5D0D3ADA552A
:10289000595C01220C92002943D1811C1DAC2046B9
:1028A0002A4601F0D6FDB84920780D9A322801D089
:1028B00000F0F6FC16468C580F98885024200D46E0
:1028C000FFF7C6FE08996018A851E85D401AE85560
:1028D00015A808221099FFF75EFD00200146024668
:1028E000119E735CA84C6418257F5219D318237766
:1028F0000122FF2B00D80246491E0C460834F0D1B5
:1029000001200C90FF2BA04A00D888E000F0C8FC02
:10291000B1208000185C00210C91002801D100F04A
:10292000BFFC01252846FFF793FE974B1859421C20
:102930001A51D85D401ED855C0B2232801D800F0E6
:10294000AFFC9348185C002826D06D2086009D556A
:102950002420FFF77DFE8C4A002090551159243128
:102960001151D05D2438D055C0B2072801D800F0ED
:1029700097FCAF20800010180822039201F069FD37
:102980000398FFF765FE804A955542E03720C00066
:10299000201802F009FE80E30021684601604160D2
:1029A0003720C0001818242326461C4602F0DCFD00
:1029B0002046FFF74DFE744A915924310D969151EE
:1029C000D05D2438D055C0B2072801D800F068FC8B
:1029D00015A80822FFF7DFFC002001460246119CE3
:1029E000635C694C6618347F1219D3183377FF2B58
:1029F0002A4600D80246491E0C460834119CEFD1E5
:102A0000FF2B0D9C01D900F04BFC0820FFF720FEA6
:102A10005D4A105908301051D05D0838D055B120AA
:102A20008000105C002803D16D208000012111542A
:102A3000149E0C9CFFF736FE534B1861B1218900A0
:102A4000595C2143139A002A07D1002805D0022E91
:102A500003D1080601D100F023FC02201875592586
:102A6000EF00D85D002801D100F00CFC19690129A4
:102A700020D10B97B320860098590078AE380021FA
:102A80000A1A42411C460123129F7B401A4202D17E
:102A9000091A4141E1770120FFF7DAFDA059401CF6
:102AA000A0510B9FE05D401EE0552169491E216148
:102AB000149E2346002917D04D1EC0B2854200D374
:102AC0000546002D00D1DDE3E8B2FFF7C1FD2E4B36
:102AD000B3208000195849191950D85D401BD855AA
:102AE0001869401B18610CE1022E1FD1B121890029
:102AF000595C002916D02649595C002916D00021BE
:102B0000684601604160AF2080001A1818464830BE
:102B1000082302F029FD1C4BE800185C06E0C046C3
:102B2000087200006D21890003225A54C0B20328A4
:102B300000D8B5E3B1208000185C00280FD01448FD
:102B4000185C00280BD1B32080001A580021684679
:102B50000160416018464830042302F005FD04205E
:102B6000FFF776FD084BB32080001958091D195056
:102B7000D85D001FD855012018759868401E9860D0
:102B8000D868401CD860BCE0781800204E71000066
:102B9000C6020000B448195CB127B800185C0028D0
:102BA0007AD0002978D1B1481C5C20256846456060
:102BB0001DAA02603720C0001818012100230790C9
:102BC00002F0D2FC002C2DD06846456015AA0260A8
:102BD000A74D284648300121002349E0052800D0B0
:102BE0008FE05920C400185D002800D14AE31D6918
:102BF000002D12D0854200D30546002D00D141E3BF
:102C0000E8B2FFF725FD9A4BB32080001958491907
:102C10001950185D401B185562E70420ACE70820E6
:102C200018756EE0079C204602F0BEFC68464560C1
:102C30001DAA02600121059120462B4602F094FC5A
:102C40006846456015AC04600A97894F48370023F1
:102C500038460599224602F087FC384602F0A4FC6B
:102C6000684630C038460A9F059922462B46804D5B
:102C700002F07AFC1DA920240798224601F0E9FB06
:102C80003B20C000281815A9224601F0E2FB764837
:102C9000295CB800285C2B46002815D0002913D0E9
:102CA0007248185C00280CD1002168460160416020
:102CB0003F20C0001A1818464830202302F054FC68
:102CC0006B4B0A2018751CE0092119756749595C7E
:102CD00000290FD010206946664A7A440A6048608D
:102CE00018464830012109020022134602F068FC10
:102CF0005F4B06E0002804D01846483002F054FC30
:102D00005B4B197D00E01975C8B2042807DC022866
:102D100076DD03282CD00428F3D1986839E0062802
:102D200000DDA9E200D059E75920C400185D002851
:102D300000D1A7E2032800D8B2E20420FFF788FC04
:102D4000B32080004A4B1958091D1950185D001F07
:102D5000185508210006D6D06D2084000020185593
:102D6000FFF7A0FC424B0121195518610721CAE762
:102D7000022E00D10EE75920C000185C002800D1B7
:102D800080E2FFF78FFC3A4B00219860D960042164
:102D9000197506210028B6D05920C400185D0028F6
:102DA00000D16FE2072800D87AE2012E12D1B520B7
:102DB00080001858D96881420CD1B320800019587E
:102DC00018461530082201F044FB2D200001012196
:102DD000274A11540820FFF73BFCB3208000244908
:102DE00009580831224A11502148005D083820490D
:102DF0000855FFF757FC1E4B186105201875F0E6C3
:102E0000002807D0012803D0022800D127E678E760
:102E10009868BEE100279F60DF601F61184615308B
:102E20000822394601F02BFB114C1048205C002889
:102E300013D00D48205C00283FD01DA80E497944CE
:102E400010252A4601F005FB0C4800682421415C4E
:102E5000162917D10E980A4920E02046483002F082
:102E6000A3FB034C29E0C046C60200007A04000020
:102E7000781800208759000033580000081D0020F2
:102E80000D540B93F849F94A895C0229F84904D199
:102E9000006A0028F74900D001460E98FFF7C2F9F2
:102EA000684645601DA90160EF4C2046483001216D
:102EB00009020022134602F083FB2920C0002518D6
:102EC000284602F071FBFE4CB1208000205C0028F7
:102ED00000D1E3E06D2080002754FB48265CF948D0
:102EE000205C002800D197E06846076047605720C3
:102EF000C0002218483404232046394602F034FB2F
:102F00006846002E00D1A6E007604760F048EC4E0E
:102F1000321804232046394602F026FB6846076033
:102F200047603720C00032182025204639462B46FE
:102F300002F01AFB6846076047603B20C000321869
:102F4000204639462B4602F00FFB68460760476073
:102F50003F20C0003218204639462B4602F004FBC1
:102F6000684607604760E04A7A44204639462B4667
:102F700002F0FAFAD448305C0228314615D168468E
:102F800007604760D94E7E442025204639463246A8
:102F90002B4602F0E9FA684607604760204639464A
:102FA00032462B4602F0E0FAC549684607604760A2
:102FB000C8480A180425204639462B4602F0D4FAA0
:102FC0006846076047600920C001BD490A182046CD
:102FD00039462B4602F0C8FAB949BB48085C0228BA
:102FE00010D11DAE0825304639462A4601F047FA71
:102FF0006846076047602046394632462B4602F055
:10300000B3FAAF496846076047609120C0000A18CC
:103010000423204639463EE0002E00D1B6E41026B7
:103020006846AF49794442C03720C00020180121CA
:103030000D02002429462246234602F0C1FA6846C2
:10304000A849794442C09E48483029462246234632
:1030500002F0B6FA21E0076047603720C000984EC2
:1030600032180492202620463946334602F07CFA74
:103070006846076047603B20C00091490A18204617
:103080003946334602F070FA6846076047606023AD
:1030900028463946049A02F067FA894C592006906E
:1030A000C700E05D032800D8FAE0B320850061592D
:1030B0005720C0000990261804243046224601F00B
:1030C000C8F92046FFF7C4FA7D4A5059001D5051F7
:1030D000D05D001FD0557C49515C002915D0C0B28D
:1030E000032800D8DCE051597948101804242246FE
:1030F00001F0AFF92046FFF7ABFA714A5059001DB5
:103100005051D05D001FD0551FE070480068242149
:10311000405C162819D8012181406F48014214D023
:10312000002130460A46FFF759F8654A00280CDAB4
:10313000002130460A46FFF751F8614A6749884244
:1031400003DB0698C000105CC9E7604801682820CE
:10315000095C8907149E16D5105C022805D0042846
:1031600011D10998105C01280DD8D05D032800D832
:1031700096E014460420FFF76BFA6059001D605179
:10318000E05D001FE055FFF78DFA4D4B986001217F
:10319000197500281BD05920C700D85D002871D0B0
:1031A0000124022E16D0012E00D043E4232877D923
:1031B0002420FFF74DFAB320800041490A46095800
:1031C00024311150D05D2438D055012432E403203D
:1031D000187596E5012863D9B3218C0019590A782E
:1031E000022A01D1FFF794FB012A01D1FFF70FFB5F
:1031F000002A55D1B1208000185C002850D1254606
:103200003B4C7C44204602F03DF88088FFF7DFF914
:1032100020462C4602F036F829498088C0B204289E
:1032200006D0022804D001283AD11398002837D0BC
:103230000859401C0851C85D401EC855C0B223281B
:103240002ED925460C462420FFF702FA6059243077
:103250006051E05D2438E0550120A07700200C90FB
:103260002246FFF7DCFBC046781800207A040000F5
:10327000191BA85BBB09B87601460839032901D39D
:10328000FFF7A0FA02F0BEFA2BA9884202D13598C6
:1032900002F0C4FA2BA8808D00280FD137B0F0BD02
:1032A000012001F009F92BA800258585359802F049
:1032B000B5FA03480575204601F0FEF801F0FCF868
:1032C00078180020C60200007A040000081D0020C3
:1032D0007C040000840400008001400003000080A2
:1032E0001D5600000F56000019570000FB56000045
:1032F0007A670000F0B581B00346CA06D017009087
:10330000174A02400C07E617164C34405D01654031
:1033100055408A06D417144A22406A404D06ED17DC
:103320001248284050400A06D717114A3A404240F6
:1033300098203040DB0E4901C918C9B241407920BC
:10334000009B18404840F32121404140AE202840D6
:1033500048401E2139404140104601B0F0BDC046F2
:10336000E2996DB7618EBCF2C4B35F3EA8E2AB2EAA
:1033700070E4434FF0B581B015460E460746047819
:10338000012000210090FFF7B5FF002C12D07F1C18
:103390001F22224042403C781046FFF7ABFF7F1CC3
:1033A000002CF5D106E0FFF7A5FF0246307850402B
:1033B0006D1E761C002DF6D10824FFF79BFF641EBE
:1033C000FBD1009A504001B0F0BD0000F0B581B0D3
:1033D00014460A4601460B487844FFF7CBFF0546E2
:1033E0000E462327284631463A4604F00BFF1F219C
:1033F00001402170781F641C002F0746F2D101B0F4
:10340000F0BDC0462C530000F0B599B01D460346F0
:10341000002017901690107014296FD11E9900206B
:10342000002904D0012969D10192082000E001920D
:103430000CAF3870781C1422194601F00AF81521D7
:103440000026324630463B780002C0181346083347
:103450007F1C491E0224E443A2420EDB0D321346B8
:103460000A3B0446DC401F23234002ACA355521FF5
:10347000761C092AF3DC521F00E01A460029E2D12B
:10348000002A019F07D00521891A88401F21014089
:1034900002A88155761C02A816AA3146FFF796FFAE
:1034A0000020002E394611D002A801780023144ACA
:1034B0007A44202920D2581CAB421DD202ACE45CD5
:1034C000145DFC54B0420346F3D3391816AA13789E
:1034D00000220C4E7E44202B0ED28418641CAC4279
:1034E0000AD816ACA45C345D8C54521C082AF2D362
:1034F00000238B54801801E00020387019B0F0BD13
:10350000605200003C52000080B509480021017063
:103510000848016008480078002801D104F05CFCEC
:10352000064979440020024603F0CEFF80BDC04624
:103530008C1D0020901E0020901D00203A57000096
:1035400080B582B001900648784401F09BFE293096
:1035500001A9012201F0ECFFFFF7D6FF02B080BD08
:103560003464000001460020022903D88800024983
:10357000794408587047C0464856000080B5012875
:1035800005D0002807D10020FFF7DAFF80BD012019
:10359000FFF7D6FF80BD002003497944034A7A44EF
:1035A00004F014FC80BDC04613000000270000009A
:1035B00001460020012903D88800024979440858AF
:1035C0007047C0460856000080B5002802D0FFF7BB
:1035D0009BFF80BD0648784401F054FE2921435CDE
:1035E000002004497944044A7A4404F0D1FB80BDA8
:1035F000A66300007DFFFFFF91FFFFFF80B5002065
:1036000003497944034A7A4404F0E0FB80BDC04694
:10361000ABFFFFFFBFFFFFFF80B5FF2002F0BEF84A
:1036200080BD80B50120FEF793FAFFF76DFF80BDE6
:1036300080B50020FEF78CFAFFF766FF80BD80B5ED
:103640000120FDF75FFB002800D080BDFFF75CFF85
:1036500080BD80B50020FDF755FB002800D080BD5F
:10366000FFF752FF80BD80B50120FDF74BFB00281E
:1036700000D080BDFFF748FF80BD80B50020FDF77A
:1036800041FB002800D080BDFFF73EFF80BD80B524
:103690000020FDF7E3F8FFF737FF80BD80B501207C
:1036A000FDF7DCF8FFF730FF80BD80B50020FDF7A7
:1036B000D5F8FFF729FF80BD80B50120FDF7CEF8D2
:1036C000FFF722FF80BD80B50020FDF7C7F8FFF7A8
:1036D0001BFF80BD80B50120FDF7C0F8FFF714FF88
:1036E00080BD80B50020FDF7B9F8FFF70DFF80BD64
:1036F00080B50020FDF7B2F8FFF706FF80BD80B56A
:103700000120FDF7ABF8FFF7FFFE80BD80B500207C
:10371000FDF7A4F8FFF7F8FE80BD80B50120FDF7A6
:103720009DF8FFF7F1FE80BD80B50178490601D014
:1037300001F06AF880BD0000B0B5054607202840BA
:103740000024012814D0022814D1002909D00B48E4
:1037500002F030F868B200280ADA01F0DFFE002437
:1037600006E0FF2152310548002202F03BF80446F2
:103770002046B0BD022000F09FFEC0465820002029
:10378000F0B581B0D84D28780C2810DD0D286CD00C
:103790000E2800D1B8E015280FD1D448807901282F
:1037A0000BD1A879000708D4102000F085FE052869
:1037B00000D101E10C2800D17EE2F94C00276760BE
:1037C00001202070204601F0B7FF042002F032F8FB
:1037D0006060692800D04DE100F0BCFF00F0BCFF44
:1037E000BE25F04E7753042002F024F86060C02418
:1037F0003159002900D15FE2002800D15CE297280E
:1038000000D159E2705BAA27C421715C80B2884262
:1038100000D351E201F0DAFF002800D04CE201F0C1
:1038200055FFB84204D101F07BFFB84200D043E21B
:103830003059715B49014018CC217158002902D0E0
:10384000884700280AD0012803D13059715B49010B
:1038500040180178490601D000F0D6FF705B401C8B
:10386000705331590029CFD126E2CD4C0027676033
:1038700001202070204601F05FFF042001F0DAFFF4
:103880006060002800D117E2692800D18CE19728F8
:1038900000D111E2C025C34C6059002800D103E2D9
:1038A000BE26A05BAA27C421615C80B2884200D3F7
:1038B000FAE101F08BFF002800D0F5E101F006FFEE
:1038C000B84204D101F02CFFB84200D0ECE16059BD
:1038D000A15B49014018CC216158002902D08847DA
:1038E00000280AD0012803D16059A15B4901401882
:1038F0000178490601D000F087FFA05B401CA0536F
:1039000061590029CFD1CFE1A54D00276F6001207B
:103910002870284601F010FF042001F08BFF68603A
:10392000692800D0E4E000F015FF00F015FFBE2488
:103930009C4E3753042001F07DFF6860C02571590B
:10394000002900D1B8E1002800D1B5E1972800D1C5
:10395000B2E1305BAA27C421715C80B2884200D3F7
:10396000AAE101F033FF002800D0A5E101F0AEFE8E
:10397000B84204D101F0D4FEB84200D09CE17059A5
:10398000315B49014018CC217158002902D0884789
:1039900000280AD0012803D17059315B4901401831
:1039A0000178490601D000F02FFF305B401C3053F6
:1039B00071590029CFD17FE1F44C002767600120C5
:1039C0002070204601F0B8FE042001F033FF606053
:1039D000002800D170E1972800D16DE1692800D05E
:1039E00025E100F0B7FE00F0B7FEBE25E84E7753A4
:1039F000042001F01FFF6060C0243159002900D16C
:103A00005AE1002800D157E1972800D154E1705BBA
:103A1000AA27C421715C80B2884200D34CE101F036
:103A2000D5FE002800D047E101F050FEB84204D195
:103A300001F076FEB84200D03EE13059715B490199
:103A40004018CC217158002902D0884700280AD09C
:103A5000012803D13059715B4901401801784906AA
:103A600001D000F0D1FE705B401C70533159002929
:103A7000CFD121E1C025C64C6059002800D113E107
:103A8000BE26A05BAA27C421615C80B2884200D315
:103A90000AE101F09BFE002800D005E101F016FECE
:103AA000B84204D101F03CFEB84200D0FCE06059BD
:103AB000A15B49014018CC216158002902D08847F8
:103AC00000280AD0012803D16059A15B49014018A0
:103AD0000178490601D000F097FEA05B401CA0537E
:103AE00061590029CFD1DFE0941E0020AC210020D5
:103AF0000446D820A64E3158002911D064226429EA
:103B00000B4600D31346C91A315009D1D42171583C
:103B1000002900D1D9E0DC22B25832500020884779
:103B2000002C00D1C8E0972C00D1C5E0C02430594A
:103B300000282FD0BE25705BAA27C421715C80B2FB
:103B4000884227D201F042FE002823D101F0BEFDB9
:103B5000B84203D101F0E4FDB8421BD13059715B8A
:103B600049014018CC217158002902D0884700280B
:103B70000AD0012803D13059715B490140180178FE
:103B8000490601D000F040FE705B401C7053315973
:103B90000029D2D1C420305CBE21715A88E0C046D1
:103BA000C01F0020901D002000F0D4FD00F0D4FDC7
:103BB000BE25774E7753042001F03CFE6060C024A0
:103BC0003159002978D0002876D0972874D0705BBE
:103BD000AA27C421715C80B288426DD201F0F6FD43
:103BE000002869D101F072FDB84203D101F098FDBF
:103BF000B84261D13059715B49014018CC217158EC
:103C0000002902D0884700280AD0012803D1305962
:103C1000715B490140180178490601D000F0F4FDBC
:103C2000705B401C705331590029D2D144E0D02040
:103C3000574C2058002803D0E978490800F028FEA6
:103C4000C025605900282FD0BE26A05BAA27C4211A
:103C5000615C80B2884227D201F0B8FD002823D1F0
:103C600001F034FDB84203D101F05AFDB8421BD136
:103C70006059A15B49014018CC216158002902D04C
:103C8000884700280AD0012803D16059A15B490167
:103C900040180178490601D000F0B6FDA05B401C39
:103CA000A05361590029D2D1C420205CBE21615AA1
:103CB000814201D301F08AFD01F088FD002801D185
:103CC00000F000FC012001B0F0BD3248016800297D
:103CD00000D125E7002CEFD0972CEDD02E480078AE
:103CE000002806D12D480068401C04F09BF92B48A1
:103CF000016000F02FFD00F02FFDBE200090375234
:103D0000042001F097FD6860C0257159002900D199
:103D100006E7002800D103E7972800D100E70098C4
:103D2000305AAA27C421715C80B2884200D3F7E6DA
:103D300001F04CFD002800D0F2E601F0C7FCB842CB
:103D400004D101F0EDFCB84200D0E9E670590099C9
:103D5000715A49014018CC217158002902D0884776
:103D600000280BD0012804D170590099715A4901DB
:103D700040180178490601D000F046FD0099705ABC
:103D8000401C705271590029CCD1C9E6C01F0020D7
:103D9000901D0020901E00208C1D0020881D0020FA
:103DA00070B582B0234DA87F00280BD0224C20464E
:103DB000553024497944072200F04BFB5C20002158
:103DC000215432E01D482A18294615316846FEF76D
:103DD0001EFC00280FD01A4800682421405C0828E7
:103DE00026D1154C2046553017497944062200F05B
:103DF00030FB5B3417E03C26AA5D0F4C5534294656
:103E00003631204600F025FBA85D202121542018E2
:103E1000401C1721490168506846FDF73DFFA95D28
:103E200040182018441C00202070012002B070BDF2
:103E30000020FBE7781800200C1D00207104000012
:103E4000081D00209E4D0000704D0000F0B5A7B089
:103E5000F24900200A900870F148F24C211825A878
:103E60000822FEF798FAF04826183046FEF756F971
:103E700005463046FEF7F7F8002804D0E748F24937
:103E80007944062208E03046FEF76AF9002822D07D
:103E9000E248EE4979440A2204F0C6F901210027DC
:103EA000DE480078002864D1002D26D0DF48006865
:103EB0008069002854D0651801F0E4F901467320A8
:103EC000C000285C6A461060D5482B1811A8002253
:103ED00001F096FA44E0D54800682427C05D112817
:103EE00000D0AFE0C0213046FEF740F9002800D1F5
:103EF0008AE0CA48D6497944CDE7380A04D00BAAEB
:103F000057701070022502E00BA807700125C44A03
:103F10000BA84619601881181422304600F099FA4F
:103F2000C748205C00280DD0E08C381A0A99091A7D
:103F3000414168460160142111AA50233046FFF721
:103F400063FA0DE0012069460F60486014350BA844
:103F500011AE502329463246FEF7C2F900213154F2
:103F600011A94122AD4D284604F0C0FA402000219D
:103F70002954B448205C142813D1E920800020186B
:103F8000BA497944042200F083FA002809D1752047
:103F9000C0002018B6497944042200F079FA0028BC
:103FA0001ED03C26A25D9D4F3D464135214636310F
:103FB000284600F04EFAA05D202129542818401C04
:103FC00017214901605025A8FDF766FEA15D401844
:103FD000401C381841210A9A4254012027B0F0BDF4
:103FE000EB208000201801210022FEF7F7F81F289F
:103FF00035D003460328894F384636D04130012B4F
:104000003AD19C49794433E088480068C05D112862
:1040100018D1C0213046FEF7CDF8002812D0002775
:104020007E480146C7714C20887148714120087153
:104030004320C8705F208870502048704F2008705F
:1040400001212DE70B21002D0A9F00D028E73046E3
:10405000FDF7A4FF002825D0278C0C2120E76F4F07
:10406000384641308449794402E0413083497944FB
:10407000062204F0D9F804E01421814A7A4400F0C1
:1040800033FF3D464135284604F0C8F9C6B2A819A9
:104090001721490160503B2000012018FDF7FCFD6D
:1040A000301896E73046FDF7C7FF002856D0278C1A
:1040B0000BAA099217705E482118501C0890142210
:1040C00000F0C7F90121079168460760416015219A
:1040D000069111AE5023059309983246FEF700F978
:1040E0000021049131545B4979440E224B4804F07D
:1040F0009BF8082203924948314604F0C3F9474827
:1041000004F08CF945490818534979440F2204F00A
:104110008BF809980770474821182022089800F06A
:1041200098F96846076007994160099806993246F0
:10413000059BFEF7D5F80499315438483146039A67
:1041400004F0A0F93548064604F068F930184349F0
:104150007944032204F068F82821A1E63046FDF7EF
:104160008BFF002857D0278C0BAA09921770324872
:104170002118501C07901422089200F06AF90121BE
:1041800006916846076041601521059111AE5023E4
:10419000049309983246FEF7A3F8002103913154A5
:1041A0002F49794411221D4804F03EF8082202925A
:1041B0001A48314604F066F9184804F02FF91749F7
:1041C0000818284979440F2204F02EF8099807703E
:1041D0001A4821180798089A00F03BF968460760CA
:1041E00006994160099805993246049BFEF778F8D4
:1041F0000399315409483146029A04F043F90748BB
:10420000064604F00BF9301817497944032204F0EC
:104210000BF83E2144E6E78C0B2141E60C1D002003
:104220009903000078180020A1030000081D002059
:10423000A7030000C1030000BD030000D703000076
:10424000C5020000A3030000E14C00007C53000005
:1042500026530000405100002E510000174A000074
:10426000A6500000745000005D490000E84B0000BB
:10427000C65200006B4B00000F4B00000D4B0000BE
:10428000054B000070B58CB020206946486004AE34
:104290000E602920C0000C4908180C4D2A464132F6
:1042A00001240023214601F05FF9684608230660D7
:1042B0001836436086604121054A7A44284600F05A
:1042C00013FE20460CB070BD781800200C1D002095
:1042D000DB48000080B5FFF7B9FD0B480B490858D3
:1042E0008D22D2008958491C0B1A094855301421D7
:1042F000084A7A4400F0F8FD074979440020024654
:1043000003F0E2F8012080BD64040000781800206A
:104310000C1D0020AF480000D64A000080B5FFF712
:104320003FFD01460020002906D0044979440020C1
:10433000024603F0C9F8012080BDC046544B00007E
:1043400080B5FFF79FFF034979440020024603F040
:10435000BBF880BDC8490000B0B505460F4CC83455
:10436000204604F05BF820212154201800244470DA
:104370000B497A222846FEF793F828462146FEF795
:104380004BF8002802D00849794401E005497944F6
:104390002046224603F098F8B0BDC04658200020C1
:1043A0000C1D0020264C0000084C000080B503497D
:1043B00079440020024603F087F880BD784C000065
:1043C00080B5034979440020024603F07DF880BDA2
:1043D000D44C000080B505497A22FEF761F8044903
:1043E00079440020024603F06FF880BD0C1D0020C8
:1043F0005C4D000080B5034979440020024603F07B
:1044000063F880BD004E000010B58CB06C462046AD
:1044100003F0EAFFA085000406D1684601F0FEF92A
:104420000A90FF2001F0BAF901F0ECF969468842E0
:1044300002D10A9801F0F2F96846808D002801D176
:104440000CB010BD00F038F880B5002001F0E6F99E
:1044500080BDB0B5884208D9002A0FD0491E401E41
:104460008B5C8354521EFBD108E0002A06D0002347
:104470009CB20D5D05555B1C521EF9D1B0BD80B5D7
:10448000002A04D00B4611461A4603F0D5FE80BD23
:1044900070B5401E491E541E0023002A0AD08D5CB0
:1044A000865CAE422246F6D00020C0430123AE42D5
:1044B00000D80346D8B270BD044601F0A3F92146E6
:1044C00003F09EFF80B501F081F9002800D080BD87
:1044D0000648002141706022027002228270C17081
:1044E0000171052101F066F980BDC046941E0020CF
:1044F000B0B51A48C078032807DC01280DD002287F
:1045000028D1174802F057F9B0BD04281FD0082859
:1045100020D1134802F04DF9B0BD114C01212046C5
:1045200002F042F9204602F020F90E4CA079002852
:1045300011D120460C30002506222946FFF79FFFA7
:1045400012340C2220462946FFF799FFB0BD0448DB
:1045500002F02DF9B0BD1020FFF7AEFF941E002031
:1045600074220020AC2100207F2101400020052979
:1045700002D802484018007B7047C046AC2100209A
:1045800080B515480179042917D0022906D00129E0
:1045900020D1811D124801F0EEFF80BDC2787F213D
:1045A0001140052916D84A000C4B9A180023538253
:1045B000821D0B4802F065F880BDC2787F21114052
:1045C000052907D8054A521843791373821D0448F8
:1045D00001F0FFFF80BDC046941E0020AC210020EA
:1045E0007422002070B5FF2A1ED815460E460446D8
:1045F0000E4850210170202101714271D11C81703F
:1046000080222243C270090A4170062101F0D2F8CB
:104610003046294601F0CEF87F2020404000044972
:1046200008187D210901418270BDC046941E0020FA
:10463000AC21002080B50A46014682201423FFF7F2
:10464000D1FF80BD80B50A46014683201423FFF7C1
:10465000C9FF80BD80B50C480178002900D080BD1D
:10466000062181710A21017008498A784B781B0262
:104670009A18FF232A339A4200D31A464280C91C53
:104680000348FFF7E6FE80BDAC210020941E002009
:104690005820002010B52048817842781202511825
:1046A00000780F280ADC0E2810D00F2822D1002015
:1046B000012926D1FFF71CFF012010BD10281DD0B5
:1046C000162817D1FFF7C6FF012010BD13488168D7
:1046D000643181601C21425A002A08D06423642A74
:1046E000144600D31C46121B425212040ED0891EDF
:1046F0001029F0D10220FFF743F810BD0020032954
:1047000000D210BDFFF73CFF012010BD0021017059
:104710001020FFF7D1FEC046941E0020AC210020DF
:10472000B0B50A2000F0EEFE084C002520222046FD
:104730002946FFF7A4FE65802570A571A56000F0ED
:104740004FFB034805604560B0BDC046AC2100206A
:10475000CC21002070470000024800210160416028
:104760007047C046CC210020F0B589B00546084608
:1047700000F088FD002843D00446006900283FD09F
:10478000284600F07FFD014602AD1C22284601921A
:10479000FFF75FFE2168E98062682A81A068194FEF
:1047A00065233B7089B292B24A4342435307D10812
:1047B0004A1C002B00D10A46009204268640B018FD
:1047C0001D30B870000A78700321384600F0F2FFFF
:1047D0002846019900F0EEFFA068387001213846A4
:1047E00000F0E8FFE06800F04DFDB1B200F0E2FF3C
:1047F000009885B2206900F045FD294600F0DAFFF7
:1048000009B0F0BD941E002070B500F03BFD0446D9
:1048100000787F26064000F0D9FF002830D1002E16
:104820002ED0E06900281DD000F02CFD0546052E95
:1048300002D1A07E002824D0284603F0EFFD0646D2
:1048400012486521017031461C318170090A41709E
:10485000032100F0AFFF1C21204600F0ABFFB1B2F6
:1048600028460BE0094800214170652101701C2594
:104870008570032100F09EFF2046294600F09AFF34
:1048800070BD20462946FFF76FFF70BD941E0020C3
:1048900070B5002829D004461448066845688E4241
:1048A00001D16D1C45600E43002902D006603246DE
:1048B00005E00022026042600D4B5B1C1E438A42F1
:1048C00001D000214160082D0CD30321284603F0BC
:1048D000A9FB012290073043002900D03046D107C0
:1048E000884300E030462946A04770BDCC21002017
:1048F000FFFFFF7FF0B581B00F4E01243470B11C73
:10490000FF2750377A1C204600F03AFF05467070AA
:104910003A1A3718F91C022000F032FFB8702D182F
:104920007619F47000F020FF307190207071002033
:10493000B071E81D01B0F0BD58200020F0B58BB07B
:104940000B460146400708D006910698C0B299B2BE
:10495000FEF7F2FE80B20BB0F0BD4B208400802049
:104960000590A94EA74F069110200D4605409AB21A
:10497000002A00D1B9E0002D00D0B6E004920193E6
:1049800002900395079107E000223846214600F087
:1049900029FF012000F04AF900F018FF0028F3D1A8
:1049A0007D200001B1680D183078092843DC072804
:1049B00004994BD0092864D100219448009101F05A
:1049C000EDFB10E0FFF77EFD00223846214600F0A7
:1049D00009FFB068A84200D308E1FFF75BFE00F0D2
:1049E000F5FE0028F0D1894801F030F90028E9D01F
:1049F000049AD01D4008A92800D3FDE00598103086
:104A0000834988548818009A4270481D019A921C64
:104A100092B2FFF71EFD05227D480099FFF72FFD9A
:104A20000598C01CC1B20198C01D83B27748784A6E
:104A300001F0C8FB40E00A28019A04990BD00B282A
:104A400022D17648784400F035FA35E0724878444F
:104A500000F030FA30E020462530814200D9CBE02A
:104A60000D4653203870BA70100A7870032138460A
:104A700000F0A0FE6648294600F09CFE0020307041
:104A80001DE0002800D1B4E00698C0B2FEF754FE45
:104A9000002811D0ADE0FFF715FD00223846214671
:104AA00000F0A0FEB068A84200D39FE0FFF7F2FD3F
:104AB00000F08CFE0028F0D130780028EBD10020E7
:104AC000B071307070800799890600D542E7FFF712
:104AD000F9FC07990806039D029806D5089008AAD4
:104AE0004C4B1846114601DF0799002D04D14806AA
:104AF00077D40020B07130700020708000F066FE26
:104B0000002801D1FFF7DEFC0025384621462A4661
:104B100000F068FE022806D8B9787A781202511897
:104B2000C91C81423ED1FFF7B5FD7088317800295C
:104B3000E4D00028E2D03A49794404223448FFF70F
:104B4000A7FC002830D03749794404223048FFF7C9
:104B50009FFC00282DD03449794404222C48FFF7CB
:104B600097FC002840D105982A30C0B2079000F089
:104B7000D7FD0799884227D10120254D2870A81C10
:104B8000402100F0BFFD6870811C1D4A1346114092
:104B9000059A10326A54C11C194000226A54031D40
:104BA000154618E00020A6E7FFF7A4FE03460025FF
:104BB00011E0002016490A46487005990846103051
:104BC0001070069D0D4305E0692011490870059895
:104BD000401D48700223E9B20695680700D1C3E67C
:104BE000B3E67088401FB5E67088B3E61020FFF783
:104BF00063FC0920FFF760FC0220FFF75DFCC04664
:104C0000FFFF0000941E0020AC210020D4210020D2
:104C100058200020BE9A0060E3FBFFFFFDFBFFFF72
:104C2000584700004D4700004247000070B5044659
:104C300000F0CCFD002801D1FFF744FC4B2081009F
:104C40000B4E002530462A4600F0CCFD3078152862
:104C500006D8012181400748014201D0002C05D12E
:104C6000FFF718FD0125002800D10546284670BD34
:104C7000941E00202070200010B5FFF723FC084C84
:104C80004B2081000022204600F0ACFD20780E2849
:104C900001D0FFF7FFFC00F099FD0028F0D110BD16
:104CA000941E0020F0B581B000920446454EB142FA
:104CB00010D00F46434D0021402628463246FFF7CC
:104CC000DEFB009A402A00D3324628463946FFF7D9
:104CD000C0FB3C4EB07801280ADC002825D0012812
:104CE00060D1F01C042100F031FC4021304628E066
:104CF000022824D0052855D13079F1780902081806
:104D0000314C21680027884252D1206800281BD0EE
:104D10000098401F85B22D480168A94201D2006861
:104D200085B22B480068711D2EE0F01C002704227C
:104D30003946FFF7A4FB40213046A04738E0214820
:104D40004021A047002733E0B079717909020918A2
:104D50002048016001684908A82929D801681B4832
:104D6000016071783278120251181B4A116018499B
:104D70001A4A0A600099C91F8DB20168A94201D27E
:104D8000006885B2F11D15482A46FFF762FB0F48FF
:104D90000168491B01600E480168491901602068DB
:104DA000401C20600948016801200227002907D122
:104DB000054800210160064801600448016038464A
:104DC00001B0F0BD182200205822002060220020EF
:104DD000642200205C22002068220020582000204D
:104DE00003480021016003480160034801607047E7
:104DF000582200206422002060220020F0B581B0FB
:104E0000264F3A68264C2168002921D0002A1FD05D
:104E10000090264D002140222846FFF730FB052058
:104E2000A87023480168090A2970006868701D4944
:104E30000868000AE8700868287109682068002975
:104E40000ED03B263B2800D826683968681D12E042
:104E500014480021016039601348017021601BE093
:104E60003926392800D826682068000A6871206829
:104E7000A8713968E81D3246FFF7EBFA009A094934
:104E80002068801B20603868801938600868401CE2
:104E9000086006484021904701B0F0BD6422002020
:104EA0006022002058220020AC210020182200207F
:104EB0006822002080B500290BD0064A0023136029
:104EC000054A1160054A064B1360064A1160FFF758
:104ED00095FF80BD5822002060220020642200201F
:104EE000582000205C22002081B0F0B58EB01393D2
:104EF000022900D2B8E10746002800D1B4E11546E6
:104F0000002A00D1B0E10C46384603F087F913A817
:104F100009902978002900D1A6E1641E002602E04C
:104F2000A8194178761CC8B2002801D02528F7D1ED
:104F3000A64200D3264638462946324603F078F981
:104F4000A41BBF19002C00D18EE1A95DAD19252944
:104F500000D020E1069404976B1C002420200A2135
:104F6000089127460594079403E009990A1D0992C0
:104F70000F681D46224629786D1C00242D29F9D082
:104F8000472919DC2F29069C27DD0B46303B0A2BCD
:104F900000D303E13029044600D10C46079B002BC7
:104FA00000D004460A230798434358183038079026
:104FB0002B4620461446DCE76729069C04DD72294F
:104FC00021DD73293CD122E062293EDC48294CD105
:104FD000014601200590084617E0252958D02A29C6
:104FE00026D02E2900D0D9E029782A2900D039E10D
:104FF0006A786B1C01242A21482AB6D0682AB4D0CA
:10500000732AB2D019E0682937D110210891099983
:105010000B1D0993032313400968012B00D1BFE046
:10502000022B00D1BFE0032B2B461446A1D0C0E0D9
:105030002978022473292B4697D0049F069CAAE066
:10504000752927D078291BD0A8E0632900D197E0E3
:10505000642900D0A2E002900998011D099100681E
:10506000C11742184A40C00F1AE0582900D095E0F5
:10507000014601200590084602E0702900D08DE02D
:1050800002900998011D099102680020102708E08C
:10509000252079E002900998011D099102680020FD
:1050A0000A27012497420892039012D80126384615
:1050B0000446394602F030FFB04209D13846604319
:1050C0000799491E0791089988422646F0D900E0C1
:1050D00034460798411E039B002B00D10146002651
:1050E000F043002B00D1184601900298C2B2302A3A
:1050F00006D1002B04D00AA82D230370002301261B
:10510000881E0D280BD80AA88019491E039303F0A6
:1051100093F8039B0798801901994018461E059A39
:10512000002B03D00AA82D218155761C002C1AD003
:10513000002A02D05248784401E050487844079051
:105140000898214602F0E8FE394602F06BFF079806
:10515000405C0AA988552046394602F0DDFE761CDF
:10516000A7420446ECD9069CA64200D326460AA9CB
:10517000049F3846324603F05BF8A41BBF1907E0D2
:105180000998011D09910068049F3870641E7F1CF6
:10519000002C69D02978002966D0BFE6049FF9E782
:1051A0003E46049F0DE0087800283FD0049F069CEF
:1051B000F0E700228B5C521C002BFBD1561E049F93
:1051C000069C0898102827D1002EE3D008910020D3
:1051D00023460146089A125C0F2010401209022B48
:1051E00042D31C46059B002B04D0012B08D1224B37
:1051F0007B4401E01F4B7B44185C7870985C3870EE
:105200002046A41E02282FD00846481CBF1CB042CE
:105210002346DED3079018E0A64200D32646384640
:10522000324603F005F8A41BBF190CE0069CA74208
:1052300000D3274620220498394602F0FDFFE41BE4
:105240000498C0190746002C0ED00798B042A1D987
:10525000861BA64200D3264620223846314602F05D
:10526000EBFF8AE7049F96E700200EB0F0BC02BC7B
:1052700001B00847A9400000BF40000063410000A2
:105280007941000080B50449884204D3034988422B
:1052900001D200F005F880BD0000D0C0C099D0C098
:1052A0007A460249C91C891A401A7047A152D0C0D7
:1052B0004101C9170C4A0A408101C9170B4B0B4029
:1052C000C1018908594051400201D217084B1340CF
:1052D0004B40C100C917074A0A405A408000C11715
:1052E00005480840504070476D8E5026B2576A3BC3
:1052F000FA19A11EDD33423DB362142AF0B587B01E
:1053000005930492064602910C7800270120002C98
:1053100003971BD00298401C0690012000272546C9
:10532000019729464139EAB2202A5FD3C9B21A2926
:105330005CD3FFF7BDFF01460698C25DE020054043
:10534000680948407F1C002A1546EAD10599C91909
:10535000C91D5A2903994CD8FFF7AAFF002C0ED07B
:1053600002994D1CFFF7A4FF014634701F20204016
:105370004840691C761C2C78002C0D46F2D1312156
:105380003170711C06910599002914D000241A4E21
:105390007E44039404990F5D1F2F29D8F55DFFF714
:1053A00087FF06990D557840641C05998C42F1D30E
:1053B0000699091906910624FFF77AFF641EFBD1AE
:1053C0000121484019220D497944069B0446D440E6
:1053D0001F2525404C5D1C70541F5B1C002A224673
:1053E000F4D1002006998871012102E0019900E0C2
:1053F0000399084607B0F0BD803300004833000031
:10540000F0B595B0054600200390102A1FDC0C462D
:105410001A99002A03D08E1E262E04D917E01429CB
:1054200001D0202913D104AE327001206A4608272A
:1054300082C21060701C03A9052200F00AF80398CC
:10544000431C0393284621463246FFF757FF15B009
:10545000F0BDF0B586B003930F4605900024E343FA
:105460009340DD430D9800900C9801900B99002912
:10547000264627D05042049000263446019836181C
:1054800023468340039804781C43401C0390491E24
:105490000291964213DB3B6829465D1C3D600498EF
:1054A000851910463A462746EC400D4605992C4092
:1054B000CC543C4617460246361A8642EBDA02992D
:1054C0000029DBD1009800280DD0002E14D03B68B5
:1054D00039462F4625465C1C0C60911B8D403D4093
:1054E0000598C55408E0911B8C402C400021019880
:1054F000864202DA002C00D10121084606B0F0BD38
:1055000001DF704780B584B00190034801A9FFF71F
:10551000F7FF04B080BDC0463701006080B582B09F
:1055200002486946FFF7ECFF02B080BD3C02006014
:1055300080B586B0019002910392034801A9FFF75C
:10554000DFFF06B080BDC0467F03006080B584B039
:105550000090019103486946FFF7D2FF019804B01B
:1055600080BDC0462C05006080B588B000900191D8
:10557000029203930A9804900B9805900348694699
:10558000FFF7BEFF019808B080BDC0463B07006032
:1055900080B584B00190034801A9FFF7B1FF0298DC
:1055A00004B080BD7F08006080B584B001900348DE
:1055B00001A9FFF7A5FF029804B080BDDB0A0060D7
:1055C00080B588B000900191029203930A980490EC
:1055D0000B98059003486946FFF792FF019808B0C1
:1055E00080BDC0466614006080B588B0009001910F
:1055F000029203930A9804900B9805900348694619
:10560000FFF77EFF019808B080BDC0462B1A0060EE
:1056100080B586B0009001910292039303486946D9
:10562000FFF76EFF019806B080BDC046EA2E00600D
:1056300080B586B0009001910292039303486946B9
:10564000FFF75EFF019806B080BDC0462E2F0060B8
:1056500080B58AB000900191029203930C98049057
:105660000D9805900E9806900F980790034869468C
:10567000FFF746FF01980AB080BDC046F3380060CE
:1056800080B58AB001900291039204930C98059022
:105690000D9806900E980790034801A9FFF730FF78
:1056A00002980AB080BDC046F139006080B586B06E
:1056B000019002910392044801A9FFF721FF02988B
:1056C00080B206B080BDC0466E92006080B582B0E8
:1056D00003486946FFF714FF0198C0B202B080BDCD
:1056E0004F9F006080B588B00190029103920493AF
:1056F0000A980590024801A9FFF702FF08B080BD93
:10570000BA53006080B584B00090019103486946A7
:10571000FFF7F6FE019804B080BDC046FCA800600B
:1057200080B582B003486946FFF7EAFE0198C0B22F
:1057300002B080BD3CA0006080B584B001900348F9
:1057400001A9FFF7DDFE029804B080BD5864006037
:1057500080B584B00190034801A9FFF7D1FE04B0E1
:1057600080BDC0464569006080B582B00348694687
:10577000FFF7C6FE019802B080BDC0466E6A0060A9
:1057800080B586B0019002910392034801A9FFF70A
:10579000B7FE029806B080BDD474006080B584B0B6
:1057A0000190034801A9FFF7ABFE04B080BDC046DD
:1057B000BE9A006080B584B00090019102486946AD
:1057C000FFF79EFE04B080BD8183006080B582B08B
:1057D00003486946FFF794FE019802B080BDC046B9
:1057E000BB84006080B586B00190029103920448AA
:1057F00001A9FFF785FE029880B206B080BDC046C1
:10580000E485006080B582B003486946FFF778FE02
:10581000019802B080BDC046B187006080B584B0F9
:105820000190034801A9FFF76BFE029804B080BD08
:105830007588006080B584B00190044801A9FFF725
:105840005FFE0298C0B204B080BDC0468B9C006071
:10585000F0B583B0354A1278002A03D08321354A47
:105860007A440BE0089A452A03D88321324A7A44C5
:1058700004E0072907D18321304A7A44022300F04B
:10588000A1FC03B0F0BD00920190402002931E5C89
:10589000002E1AD0052E029D08D1284641302849F5
:1058A00079440522FEF7F4FD00282BD04135002471
:1058B000244F7F44E0B2032102F0B4FB285D795C01
:1058C00041402955641CA642F4D145200299085C48
:1058D0004630009A90420FD1413115483246FEF7CA
:1058E000B8FD0720114988714E80092008700121F8
:1058F000019800F053FCC4E78321134A7A44022341
:105900000198BCE70A4D03222A70681C0F497944AC
:10591000FEF79FFD281D0E4979440422FEF799FDEC
:105920002878431D832101982A46A8E7AC2100204E
:1059300058200020613A0000553A00004B3A000020
:10594000273A00001B3A0000DA390000BF39000096
:10595000B9390000F0B581B01D460E460446184620
:1059600000F010FC00280ED02068C11C090A6A460D
:105970009170811C090C5170411C090E1170001DA1
:105980002060D07004E0684604222946FEF761FDDD
:10599000174F082238463146FEF75BFD384608307F
:1059A00069460422FEF755FD002078730221397301
:1059B0000121B973F8733874284600F0E3FB0146FF
:1059C000201D8625002906D029467931C9B2042236
:1059D000FEF755FD03E069460422FEF73AFD044A4E
:1059E00011232046294600F0EDFB01B0F0BDC04672
:1059F00058200020F0B583B0029088794B791B02C3
:105A00001F18887801904B780E781546093DACB286
:105A1000A74204D0D01FD21F92B297421BD13D465D
:105A2000002E08D083211C4A7A440223029800F0F9
:105A3000C9FB03B0F0BD022B18DC012B23D0022BD5
:105A40001DD1A8B26A461060CB1D002202980199B0
:105A5000FFF7FEFEEDE7E4B2A742E1D0D2B29742F3
:105A60000546DDD083210D4A7A44DEE7032B0ED0B4
:105A7000C12B04D183210A4A7A440423D6E7832127
:105A80000A4A7A44D1E78321064A7A44CDE7832142
:105A9000054A7A440823C9E7BC3800005B38000097
:105AA00068380000353800004638000064380000CF
:105AB00080B5C1698A784B781B029B180A78812AC5
:105AC00009D0832A0DD0862A0FD1C91C031D0022BC
:105AD000FFF740FF80BDCA1C9BB2812100F072FB22
