:02000004C0D06A
:10000000B0B58CB062B600280AD0044601200002C8
:100010002168814202D0022005F084FC606803E080
:100020002548784405F018FA2149086004F0F6FAEA
:10003000204C01200102204608F0DAF96D462846DE
:1000400008F0BCFAA88585B2002D0BD068460021C7
:1000500081850A9805F0CCFC0A9805F0C9FC102DA2
:10006000E7D01FE06D46284605F0C2FC0A9004F078
:1000700041FC01F0AFFE002007F006F9012007F077
:1000800003F903F063F900F0B9F805F0A5FCA84204
:1000900002D10A9805F0ACFC6846808D0028C8D0D3
:1000A00004F0F4FA04F09AFA00200CB0B0BDC04697
:1000B000F81C0020801D0020B2930000F0B58DB028
:1000C0004548464C002727522D200001275401AEF9
:1000D000304608F073FA0546B08580B2002812D089
:1000E00010286ED001A887850B9805F081FC0220AE
:1000F000394960523C486F2101704570012120460A
:1001000002F01EFA16E001A805F072FC0B902088A0
:1001100002F01BFA207800281AD0314831492152C8
:100120006F21AA202C4D625B2F4B9954991848706F
:10013000901C605305F050FC01A9884202D10B9835
:1001400005F056FC01A8808D002842D10DB0F0BD0D
:1001500025494A780B780020244D7D44244E7E4466
:100160002F5CBB4202D1375CBA420BD0401C0E2838
:10017000F6D3C2B20E2A05D16D210802184AA05248
:100180000020CFE71B4A7A44125C002A124D07D0A8
:10019000B3229200097900290DD0A15A05290AD06D
:1001A000800015497944085805F056F980470C49F4
:1001B0006052010AB7E767210802094AA0520020ED
:1001C000B1E701A887850B9805F012FC102004F018
:1001D0005DFA04F05BFAC046CE02000078180020F9
:1001E000D2020000AA6F0000482000201B870000F8
:1001F000258700000B870000FC8600000C480024C7
:10020000FF22214604F025FA2D252801094E3454F9
:10021000094FF4532046C0B2A1B204F079FCB321D7
:1002200089007052FFF74AFFF45B2801305CF2E767
:100230004820002078180020CE020000F0B581B0E0
:10024000254C7C44204605F007F9808802F07DF9B2
:10025000204605F001F98088C0B21B4CFF282FD042
:100260001E48784405F0F8F88088000628D0174C1E
:10027000208C174D6870A18CE9702622A25C2A712F
:100280003926A25D6A71000A2870080AA870A81DA4
:100290002146273104F0C7F93A27E25DA05D811DB0
:1002A000C9B26A54C61DF0B228182146343104F090
:1002B000BAF9E05D8019C0B2064960520920040312
:1002C000204601B0F0BDC0468569000078180020C6
:1002D00048200020CE020000BA9800009A98000042
:1002E00010B51148784405F0B7F880790B490C4AED
:1002F000082353520B4930224A7001228A7003238B
:10030000CB7011240C714A7100248C71CB71104098
:100310001B2242400A700920000310BDCE020000DB
:10032000781800204820002018980000B0B5194C1B
:100330007C44204605F090F8808802F006F92046BB
:1003400005F08AF88088C0B20E4CFF2818D01248F9
:10035000784405F081F88088000611D06B200402F3
:10036000094DA87800280BD10C48784405F074F8A2
:1003700080880649064A0123535228700920040345
:100380002046B0BD8569000048200020CE02000054
:1003900078180020CC970000AC97000092970000DE
:1003A00010B50720C0430A490979002900D0084642
:1003B000C4B267200002F82C08D80548214605F091
:1003C000AFF9044804490C520920000310BDC0468F
:1003D00048200020CE02000078180020F0B5B1B00F
:1003E000564C26795A4D7D44284605F035F88088CC
:1003F00002F0ABF8284605F02FF88088C0B2504FC5
:10040000042800D992E00596012631468140162045
:10041000014200D18AE0A1786B252A0200208029C0
:100420001AD0002900D082E0601D002731460492D6
:100430003A4601F092FE5921C900424A5050B1207B
:1004400080001754A8001654AF2080001754177569
:10045000D7773B4F049A0420E178002967D10599AA
:10046000091A394A374EB1542018401D0B21890111
:100470007050012002F038F909200203307D08286D
:1004800055D1394600273775B1208000305C0028EF
:1004900050D020256846456006A90391016030468A
:1004A00040300121029104923A463B4605F046F95C
:1004B00008210591204605F033F93220207067703D
:1004C0000EAF384605F05AF96846211D22C038465D
:1004D0000299039A2B462F4605F030F95920C000A7
:1004E00031582046243001F05CFE20462830314649
:1004F0001531059D2A4604F096F81648784404F014
:10050000ABFF6A463946576029AF17600830302381
:10051000224605F053F93034204639462A4604F085
:1005200082F8049A09483821315200E03A461046D0
:1005300031B0F0BD0A46FB32F9E7C0464820002042
:100540008569000078180020BF020000CE0200007C
:100550001697000000960000F0B5A3B0B94D7D4499
:10056000284604F079FF8779AF4CA0780790284699
:1005700004F072FF2925405D0126374006970027C9
:100580000028089709D0A0780228089F05D1A7481D
:100590008079C01F00210F1A4741AB48784404F00E
:1005A0005BFF405D079901290AD0002F08D1002880
:1005B00006D09E488079C01F0021091A4141089148
:1005C0006B200502A078022800D929E1E1780229F0
:1005D00010D3032908D0022900D021E194480068F3
:1005E0004069002806D11BE191480068007F02287D
:1005F00000D015E1672005022079002800D10FE125
:100600000591611D18A8292204F00DF8002F09D0CA
:1006100060798000801DC0B220180121002201F005
:100620009CFD1790894D7D44284604F015FF808875
:1006300001F08BFF284604F00FFF7E49CD1C808817
:10064000C0B2042800D9EBE086401620064200D153
:10065000E6E005F04FF900282BD018A801210FAAD9
:1006600001F060FE412525700698002804D17248EB
:10067000083001F047FC2125601C6F4908314122F8
:10068000049003F0D0FF0599012916D0032912D157
:1006900009AE04982946324601F0BEFD00206946A5
:1006A00008602246433214213223304602F0CEFD48
:1006B00048E0604DB4E0022938D109A81422029222
:1006C0004270002203920270861C0498294632462A
:1006D00001F0A2FD059802281CD105965448006837
:1006E00040690028069E2FD004F0B6FE01466846F9
:1006F000029A02602046433000220490059B04F0D9
:1007000069FF0546C0B201281ED1049807F070FFAA
:10071000054619E04948808C69460860039848609E
:100720002246433209A81621962309E04348008C4B
:1007300000216A4603C22246433296230498294682
:1007400001F08CFD0546069E42202554002E01D165
:1007500004206070EDB26619304643300FA92022A4
:1007600003F061FF284663303549344B58520798EF
:1007700001281AD12A462F4DFE35322A50D820465C
:10078000C830433421461C4603F04DFFC8200021E9
:1007900031542D200001215C10220A43225418A854
:1007A00003F0CEFE092005033AE0002F2BD03F25B1
:1007B000585D002809D019463B3117A804221E466F
:1007C00003F050FF334600281DD000265E55184622
:1007D0003B3017A904221F4603F025FF179B204634
:1007E000C83009251A4A7A44294604F067FCD0200B
:1007F00026542D200001395C10220A433A5403F09C
:10080000C9FE2D030CE0092005030898002807D035
:100810002D200001195C10220A431A5403F0C4FE73
:10082000284623B0F0BDC046482000209C2100206F
:10083000F81C0020826900000018002078180020B1
:10084000CE0200009E95000060950000D694000046
:10085000767F0000F0B581B07A21C9430B460B3397
:100860006922002800D01A460C4C0D4D2B5B9B1EB4
:10087000002800D103469FB20A4EF2559A1C2A5313
:100880000024002800D02146581C80B2315491B277
:10089000202004F03DF901B0F0BDC046CE020000BA
:1008A0007818002048200020F0B59DB0FD4A9578CA
:1008B0006B210E021179002D04D0FF2D02D0802D66
:1008C00000D0DDE106910890E3208100F64FAF20D3
:1008D00080000790385C00240028059119D0785CCE
:1008E000002816D150797F21C9437D31CAB2012435
:1008F000802190420DD30A467E32D4B205220023D5
:10090000A04200D01A467D31C9B20324884200D0EB
:10091000144609AE304607F051FEB085000408D0F9
:1009200009A800218185139805F062F86F2006025E
:1009300083E109A805F05CF81390387DDB4E0928A7
:1009400000D077E17F20C0437F30C0B28022854253
:1009500055D1787F002800D159E1DD48385C002866
:1009600000D167E100219A22089803F072FECD4978
:100970004879002800D14AE1089D2C466E34491D73
:100980002922204603F04FFE012600222046314650
:10099000049201F0C7FCD248784404F05DFD8079F0
:1009A0004121C00704D1CB48083001F0ABFA212126
:1009B000C84808302A465A3201F02EFCDD2080005B
:1009C000381859351522294603F02DFEC0480499E0
:1009D0003954BD483E542046314601F0DBFC002826
:1009E00000D114E1B648042139542D200001395CAE
:1009F00010220A433A54204603F0E0FD07E1AC4DD3
:100A0000785D00280FD1002168460160416006989A
:100A10001546031BA3480019421D3846403004F018
:100A20008DFE2A46A24D787F002851D0A14C385B1C
:100A3000069D4119FB36C82900D9FBE01646381837
:100A40009D4940189749491D2A4603F0ECFD385B43
:100A50004019385399480068007F11281CD100F0D4
:100A600025FA002804D02D200001385CC006F6D5F8
:100A70008B20C000385800288C4E8D4D28D12D2059
:100A80000101795CCA0623D48D4A0323BB5410228A
:100A90001143000139541BE082488078B042DED116
:100AA0000598385C0028DAD1012003F09BFA002871
:100AB000D5D07F3682483E548B20C000002139506B
:100AC0002D200001395C10220A433A54774E784DAC
:100AD0000798385C734A9178002928D00028089C30
:100AE00011D120206946486015A8086005208001C2
:100AF0003818521D0121069B04F020FE694A079810
:100B0000385C00285AD0785D002826D0202069461D
:100B1000486015A808600520800138181B210901CC
:100B20007A180121602304F009FE5E4A46E000289D
:100B30000BD1002168460160416005208001381812
:100B4000521D069B04F0FAFD564A604801213952B5
:100B5000059839540020107059E05A48385C0390C9
:100B6000202468461F2109017E18066044603D4626
:100B70004035012100232846324604F0DFFD03986A
:100B800000280BD1284604F0F9FD68460660446051
:100B9000012128463246234604F0D0FD68464460D1
:100BA00015A9016005208001381801213D4A002364
:100BB00004F0C4FD089C3B4A3C4E3D4D787F002824
:100BC0002BD04148385C002804D100219A222046CD
:100BD00003F03FFD2020385C60702220385CA0705C
:100BE0002420385CE07020462430082104F098FD71
:100BF00036480221395200202A4908704870787F0F
:100C0000002810D0201D15A9202203F00CFD1398F8
:100C100004F0EEFE0920060332E02C48022139528E
:100C2000002050701070211D15A8202201F086FAB6
:100C3000002828D0139804F0DBFE244C0020385301
:100C400038751C4D7A5B1C483918164803F0EBFCCC
:100C5000785B385304F0C0FE09A9884202D113988A
:100C600004F0C6FE164801213954124800243C52B3
:100C7000194838180822214603F0EBFC17483C5469
:100C800030461DB0F0BD0798395C0A20002905D018
:100C9000795D002902D1012078550020387509209E
:100CA0000603D7E748200020781800208569000057
:100CB000BE020000560400008D030000F81C002056
:100CC000640400006E04000089030000CE020000EE
:100CD0008B03000000180020650400006D04000074
:100CE0006491000070B55B20C000154D2818FFF717
:100CF000DBFD04462D200601A85DC0061ED5114867
:100D0000295CFF2906D0042907D0032908D103F064
:100D1000F9FB07E003F0C0FB04E0012129540DE0DA
:100D200003F0CCFB002809D1074800212952A85D17
:100D3000EF220240AA552975D520C401204670BD76
:100D40007818002064040000CE020000F0B581B0E5
:100D500000282ED08B20C2004A4CA0584A4FE15D9B
:100D6000022901D1401EA05009210D030028009244
:100D700032D04648201823214E01A2598118444FF1
:100D8000E35B9A1A03F04FFCA05BE15B081AE053A7
:100D90003D4F2D200601A05DEF210140A15500F03F
:100DA00085F8A25D10211140002809D00029F6D055
:100DB00008E03448002202753349405C354D37E085
:100DC000002909D003F07AFB01460120002956D101
:100DD000002020752F4DFB35E05D022811D10099D0
:100DE000615800290DD10320E05503F08BFB01462B
:100DF0000120002943D10021E155264DFB3508464D
:100E000012E0FF2801D003280FD100216177AF2124
:100E10008900625C0A21002A06D01F4AA35C002BCD
:100E200002D10121A154002121751C49615A8A1E59
:100E300091B22B0A1A4C6354911C184E114FB9539E
:100E4000521C92B2A554032805D0FF2803D00920D4
:100E5000000385420ED00C48012139540C4800246F
:100E60003C52104838180822214603F0F2FB0E4885
:100E70003C54B95B89B2202003F04AFE002001B047
:100E8000F0BDC04678180020640400008D03000007
:100E90005604000085690000BE020000CE0200007A
:100EA00048200020650400006D040000F0B591B0FA
:100EB00023204501914F00267E51914C385D022838
:100EC0001ED0012800D016E1974D7E518D48395A29
:100ED000002900D1F7E08E48385C0122FD2845D377
:100EE000FE2839D0FD2800D005E1032900D2EAE030
:100EF0008E48385C8E49795C09020818032235E077
:100F0000804C395B092900D2DDE07F48385CFD2246
:100F1000FC2801D809220DE0904200D0EBE00B291B
:100F200000D2D0E07948381800210A4601F015F9BE
:100F3000395B0B221018884200D9C4E00595069051
:100F40000020012672493A18525C401C002A21D127
:100F500000240728F7D92AE0052900D2B3E0734816
:100F6000381800210A4601F0F8F8052278510221CC
:100F700039558B21C9007850654838188118614C63
:100F800015463A5B521B03F04EFB385B401B38534F
:100F9000012698E079180FAD0822284601F0B9F92A
:100FA0005C48381801462A4601F0D8FA34465648BB
:100FB0003D18284601F080F80790284601F022F8F5
:100FC0000890284601F006F80390284601F052F8F0
:100FD0000490284601F076F80290284601F090F837
:100FE00001464D480068007F112810D12846019124
:100FF00000F0A4FF089908430199002807D102983E
:101000000143002C01D107980143002973D04248C5
:101010000068007F11280FD0284600F08FFF089944
:10102000039A0A43024300200799401A48410443A7
:10103000012C01D110065ED007980028069A059D64
:101040003AD13648385C002836D0089804990143D4
:1010500004240320002900D004460898002820D04A
:10106000AF208000385C002826D009AD14220892F9
:101070006A70002028702A483918A81C03F0D3FA97
:10108000162128462A4601F0C7F838191E4940188B
:101090002946089A03F0E6FA002817D0069A059D1B
:1010A0000AE01F4839183819174A8018142203F02B
:1010B000D9FA069A002810D07A512D200001395C07
:1010C00010220A433A54304611B0F0BD124800686D
:1010D0002021405C40070ED5069A1248395C002951
:1010E00009D1012139548B20C0003958491E39508B
:1010F000002AE8D040E7012003F0C8FA7818002061
:1011000064040000560400009503000096030000EC
:101110008D03000065040000F81C00208903000016
:10112000750300006D0400005C0400008E030000E5
:101130008F030000F0B581B0414D2E794B4C7C44BB
:10114000204604F089F9808801F0FFF9204604F078
:1011500083F901463B4FF81C8988C9B204296DD830
:101160000096012422468A4016210A4266D0A978B8
:101170006B221002802907D000295FD19200324BE8
:1011800003269E5400221A75EE78052E37D8012EBC
:1011900035D0002945D1B01EC1B20020042900D3AA
:1011A00004462949487F002805D104F0A3FB2649BD
:1011B0000028384642D0AF2080000C5401224A77E4
:1011C0000F460021F98321480068037F20483954E5
:1011D0000324664002245C4034430E1B66411D4CD0
:1011E0003E551A2B3C460FD89A401B4B1A420BD047
:1011F000EA78052A06D0042A06D1012203E0802ECF
:101200000FD01BE0022222541448215414482154C8
:10121000DD2080002018192203F01BFA114801215B
:10122000215411480849009A0A540B2080016A1D74
:101230000A50022001F058FA0920000301B0F0BD65
:10124000482000208269000078180020F81C002047
:101250006E040000BD02000080014004BE020000D8
:101260006F0400008B030000BF020000BE89000075
:10127000F0B5F1B0774C7C44204604F0EDF880885E
:1012800001F063F9204604F0E7F88088C0B2694DA8
:1012900004282FD80127394681401620014229D041
:1012A000654E6B200002B178022902D3F278002A41
:1012B00021D167200002002902D1317907291AD3F0
:1012C00007AC204607F07AF9A085000416D007A8DD
:1012D00000218185119804F08BFB6F20050257488F
:1012E0000021017504F078FB07A9884202D111980A
:1012F00004F07EFB284680B271B0F0BD07A804F070
:1013000077FB1190B07800280ED00128EAD133790C
:10131000002168460160416048484030721D04F079
:101320000DFA09200503DDE74449087D0A280BD1A1
:101330004448085C002803D04148085C002803D0DA
:10134000FB3570790B2803D3119804F051FBC6E7E5
:10135000741D2EA82922214603F065F970798000BA
:10136000401C215C2018401844783B48784404F025
:1013700073F88079400710D433480068017F022950
:1013800002D08169002905D0412CDDD1806900029D
:10139000041902E0012C3C46D6D15B20C000274F47
:1013A000391839A89A2203F03EF92EA800210A46DE
:1013B00000F0B8FF2146069470AC204600F0F1FE24
:1013C00020256846456068A9049101601B484030AB
:1013D000012704233946224604F0B0F913AC204615
:1013E00004F0CCF96846456060A90591016020468B
:1013F0003946049A2B4604F0A1F91848784404F0C1
:101400002BF880798007C00F6946FF2252320E60A8
:101410004A6088600D483946059A2B4601F056F817
:101420007078C11C0A4A054B995230180699817090
:1014300077E7C04685690000482000207818002022
:101440006F0400006E040000F81C00204C180020FF
:10145000CE02000086880000908700000087000010
:10146000F0B581B06B2004023A4FBD78012D6CD8E5
:10147000387967210C02002D02D0192802D964E0C6
:10148000052862D1374C7C44204603F0E5FF808874
:1014900001F05BF8204603F0DFFF2F4EF41C80883C
:1014A000C0B2FF2851D03048784403F0D5FF80887F
:1014B00000064AD004F01EFA002845D0787AFE369D
:1014C00001280FD0032808D002283DD123490968FC
:1014D0002022895C890705D436E020490968097F04
:1014E000112931D126211E4A5054B879797909023F
:1014F00008181084387AF9790902081890840920AC
:101500000103012D24D1BD7A78190D2D1CD8C07A84
:101510000528344619D8064610462730009139462A
:101520000B3114462A4603F07EF8392025540B353A
:10153000E8B23818411C20463430324603F073F8C4
:101540003A202654009C00E03446204601B0F0BD0D
:101550000C46FAE74820002082690000F81C0020B1
:10156000781800207686000054860000F0B581B01F
:1015700067200602274D2879012829D1274C7C4471
:10158000204603F069FF808800F0DFFF204603F06B
:1015900063FF8088C0B2204FFF2818D020487844CD
:1015A00003F05AFF8088000611D0FE1E04F0A2F955
:1015B00000280DD06C791B48784403F04DFF0921B9
:1015C00009038088C0B2844205D10E4600E03E4641
:1015D000B0B201B0F0BD3E46FB36082CF8D8009101
:1015E0000120A0408B2149000842F1D00E4D7D44DE
:1015F000284603F031FF408800F0A7FF284603F09B
:101600002BFF408820423E46E2D0204600F082FC7C
:10161000009EDDE748200020856900007E850000EF
:101620005E850000448500000E8500006D200002EC
:1016300070470000F0B58BB009AE00210627304698
:101640003A4603F006F80A200A9901433171012451
:101650003046214600F074FFB01C214600F070FFB8
:10166000114D7D44284603F0F7FE801C31463A4672
:1016700004F048F86E4620273046394604F050F80A
:10168000284603F0E9FE083031463A4604F03AF8BD
:1016900008AE3470284603F0DFFE401C3146224677
:1016A00004F030F80BB0F0BD9A840000F0B581B0C2
:1016B000017800250091002918D0441C002701253D
:1016C000002620462946324600F047FD80B20949EF
:1016D00088420BD00849884207D0241D7F1CF8B2ED
:1016E000009988423546EAD300E00225284601B039
:1016F000F0BDC0461DB100001EB10000F0B599B0AC
:10170000AF4A9778802038436B210E02802800D0A2
:1017100028E110790A90D578002F04D1022D02D348
:10172000802D00D01EE1D520C4012646FE3E04F0E7
:10173000E1F8002800D115E10DAE304606F03EFF7D
:10174000B085000408D00DA800218185179804F009
:101750004FF96F200402F4E00DA804F049F9179046
:10176000002F16D0984D37210901695A002900D160
:10177000E5E0944AAA5A8A4200D0E0E0934828184B
:10178000FFF794FF002800D1A8E000F02BF90446F1
:10179000DFE0012D71D85B20C0008B4F3818002688
:1017A0009A22314602F055FF854B58790B2800D319
:1017B000C4E02020385C874978542220385C864970
:1017C00078542420385C8549785480483818591D4D
:1017D00029221F4602F027FF78798000401C431D14
:1017E000F95C0622002D05D001221343FA5C0902A0
:1017F00089180722744F37231B01F95280180029DA
:1018000000D19BE007906F483E523D464037384636
:10181000099303F0B3FF052080012818069003F018
:10182000ADFF39200490285C11300CAA1070684676
:1018300006604660012338463146089303F07EFF78
:1018400004982B5C6846066046602A462732384674
:10185000314603F073FF684606604660604A7A448A
:1018600011233846314603F069FF0998285AFC28AD
:1018700044D80BA90870012347E037210F01524DCE
:10188000E95B504AAA5A0A9E92198A4257D8002404
:101890006846046044602846403049494A1D039226
:1018A0002146334603F04AFF684604604460052041
:1018B000800128182146039A334603F03FFF404A2F
:1018C0004049685A801968521470E95B80B28842B6
:1018D00010D13F480221295254706DE02D200001A3
:1018E000295C10220A432A54179804F081F8092031
:1018F000060337E03648012129525DE00BA9487004
:10190000FD220A70000A887003236846066046605C
:101910000BAA3846314603F011FF0A98401D05977F
:10192000079D401B0CA90870264A1146264A515AA9
:10193000C3B2C818099FD15B884216D9179804F022
:1019400057F85B20C0002049081800219A2202F0B5
:1019500080FE04F041F80DA9884202D1179804F0E6
:1019600047F82646B0B219B0F0BD6846066046603A
:101970001446134F7F19059831463A4603F0DEFEB0
:101980000CAD2B78684606604660069831463A46AC
:1019900003F0D4FE0A4F0B4AA05A29784018A052EF
:1019A0003E700999615A80B28842089A01D17E70CE
:1019B0000222074804490A5209200403C9E7C04625
:1019C0004820002072030000781800204603000021
:1019D000CE020000D9020000DA020000DB020000A3
:1019E000A66F0000F0B599B03648374E0025355245
:1019F00005AC204606F0E2FDA085000407D005A84E
:101A000085850F9803F0F4FF6F20040242E005A8DB
:101A100003F0EEFF0F90202103916846416011AD65
:101A20000560294E403601240027304621460494A3
:101A30002A463B4603F082FE304603F09FFE68468E
:101A40000560039B4360304621462A461C4603F04E
:101A500075FE1E481C49081839463A4600F062FCDB
:101A60001D48784403F0F8FC80798007C00F694670
:101A7000886064204860164E0E60164804992A4615
:101A8000234600F023FD70780F4E801C0D497052E4
:101A90000920040303F0A0FF05A9884202D10F9892
:101AA00003F0A6FF5B20C000301800219A2202F04C
:101AB000D0FD05A8808D002802D1204619B0F0BDC8
:101AC00002F0E4FDCE02000078180020460300007A
:101AD000482000204C1800209A800000B0B52D202E
:101AE0000501FFF70BFE04460348405DC00601D523
:101AF00002F01AFD2046B0BD78180020B0B50146AE
:101B000069228520002902D0FFF76CFF020A0749ED
:101B1000074B5C5A074D2A55A21C5A52611C89B2C8
:101B2000685491B2202002F0F3FFB0BDCE02000055
:101B300078180020482000206D2000027047000027
:101B4000F0B5B3B01C4615460F46069009A8A6216D
:101B500006F04EFC0026F043782F6FD80090002F3F
:101B600007D000260698805D002802D1761CBE4270
:101B7000F8D301950394B91B8A204843642106F0E9
:101B8000B5FA03460296BE42059026D21946029A3D
:101B9000049706980792805C491E08911F4609AE7B
:101BA000F15D09020D183A242846214606F028FB6B
:101BB0004443291BF155393508998F4201D8732DBB
:101BC00004D3791E002F0F46E9DC00E03946079A5E
:101BD000521C049FBA42059BDBD10020039A029F4E
:101BE00009A9095C002904D1451C98422846F7D36D
:101BF00000E00546F818401C441B1068A04201D2C2
:101C000000981AE00E4E7E44317801983A4602F070
:101C100020FD059B00209D4201D93C460CE0024678
:101C20000198C01909A9495D715C0170401C691CCB
:101C30009D420D46F6D31046039A146033B0F0BDB2
:101C4000C46B0000F0B593B0039060480068046A6C
:101C500008A82A2106F0CCFB012214400D210F20F8
:101C6000002C00D001460191082002900620002C93
:101C700000D0029013200023059203990493C95CBD
:101C8000069100260721891B17468F4006990F40B1
:101C9000C1B214290ED81522541A4A0008AB9B1859
:101CA0001D88EA1C042D00D82A461A80641E9B1C3D
:101CB000002CF5D1490008AA515A421E072900D824
:101CC00002460792D2B2132A14D81420801A510067
:101CD00008AA5418535A658801220021072D00D8FC
:101CE0000A465907090F89182180401EA41C0028A4
:101CF0002B46F0D1002F059A104600D13846129994
:101D00004907090F081808A90885761C082E0799A5
:101D10000846B7D1049B5B1C082B0846ADD10022B6
:101D20002B4C13461046019ED1B2490008AD695AAA
:101D3000000602D10020002907D0B52080002058DD
:101D4000DDB2303141555B1C0120521CD5B2AE4290
:101D5000EAD8180605D1B52080002058302101703E
:101D60000123002107910298CFB2B8420E4629D92B
:101D70007F197F0008A8C05B761C002804D1F7B249
:101D80000298B842F4D81DE00798000608D1B520A3
:101D900080002058DEB22E2787555B1C012007905B
:101DA000B52080002058D6B2760008AFBE5D303630
:101DB000DFB2C6555B1C521C491CC8B2029E86424B
:101DC0003046D1D8D8B213B0F0BDC046F81C0020C0
:101DD00078180020F0B583B00920C2013E4D0026DE
:101DE0002846314602F035FC2846314600F0A8FB73
:101DF0003A4801242C543A482E523A4828180822CE
:101E0000314602F026FC38482E543948784403F015
:101E100023FB4078012801D0FFF70CFC35487844BB
:101E200003F01AFB4078002835D0304E3068018826
:101E30002984418869848188A98481792622A954CA
:101E4000806803F009FB06F0D3FB3927E8553068BA
:101E5000806803F001FB0146EA5D2846273002F066
:101E6000E2FB3068006903F0F7FA06F0C1FB3A279D
:101E7000E8553068006903F0EFFA0146EA5D343551
:101E8000284602F0D0FB1C48784403F0E5FA80882D
:101E900000F05BFB02E0FF2000F03CF817487844BC
:101EA00003F0DAFA0078002814D102AD2C7001AEEC
:101EB0003470134F7F44384603F0CEFA2930314650
:101EC000224603F01FFC384603F0C6FA2946224694
:101ED00003F018FC03B0F0BD781800206404000083
:101EE00056040000650400006D040000F81C00208A
:101EF000F07C0000DE7C0000747C00005E7C000052
:101F0000487C00004021415C01220A40911C017084
:101F10007047000010B582B0014601AC204600F0C9
:101F20000FFB0548784403F097FA001D0222214672
:101F300003F0E8FB02B010BDD87B000070B504468A
:101F40001D4E30684169002911D01C497944032293
:101F5000204602F087FB012500282BD01849794440
:101F60000322204602F07EFB002823D03068007F49
:101F700013280CD1134979440422204602F072FB45
:101F8000002816D118341049794428220BE00F4953
:101F900079440422204602F065FB002809D1183458
:101FA0000B4979440222204602F05CFB01250028FF
:101FB00000D00025284670BDF81C002049680000AC
:101FC0003A6800002568000017680000D16700002B
:101FD000C367000042785621C9431D31CBB2A92105
:101FE0009A420CD18278632A09D1C278762A06D126
:101FF00002798A4203D141790120142900D00020BE
:1020000070470000B0B5044615480068007F1328EB
:1020100010D1144979440322204602F023FB002802
:102020001AD11734104979442722204602F01AFBAE
:1020300001250FE00D4979440322204602F012FBEE
:10204000002809D117340A497944012520462A4637
:1020500002F008FB002800D000252846B0BDC0468D
:10206000F81C002057670000486700003167000037
:1020700022670000B0B504460C480068406900289B
:1020800010D00B4979440322204602F0EBFA0125D7
:10209000002808D0074979440322204602F0E2FADA
:1020A000002800D000252846B0BDC046F81C0020FE
:1020B000116700000267000041786A390020401A69
:1020C00048417047B0B50546FFF738FF00240028A7
:1020D00014D12846FFF796FF00280FD168786A28A8
:1020E0000CD028783E21C9432A31CAB2C12190427E
:1020F00004D2285C401A00210C1A44412046B0BD8D
:10210000B0B50546FFF71AFF0024002814D1284671
:10211000FFF778FF00280FD168786A280CD028785C
:102120003D21C9432931CAB2C221904204D2285C60
:10213000401A00210C1A44412046B0BD70B500235E
:10214000002A08D00023521E94B2055D0E5D6E4039
:102150003343002CF7D1D8B270BDF0B581B00092F6
:102160000722D3430822002900D01A461824002948
:1021700000D10C4600252946465D7F273740002DBB
:10218000334600D13B46009F002F00D01E46E3B2ED
:102190009E4071189C186D1C042DEDD1084601B0AD
:1021A000F0BD01700A0A42700A0C8270090EC170FB
:1021B0007047000070B58CB00C4605466E46304640
:1021C00006F0FCF9B085000411D1684603F010FC5C
:1021D0000A90212020220E4B294603F003FB002CFD
:1021E00005D021200B490A4A012303F00BFB03F021
:1021F000F3FB6946884202D10A9803F0F9FB68466E
:10220000808D002801D10CB070BD02F03FFAC046AD
:102210004C18002000180020F0B5A9B003AB07C38C
:102220000EAD284603F0AAFA20266846466006AF9F
:102230000760012428462146039A049B03F07EFA96
:10224000284603F08FFA6846059942C02846214681
:102250003A46334603F072FA29B0F0BDF0B5B1B09A
:102260001E4615460346369C02270120FF2C00D847
:102270000746379800280595049606D03A4614324A
:102280002AA8194602F0CFF90DE02AA8C21918466B
:10229000FFF7C2FF200A04D02AA84470210A017067
:1022A00001E02AA8047007AD284603F067FA20264B
:1022B0006846466022AC04603B461433012102911B
:1022C0002AAA0392284603F039FA284603F056FA60
:1022D000684650C0284602992246334603F02EFA3B
:1022E000039DE81914300422214602F09CF9049859
:1022F0000690183706AB28463946059AFFF720FCAA
:10230000002803DB06A8008831B0F0BD012002F0F0
:10231000BDF9002A05D0491E8B5C0370401C521E7B
:10232000FAD17047F0B595B005780B2D2FD216462F
:102330000291002D13D0401C0021182200273B469B
:10234000C45DD2B29440E3187F1C083A042FF7D141
:102350008A000BACA350491C001DA942EDD102F02C
:1023600075FD6846066021200BA903AE2A46334658
:1023700003F0A2FA30460299FFF71CFF02F066FD57
:1023800000212022304602F064F915B0F0BD022091
:1023900002F07CF9F0B58DB0024600780B2837D2F8
:1023A0000124002831D002940191521C00241825E8
:1023B00000273E46D35DEDB2AB409E197F1C083D21
:1023C000042FF7D1A30003ADEE50641C121D84420C
:1023D000EDD10528029C18D10124E207039B53404C
:1023E0002C2B03D0542B01D0312B0ED16432059904
:1023F00091420ADC06990198814206D1064A079B60
:1024000001240021934200D80C4620460DB0F0BDB7
:10241000022002F03BF9C04650C30000F0B585B081
:10242000049202780B2A4BD20F46202139700021EA
:10243000002A3DD00499891E0191461C00230121E8
:1024400002920393182000221546B35CC0B2834069
:102450005D19521C0838042AF7D17818049A511AC9
:102460000122D2072B469343174A7A4402F026FEF4
:102470003C463846049906F05DF9C1B2361D019A12
:1024800091421ADA002D039B01DB274603E0272245
:1024900027466254401CC1B22F227A54401CC1B25C
:1024A000002078545B1CD8B2029A9042C9D3491ECE
:1024B00000207854C8B205B0F0BD032002F0E6F861
:1024C000022002F0E3F8C0465D630000F0B587B07B
:1024D0001E4605920F46044602F0B8FC0D980C9D6E
:1024E000002F0DD0059B0E990022069206AF6A467A
:1024F000166055609060D76000290CD00F490BE042
:1025000069460E604D608860012103222046059BCC
:1025100003F0A0F90BE008490322204603F082F9FA
:102520003878C00703D0287801210143297002F0D0
:102530008DFC07B0F0BDC04601040000010600009C
:10254000CA43120251180180704780B5FF218143B0
:10255000000A814201D003F0CBF880BDF0B5002322
:1025600007241E46155D0F5DF619751905550126E0
:10257000FF2D00D81E46671E002C3C46F2D10120DC
:102580000021FF2D00D80846F0BDF0B581B000262F
:1025900007240096155D0F5D330604D0AF4204D9C1
:1025A0007F1E002303E0009B01E0FF3733467E1BC4
:1025B0000655BFB20126AF4200D31E46631E002C53
:1025C0001C46E7D1F0B201B0F0BD000070B582B09A
:1025D00004466B26B000114D285CC1070DD00B20BE
:1025E00080012A5800216846016041602846403039
:1025F000234603F0A3F8B000285C80070CD50B201D
:1026000080012A5800216846016041600520800150
:102610002818234603F092F802B070BD7818002005
:10262000F0B583B02E4D2F4E705D002852D00B2098
:102630008701F05904780320C043401CC0B2FC213C
:10264000844208D2012528460E46FFF7BFFF3246D6
:10265000244ED21C33E0FE2C02911AD0FD2C3CD12A
:102660000120FFF7B3FFF059411CF151715D491E84
:102670007155C9B201292DD941780191847802257B
:102680002846FFF7A3FF200201994418029A921CE2
:1026900015E00120FFF79AFFF059401CF051715DE1
:1026A000491E7155C9B2032914D900210A46FFF702
:1026B00054FD044604252846FFF788FF029A08487F
:1026C0000146305C80187054F0594019F051204692
:1026D00003B0F0BD012001F0D9FF022001F0D6FFC8
:1026E000BF02000078180020F0B5B9B00746FC48DA
:1026F000784402F0B1FE85792DAC204605F05EFFEE
:10270000A0852907CD0F84B2002C01D000F0E8FC91
:102710002DA803F06DF9379001201490002D00D101
:102720001495159517A8C01D13901FA8011D119190
:10273000283012901FA80C301090F24EF24D1697D0
:1027400055E2072800D052E23469002C00D1D6E1CE
:10275000705D002800D03FE100F0B1FCAF22920094
:10276000B25C002A01D000F0B8FC4F783D46083D2D
:10277000E9B2302901D900F0B0FCB91C0A91C9B204
:10278000884201D200F0A9FCE048784402F064FEDF
:102790000F9C31596A4657601FAB079313608A1C20
:1027A000083020212B4603F009F83059C019811F49
:1027B00008220798FFF7C2FC002801D000F08DFC2A
:1027C0000F983058811C1FAC20462A4601F02BFF81
:1027D0002078322801D000F080FC0F9D74591198A8
:1027E00070512420FFF7F2FE0A9AA0187051C648D3
:1027F0000146305C801A705417A808221299FFF71E
:1028000088FD002001460246139F7B5C7418257FDB
:102810005219D31823770122FF2B00D80246491EF4
:102820000C460834F1D10125FF2B00D88EE000F0D2
:1028300054FCAF208000305C002801D100F04DFC3A
:1028400001252846FFF7C2FE0F9FF059421CF251A6
:10285000AD480146305C401E7054C0B2232801D8F8
:1028600000F03BFCAA48305C00282FD06B203C468F
:102870008700F5552420FFF7A9FE0020F0553159B7
:1028800024313151A0480246305C2438B054C0B2E3
:10289000072801D800F021FCAD2080003018082264
:1028A000039201F0C0FE0398FFF790FEF5553059F2
:1028B0000830305194480146305C0838705445E087
:1028C0001B200001301802F059FF36E30021684652
:1028D000016041601B20000130182424234602F0CF
:1028E0002DFF2046FFF772FEF1592431F151864841
:1028F0000246305C2438B054C0B2072800D8ECE35C
:1029000017A80822FFF705FD002001460246139F85
:102910007B5C7418257F5219D31823770122FF2B73
:1029200000D80246491E0C460834F1D1FF2B00D9CD
:10293000D3E30820FFF74AFE0F9970580830705013
:1029400071480146305C083870540125AF20800082
:10295000305C002803D16B20800001213154169F88
:10296000FFF75EFE3061AF218900715C2943159A43
:10297000002A06D1002804D0022F02D1080600D177
:10298000ABE302203075604D705D002800D196E306
:10299000316901291CD10B20840130590078AE38EF
:1029A00000210A1A42410123149D6B401A4202D1B0
:1029B000091A4141F1770120FFF708FE3059401C08
:1029C0003051514D705D401E70553169491E316165
:1029D000002916D04C1EC0B2844200D30446002CFD
:1029E00000D16CE3E0B2FFF7F1FD0B20800131581C
:1029F00009193150705D001B70553069001B306142
:102A0000F5E0022F1AD1AF218900715C002911D0A5
:102A10003F49715C002911D0002168460160416086
:102A2000AD208000321830464030082302F086FE88
:102A3000705D03E06B21890003227254C0B2032849
:102A400000D84AE3AF208000305C00280FD0304827
:102A5000305C00280BD10B208001325800216846E1
:102A60000160416030464030042302F067FE0420DC
:102A7000FFF7ACFD0B2080013158091D3150705D0E
:102A8000001F705501203075B068401EB060F068BE
:102A9000401CF060ABE01E48315CAF229000305C1F
:102AA000002872D0002970D10D921A48345C20257C
:102AB000684645601FAA02601B20000130180121F2
:102AC00000230C9002F03AFE002C25D068464560A9
:102AD00017AA0260304640300121002340E0C04682
:102AE0000C740000052800D081E0705D002800D142
:102AF000E5E23469002C00D06EE70420C3E708202B
:102B0000307574E078180020BF0200007273000076
:102B1000BE0200006E0400000C9C204602F02EFE57
:102B2000684645601FAA02600121099120462B4694
:102B300002F004FE6846456017AC04603746403733
:102B4000002338460999224602F0F8FD384602F083
:102B500015FE684630C03846169F099922462B4616
:102B600002F0ECFD1FA920240C98224601F05BFD29
:102B70001D200001301817A9224601F054FDDA4843
:102B8000315C0D988000305CD84D002814D00029AD
:102B900012D0D748305C00280BD100216846016074
:102BA00041601F200001321830464030202302F0DF
:102BB000C5FD0A2030751AE009213175CC49715CD8
:102BC00000290ED010206946CA4A7A440A6048603B
:102BD00030464030012109020022134602F0DAFD9E
:102BE00005E0002803D03046403002F0C7FD317DBB
:102BF00000E03175C8B2042807DC022867DD03282D
:102C000028D00428F3D1B06832E0062800DD50E275
:102C100000D067E7705D002800D150E2032800D89B
:102C20005BE20420FFF7D2FC0B2080013158091D24
:102C30003150705D001F705508210006D9D06B20FF
:102C4000840000203055FFF7EBFC01213155306145
:102C50000721CEE7022F00D11DE7705D002800D1CB
:102C60002DE2FFF7DDFC0021B060F1600421317539
:102C700006210028BDD0705D002800D11FE2072882
:102C800000D82AE2012F11D15920C0003058F16834
:102C900081420BD10B20800131583046153008227B
:102CA00001F0C1FCB1208000012131540820FFF760
:102CB0008DFC0B208001315808313150705D08388F
:102CC0007055FFF7ADFC3061052030750DE7002829
:102CD00006D0012802D0022889D155E6B06885E1E6
:102CE0000027B760F7603761304615300822394653
:102CF00001F0AFFC7E48305C002812D07A48305C8E
:102D0000002828D01FA8FC49794410252A4601F044
:102D10008AFCFE480068007F162807D11098FE49FB
:102D20000BE03046403002F029FD14E0F648305CFC
:102D30000228F74900D0F7491098FFF732FA6846A1
:102D400045601FA901603046403001210902002280
:102D5000134602F01FFD052080013518284602F0B9
:102D60000DFDAF208000305C002800D1E5E06B2035
:102D700080003754E448345CE248305C002800D1DD
:102D800093E06846076047602B2000013218304608
:102D9000403004230E90394602F0D0FC6846002CE7
:102DA00000D1A9E0076047604720000132180423E2
:102DB0000E9C2046394602F0C1FC68460760476019
:102DC0001B20000132182025204639462B4602F0F0
:102DD000B5FC6846076047601D2000013218204698
:102DE00039462B4602F0AAFC6846076047601F2060
:102DF00000013218204639462B4602F09FFC6846F7
:102E000007604760C94A7A44204639462B4602F09B
:102E100095FCBD48305C022814D1684607604760C5
:102E2000C34A7A4404922025204639462B4602F0B4
:102E300085FC68460760476020463946049A2B4661
:102E400002F07CFC6846076047608F20C0003218A3
:102E50000425204639462B4602F070FC6846076080
:102E60004760AE483218204639462B4602F066FCD1
:102E7000A548305C02280FD11FA8059008253946C7
:102E80002A4601F0E6FB684607604760204639465F
:102E9000059A2B4602F052FC684607604760A0483E
:102EA000321804232046394645E0002C00D107E5BE
:102EB000102768469B49794482C01B2000013018C6
:102EC00001210D02002429462246234602F062FC1D
:102ED00068469549794482C03046403029462246AA
:102EE000234602F057FC28E0BE020000BF020000AB
:102EF0006E0400006B5C0000076047601B2000014F
:102F000032180892202306930E9C2046394602F080
:102F100015FC6846076047601D20000132182046F6
:102F20003946069B02F00AFC68460760476060234A
:102F300028463946089A02F001FC714FF05D0328DB
:102F400000D8CAE00B20850171592B2000010B909D
:102F500030180424224601F066FB2046FFF736FBBA
:102F60007059011D7151F05D001FF055664AB25C49
:102F7000002A15D0C0B2032800D8AEE047200001D7
:102F800030180424224601F04EFB2046FFF71EFBBA
:102F90007059001D70515A480146305C001F705432
:102FA0005A4909682022895C890718D52621715C55
:102FB000022905D0042912D10B99715C01290ED880
:102FC000C0B2032800D888E00420FFF7FFFA705948
:102FD000001D70514A480146305C001F7054FFF7D5
:102FE0001FFBB06001213175169F454D002819D097
:102FF000705D002863D00125022F16D0012F00D06C
:10300000AEE4232869D92420FFF7E0FA0B208001E1
:103010003158243131503A480146305C24387054DC
:1030200001259DE403203075E1E5012855D90B21E8
:1030300089010F9171580A78022A01D1FFF7F9FB33
:10304000012A01D1FFF78AFB002A46D1AF20800078
:10305000305C002841D1374C7C44204602F0FCF91A
:103060008088FFF772FA204602F0F6F98088C0B235
:10307000042806D0022804D001282ED11598002853
:103080002BD01F4C305D401E30550F9D7159491C8F
:103090007151C0B2232820D92420FFF797FA705924
:1030A00024307051305D243830550120B077002530
:1030B0004CE401460839032901D3FFF742FB02F033
:1030C0008BFC2DA9884202D1379802F091FC2DA8E3
:1030D000808D00280DD139B0F0BD012001F0D6FA65
:1030E0002DA800258585379802F082FC03480575D8
:1030F000204601F0CBFAC0463D5B00007818002066
:10310000BF020000BE0200006E040000F81C002098
:10311000BB09B876191BA85B0D540B93740400000F
:103120007C0400005F590000515900004F5A000014
:10313000335A0000A46A0000F0B581B00346CA0605
:10314000D0170090174A02400C07E617164C34407F
:103150005D01654055408A06D417144A22406A40F2
:103160004D06ED171248284050400A06D717114A5D
:103170003A40424098203040DB0E4901C918C9B29C
:1031800041407920009B18404840F32121404140B4
:10319000AE20284048401E2139404140104601B031
:1031A000F0BDC046E2996DB7618EBCF2C4B35F3E1C
:1031B000A8E2AB2E70E4434FF0B581B015460E4641
:1031C00007460478012000210090FFF7B5FF002C8E
:1031D00012D07F1C1F22224042403C781046FFF74D
:1031E000ABFF7F1C002CF5D106E0FFF7A5FF0246E0
:1031F000307850406D1E761C002DF6D10824FFF764
:103200009BFF641EFBD1009A504001B0F0BD00004E
:10321000F0B581B014460A4601460B487844FFF7E2
:10322000CBFF05460E462327284631463A4605F091
:10323000D3F81F2101402170781F641C002F07461E
:10324000F2D101B0F0BDC046BC560000F0B599B057
:103250001D460346002017901690107014296FD158
:103260001E990020002904D0012969D1019208206B
:1032700000E001920CAF3870781C1422194601F05E
:10328000D2F915210026324630463B780002C0189C
:10329000134608337F1C491E0224E443A2420EDB7E
:1032A0000D3213460A3B0446DC401F23234002AC88
:1032B000A355521F761C092AF3DC521F00E01A4660
:1032C0000029E2D1002A019F07D00521891A8840F0
:1032D0001F21014002A88155761C02A816AA31467A
:1032E000FFF796FF0020002E394611D002A8017882
:1032F0000023144A7A44202920D2581CAB421DD204
:1033000002ACE45C145DFC54B0420346F3D33918BC
:1033100016AA137800220C4E7E44202B0ED284185D
:10332000641CAC420AD816ACA45C345D8C54521CAC
:10333000082AF2D300238B54801801E00020387053
:1033400019B0F0BDF0550000CC55000080B509481B
:10335000002101700848016008480078002801D168
:1033600004F024FE064979440020024604F096F950
:1033700080BDC0467C1D0020801E0020801D0020D6
:10338000565A000080B582B001900648784402F099
:1033900063F8293001A9012202F0B4F9FFF7D6FF42
:1033A00002B080BD7067000001460020022903D8EA
:1033B00088000249794408587047C04664590000A3
:1033C00080B5012805D0002807D10020FFF7DAFFDB
:1033D00080BD0120FFF7D6FF80BD0020034979445E
:1033E000034A7A4404F0DCFD80BDC04613000000AF
:1033F0002700000001460020012903D88800024967
:10340000794408587047C0462459000080B5002808
:1034100002D0FFF79BFF80BD0648784402F01CF8FD
:103420002921435C002004497944044A7A4404F089
:1034300099FD80BDE26600007DFFFFFF91FFFFFF69
:1034400080B5002003497944034A7A4404F0A8FD7A
:1034500080BDC046ABFFFFFFBFFFFFFF80B5FF2071
:1034600002F086FA80BD80B50120FEF747FBFFF72A
:103470006DFF80BD80B50020FEF740FBFFF766FFC3
:1034800080BD80B50120FDF761FC002800D080BD23
:10349000FFF75CFF80BD80B50020FDF757FC0028DA
:1034A00000D080BDFFF752FF80BD80B50120FDF741
:1034B0004DFC002800D080BDFFF748FF80BD80B5DF
:1034C0000020FDF743FC002800D080BDFFF73EFF41
:1034D00080BD80B50120FDF739FC002800D080BDFB
:1034E000FFF734FF80BD80B50020FDF72FFC0028DA
:1034F00000D080BDFFF72AFF80BD80B50020FDF71A
:10350000A9F9FFF723FF80BD80B50120FDF7A2F9DF
:10351000FFF71CFF80BD80B50020FDF79BF9FFF78A
:1035200015FF80BD80B50120FDF794F9FFF70EFF70
:1035300080BD80B50020FDF78DF9FFF707FF80BD46
:1035400080B50120FDF786F9FFF700FF80BD80B54B
:103550000020FDF77FF9FFF7F9FE80BD80B5002060
:10356000FDF778F9FFF7F2FE80BD80B50120FDF789
:1035700071F9FFF7EBFE80BD80B50178490601D0F7
:1035800001F02CFA80BD0000B0B5054607202840A8
:103590000024012814D0022814D1002909D00B4896
:1035A00002F0F2F968B200280ADA02F0A1F8002469
:1035B00006E0FF2152310548002202F0FDF90446E1
:1035C0002046B0BD022001F061F8C046482000202E
:1035D000F0B581B0D84D28780C2810DD0D286CD0BE
:1035E0000E2800D1B8E015280FD1D44880790128E1
:1035F0000BD1A879000708D4102001F047F805285E
:1036000000D101E10C2800D17EE2F94C002767606F
:1036100001202070204602F079F9042002F0F4F92C
:103620006060692800D04DE101F07EF901F07EF97B
:10363000BE25F04E7753042002F0E6F96060C02406
:103640003159002900D15FE2002800D15CE29728BF
:1036500000D159E2705BAA27C421715C80B2884214
:1036600000D351E202F09CF9002800D04CE202F0B5
:1036700017F9B84204D102F03DF9B84200D043E254
:103680003059715B49014018CC217158002902D092
:10369000884700280AD0012803D13059715B4901BD
:1036A00040180178490601D001F098F9705B401C80
:1036B000705331590029CFD126E2CD4C00276760E5
:1036C00001202070204602F021F9042002F09CF92C
:1036D0006060002800D117E2692800D18CE19728AA
:1036E00000D111E2C025C34C6059002800D103E28B
:1036F000BE26A05BAA27C421615C80B2884200D3A9
:10370000FAE102F04DF9002800D0F5E102F0C8F826
:10371000B84204D102F0EEF8B84200D0ECE16059B2
:10372000A15B49014018CC216158002902D088478B
:1037300000280AD0012803D16059A15B4901401833
:103740000178490601D001F049F9A05B401CA05363
:1037500061590029CFD1CFE1A54D00276F6001202D
:103760002870284602F0D2F8042002F04DF9686073
:10377000692800D0E4E001F0D7F801F0D7F8BE24C2
:103780009C4E3753042002F03FF96860C025715900
:10379000002900D1B8E1002800D1B5E1972800D177
:1037A000B2E1305BAA27C421715C80B2884200D3A9
:1037B000AAE102F0F5F8002800D0A5E102F070F8C7
:1037C000B84204D102F096F8B84200D09CE170599A
:1037D000315B49014018CC217158002902D088473B
:1037E00000280AD0012803D17059315B49014018E3
:1037F0000178490601D001F0F1F8305B401C3053EC
:1038000071590029CFD17FE1F44C00276760012076
:103810002070204602F07AF8042002F0F5F860608B
:10382000002800D170E1972800D16DE1692800D00F
:1038300025E101F079F801F079F8BE25E84E7753DB
:10384000042002F0E1F86060C0243159002900D161
:103850005AE1002800D157E1972800D154E1705B6C
:10386000AA27C421715C80B2884200D34CE102F0E7
:1038700097F8002800D047E102F012F8B84204D1CE
:1038800002F038F8B84200D03EE13059715B49018E
:103890004018CC217158002902D0884700280AD04E
:1038A000012803D13059715B49014018017849065C
:1038B00001D001F093F8705B401C7053315900291E
:1038C000CFD121E1C025C64C6059002800D113E1B9
:1038D000BE26A05BAA27C421615C80B2884200D3C7
:1038E0000AE102F05DF8002800D005E101F0D8FF00
:1038F000B84204D101F0FEFFB84200D0FCE06059AC
:10390000A15B49014018CC216158002902D08847A9
:1039100000280AD0012803D16059A15B4901401851
:103920000178490601D001F059F8A05B401CA05372
:1039300061590029CFD1DFE0841E00209C210020A6
:103940000446D820A64E3158002911D0642264299B
:103950000B4600D31346C91A315009D1D4217158EE
:10396000002900D1D9E0DC22B2583250002088472B
:10397000002C00D1C8E0972C00D1C5E0C0243059FC
:1039800000282FD0BE25705BAA27C421715C80B2AD
:10399000884227D202F004F8002823D101F080FFEA
:1039A000B84203D101F0A6FFB8421BD13059715B78
:1039B00049014018CC217158002902D088470028BD
:1039C0000AD0012803D13059715B490140180178B0
:1039D000490601D001F002F8705B401C7053315968
:1039E0000029D2D1C420305CBE21715A88E0C04683
:1039F000B01F0020801D002000F096FF00F096FF11
:103A0000BE25774E7753042001F0FEFF6060C0248E
:103A10003159002978D0002876D0972874D0705B6F
:103A2000AA27C421715C80B288426DD201F0B8FF30
:103A3000002869D101F034FFB84203D101F05AFFE8
:103A4000B84261D13059715B49014018CC2171589D
:103A5000002902D0884700280AD0012803D1305914
:103A6000715B490140180178490601D000F0B6FFAA
:103A7000705B401C705331590029D2D144E0D020F2
:103A8000574C2058002803D0E978490800F0EAFF95
:103A9000C025605900282FD0BE26A05BAA27C421CC
:103AA000615C80B2884227D201F07AFF002823D1DE
:103AB00001F0F6FEB84203D101F01CFFB8421BD161
:103AC0006059A15B49014018CC216158002902D0FE
:103AD000884700280AD0012803D16059A15B490119
:103AE00040180178490601D000F078FFA05B401C27
:103AF000A05361590029D2D1C420205CBE21615A53
:103B0000814201D301F04CFF01F04AFF002801D1AE
:103B100000F0C2FD012001B0F0BD3248016800296B
:103B200000D125E7002CEFD0972CEDD02E4800785F
:103B3000002806D12D480068401C04F05DFB2B488E
:103B4000016000F0F1FE00F0F1FEBE20009037525F
:103B5000042001F059FF6860C0257159002900D187
:103B600006E7002800D103E7972800D100E7009876
:103B7000305AAA27C421715C80B2884200D3F7E68C
:103B800001F00EFF002800D0F2E601F089FEB842F5
:103B900004D101F0AFFEB84200D0E9E670590099B7
:103BA000715A49014018CC217158002902D0884728
:103BB00000280BD0012804D170590099715A49018D
:103BC00040180178490601D000F008FF0099705AAA
:103BD000401C705271590029CCD1C9E6B01F002099
:103BE000801D0020801E00207C1D0020781D0020EC
:103BF00070B582B0234DA87F00280BD0224C204600
:103C0000553024497944072200F00DFD5C20002145
:103C1000215431E01D482A18294615316846FEF71F
:103C2000B4FC00280ED01A480068007F082826D16E
:103C3000154C2046553018497944062200F0F3FC13
:103C40005B3417E03A26AA5D0F4C553429463431CF
:103C5000204600F0E8FCA85D202121542018401CDB
:103C6000B521890068506846FDF7ECFFA95D401852
:103C70002018441C00202070012002B070BD0020DC
:103C8000FBE7C04678180020FC1C002065040000FB
:103C9000F81C0020B250000086500000F0B5A7B01C
:103CA000BC4900200A900870BB48BC4C211825A8CC
:103CB0000822FEF72EFBBA4826183046FEF7DAF93E
:103CC00005463046FEF7F8F9002824D0B148BA4935
:103CD00079440A2204F092FB01210027AD480078C4
:103CE000002800D08AE0002D23D0AE48006840694B
:103CF0000028A84E7AD0651801F0AEFB0146E320FB
:103D00008000285C6A461060A3482B1811A8002286
:103D100001F060FC6AE0A34F3868007F11282BD1C6
:103D20003046FEF7CFF900280AD09A48A3497944D3
:103D3000CFE7380A2DD00BAA5770107002252BE060
:103D40003868007F112817D13046FEF7D9F90028CE
:103D500012D000278F480146C7714C2088714871E6
:103D6000412008714320C8705F208870502048703F
:103D70004F2008700121B1E70B21002D0A9FADD122
:103D80003046FEF7DBF8002800D182E0278C0C21BA
:103D9000A4E70BA8077001250BA8461960187E49F7
:103DA00041181422304600F03EFC8148205C002877
:103DB0000DD0A08C381A0A99091A41416846016051
:103DC000142111AA50233046FFF740FA0DE00120DC
:103DD00069460F60486014350BA811AE5023294680
:103DE0003246FEF73BFA002131546A4E11A94122B6
:103DF000304604F065FC4020002131546D48205CC1
:103E0000142813D17320C00020187049794404226B
:103E100000F028FC002809D1E720800020186C4918
:103E20007944042200F01EFC00281ED03A26A25D30
:103E3000584F3D46413521463431284600F0F3FBCA
:103E4000A05D202129542818401CB521890060500C
:103E500025A8FDF7F7FEA15D4018401C3818412148
:103E60000A9A4254012027B0F0BD1D2040012018BD
:103E700001210022FEF771F91F28464F65D0034645
:103E800038464130032B65D0012B69D15149794423
:103E900062E03046FEF79EF8002877D0278C0BAA08
:103EA0000992177040482118501C0890142200F005
:103EB000BAFB012107916846076041601521069110
:103EC00011AE5023059309983246FEF7C7F9002139
:103ED000049131543A4979440E222E4804F08EFA66
:103EE000082203922B48314604F0B6FB294804F01F
:103EF0007FFB28490818334979440F2204F07EFAE1
:103F000009980770294821182022089800F08BFB97
:103F10006846076007994160099806993246059BF3
:103F2000FEF79CF9049931541A483146039A04F07B
:103F300093FB1848064604F05BFB3018224979448D
:103F4000032204F05BFA2821C8E6384641302249B2
:103F5000794401E021497944062204F04FFA04E053
:103F600014211F4A7A4401F0A9F83D4641352846FC
:103F700004F03EFBC6B2A819B52189006050E920C3
:103F800080002018FDF75EFE301867E7A78C0B2134
:103F9000A4E6C046FC1C00208D0300007818002019
:103FA00095030000F81C00209B030000B5030000EF
:103FB000BD02000097030000C456000072560000C6
:103FC000D6540000C4540000874D0000BC4E0000D1
:103FD000AC5500003F4E0000834D0000834D0000B3
:103FE0007B4D0000F0B5AFB0FD4EF27FB17F0023F6
:103FF000002902D0002A00D1DFE0002A0FD00028DB
:1040000000D0DAE05521F7480022425441214254C1
:10401000F5497944052204F0F1F90123CDE003903C
:104020002BA800240822214600F013FB2346FD485C
:10403000305C0990032800D9BFE0002109980028CE
:10404000049106910291059100D19BE00024012189
:104050000594069404940B940A917518F148291854
:1040600000200A5C401C0126002A02D100260728F5
:10407000F7D92DAC08222046FEF74BF92BA80146B4
:104080002246FEF76BFAE8482D182846FEF714F88A
:104090000C902846FDF7B6FF0E902846FDF79AFFD4
:1040A00007462846FDF7E6FF08902846FEF70AF87F
:1040B0000D902846FEF724F804460023002E0C9E9F
:1040C00001D1002E79D1D9480068007F11280793CB
:1040D00006D121460D9801430120002900D004900B
:1040E0000E9807432846FDF729FF3843000609D1FB
:1040F00020460D99084300285ED0CC480068007F18
:10410000112859D12846FDF719FF0743380653D027
:104110003246C34EC648305CC4490968097F11293C
:1041200008D10D990C431443002C21D100280B9C7D
:1041300005D11EE0002A0B9C1BD1002819D0BD48D8
:1041400031180E98089B034304200322002B00D053
:1041500010462818142200F085FA002801D0059492
:1041600007E00120069909060690079B01D024E08C
:104170000B9C28780A9909180931641C0998844213
:1041800000D268E70699080603D1A948305C0028E8
:1041900010D1CAB20120002A014600D11146049A6A
:1041A000D2B2002A00D1104608400999022907D34B
:1041B000002805D1029B00E0079B18462FB0F0BDF8
:1041C0003146153129A82BAAFEF7DFF9002805D0C2
:1041D00096490968097F0829029BEED10D90039842
:1041E000002800D084E0B520820015A88C498850B2
:1041F000099800287CD00FA8401C08900598C0B2F0
:104200000E9000250127079288480068007F11283A
:1042100014D18348C019834944188349461830464D
:10422000FDF74AFF002809D13046FDF74BFF002873
:1042300004D13046FDF764FF002814D07B480068A5
:10424000007F112809D07648C0197649441876496C
:104250004018FDF731FF002805D008377048C01915
:10426000704944183DE02DA808222146FEF751F878
:104270003E4608366A4880196A4944182046FDF7C8
:10428000F9FE0146002828D10B912046FDF756FE85
:104290000B210C22002800D01146C919604B1A4688
:1042A00024322033002800D01A4610880C90020ACD
:1042B00001230FA8002A03D00FA802700223089838
:1042C0000C9A02700FA80A93C018554A5118554A03
:1042D0008918142200F0A7F90B990E98A8420DD066
:1042E000374620783818471C6D1C099885428BD3B7
:1042F000B520800000214A4A11508EE600290A9B11
:1043000013D04A48006840690028454D34D0EE1962
:1043100001F0A2F801464948305C6A461060E31C8F
:1043200015A8002201F056F926E043483C4D285CD0
:10433000002811D0A88C0C9989B2081A0021091AFA
:10434000414168460160D8B20FA90818142115AA86
:104350005023FEF77BFF0FE0012069460C9A92B2D2
:104360000A604860D9B214310FA815AC5023224618
:10437000FDF774FF00212154314F15A94122384621
:1043800004F09EF9402000210E9139543A242A5D10
:1043900041372E4634363846314600F044F9285D20
:1043A00020210C9139542649081842300799685049
:1043B0002DA8FDF747FC2A5D801838180E9941702A
:1043C0000D98002812D01E4C204655301D497944C6
:1043D000062200F028F95B200021215488E7C0461E
:1043E00078180020FC1C0020DC4C0000144F3D46D7
:1043F00055352846314600F016F909480646005D55
:104400000C992954381856300799705029A8FDF78F
:1044100019FC315D401828180021417068E7C0463A
:10442000781800208D03000095030000F81C002080
:104430008903000075030000BD020000970300001F
:10444000FC1C0020F048000070B58CB020206946AC
:10445000486004AE0E60052080010C4908180C4D20
:104460002A46413201240023214601F067F96846BB
:10447000082306601836436086604121054A7A4465
:10448000284600F01BFE20460CB070BD78180020B6
:10449000FC1C00207548000010B500242046FFF7E2
:1044A000A1FD002806D0044979440020024603F00B
:1044B000F5F80124204610BDA44A000080B5FFF79E
:1044C000EDFB8B20C0000A4908580A4A8958491C4C
:1044D0000B1A094855301421084A7A4400F0EEFDC1
:1044E000074979440020024603F0D8F8012080BD36
:1044F000781800205C040000FC1C00202548000007
:10450000324B000080B5FFF773FB01460020002905
:1045100006D0044979440020024603F0BFF8012088
:1045200080BDC046B04B000080B5FFF78DFF03494A
:1045300079440020024603F0B1F880BD40490000F4
:10454000B0B505460F4CC834204604F051F8202180
:1045500021542018002444700B497A222846FDF784
:104560005DFF28462146FDF715FF002802D00849C7
:10457000794401E0054979442046224603F08EF84B
:10458000B0BDC04648200020FC1C0020824C00002A
:10459000644C000080B5034979440020024603F0D2
:1045A0007DF880BDD44C000080B5034979440020DB
:1045B000024603F073F880BD304D000080B5054918
:1045C0007A22FDF72BFF044979440020024603F0CC
:1045D00065F880BDFC1C0020B84D000010B58CB003
:1045E0006C46204603F0EAFFA085000406D1684629
:1045F00001F0FEF90A90FF2001F0BAF901F0ECF9A0
:104600006946884202D10A9801F0F2F96846808D25
:10461000002801D10CB010BD00F038F880B50020A2
:1046200001F0E6F980BDB0B5884208D9002A0FD064
:10463000491E401E8B5C8354521EFBD108E0002AA9
:1046400006D000239CB20D5D05555B1C521EF9D1AE
:10465000B0BD80B5002A04D00B4611461A4603F0BF
:10466000D5FE80BD70B5401E491E541E0023002A91
:104670000AD08D5C865CAE422246F6D00020C04354
:104680000123AE4200D80346D8B270BD044601F003
:10469000A3F9214603F09EFF80B501F081F90028BF
:1046A00000D080BD064800214170602202700222C5
:1046B0008270C1700171052101F066F980BDC046AC
:1046C000841E0020B0B51A48C078032807DC0128F2
:1046D0000DD0022828D1174802F057F9B0BD0428A0
:1046E0001FD0082820D1134802F04DF9B0BD114C5D
:1046F0000121204602F042F9204602F020F90E4C3A
:10470000A079002811D120460C3000250622294628
:10471000FFF79FFF12340C2220462946FFF799FF2E
:10472000B0BD044802F02DF9B0BD1020FFF7AEFF78
:10473000841E0020642200209C2100207F21014053
:104740000020052902D802484018007B7047C04667
:104750009C21002080B515480179042917D0022931
:1047600006D0012920D1811D124801F0EEFF80BD45
:10477000C2787F211140052916D84A000C4B9A189F
:1047800000235382821D0B4802F065F880BDC27879
:104790007F211140052907D8054A52184379137320
:1047A000821D044801F0FFFF80BDC046841E00202A
:1047B0009C2100206422002070B5FF2A1ED81546D7
:1047C0000E4604460E4850210170202101714271AD
:1047D000D11C817080222243C270090A41700621D7
:1047E00001F0D2F83046294601F0CEF87F20204073
:1047F0004000044908187D210901418270BDC0466E
:10480000841E00209C21002080B50A46014682209B
:104810001423FFF7D1FF80BD80B50A4601468320EF
:104820001423FFF7C9FF80BD80B50C48017800292B
:1048300000D080BD062181710A21017008498A7863
:104840004B781B029A18FF232A339A4200D31A4648
:104850004280C91C0348FFF7E6FE80BD9C21002072
:10486000841E00204820002010B52048817842781E
:104870001202511800780F280ADC0E2810D00F28D9
:1048800022D10020012926D1FFF71CFF012010BDF5
:1048900010281DD0162817D1FFF7C6FF012010BD24
:1048A00013488168643181601C21425A002A08D073
:1048B0006423642A144600D31C46121B425212047D
:1048C0000ED0891E1029F0D10220FEF781FE10BD06
:1048D0000020032900D210BDFFF73CFF012010BDCE
:1048E000002101701020FFF7D1FEC046841E002079
:1048F0009C210020B0B50A2000F0EEFE084C0025F7
:10490000202220462946FFF7A4FE65802570A57168
:10491000A56000F04FFB034805604560B0BDC04690
:104920009C210020BC21002070470000024800218B
:10493000016041607047C046BC210020F0B589B0DD
:104940000546084600F088FD002843D0044600696B
:1049500000283FD0284600F07FFD014602AD1C2212
:1049600028460192FFF75FFE2168E98062682A818C
:10497000A068194F65233B7089B292B24A43424303
:104980005307D1084A1C002B00D10A460092042686
:104990008640B0181D30B870000A78700321384680
:1049A00000F0F2FF2846019900F0EEFFA068387091
:1049B0000121384600F0E8FFE06800F04DFDB1B29B
:1049C00000F0E2FF009885B2206900F045FD29461D
:1049D00000F0DAFF09B0F0BD841E002070B500F0D1
:1049E0003BFD044600787F26064000F0D9FF0028F2
:1049F00030D1002E2ED0E06900281DD000F02CFD13
:104A00000546052E02D1A07E002824D0284603F0BA
:104A1000EFFD064612486521017031461C31817058
:104A2000090A4170032100F0AFFF1C21204600F06D
:104A3000ABFFB1B228460BE0094800214170652167
:104A400001701C258570032100F09EFF2046294639
:104A500000F09AFF70BD20462946FFF76FFF70BD3A
:104A6000841E002070B5002829D00446144806682A
:104A700045688E4201D16D1C45600E43002902D06D
:104A80000660324605E00022026042600D4B5B1C6E
:104A90001E438A4201D000214160082D0CD303211E
:104AA000284603F0A9FB012290073043002900D0DB
:104AB0003046D107884300E030462946A04770BD04
:104AC000BC210020FFFFFF7FF0B581B00F4E012415
:104AD0003470B11CFF2750377A1C204600F03AFF93
:104AE000054670703A1A3718F91C022000F032FFA0
:104AF000B8702D187619F47000F020FF30719020F6
:104B000070710020B071E81D01B0F0BD4820002098
:104B1000F0B58BB00B460146400708D006910698C9
:104B2000C0B299B2FEF730FD80B20BB0F0BD4B20A1
:104B3000840080200590A94EA74F069110200D46B5
:104B400005409AB2002A00D1B9E0002D00D0B6E0AD
:104B50000492019302900395079107E000223846E2
:104B6000214600F029FF012000F04AF900F018FF6B
:104B70000028F3D17D200001B1680D183078092894
:104B800043DC072804994BD0092864D100219448BC
:104B9000009101F0EDFB10E0FFF77EFD00223846AA
:104BA000214600F009FFB068A84200D308E1FFF7F2
:104BB0005BFE00F0F5FE0028F0D1894801F030F9E5
:104BC0000028E9D0049AD01D4008A92800D3FDE0B0
:104BD00005981030834988548818009A4270481DFF
:104BE000019A921C92B2FFF71EFD05227D480099A2
:104BF000FFF72FFD0598C01CC1B20198C01D83B2FC
:104C00007748784A01F0C8FB40E00A28019A0499E5
:104C10000BD00B2822D17648784400F035FA35E0E5
:104C20007248784400F030FA30E020462530814266
:104C300000D9CBE00D4653203870BA70100A787056
:104C40000321384600F0A0FE6648294600F09CFE8D
:104C5000002030701DE0002800D1B4E00698C0B2FA
:104C6000FEF792FC002811D0ADE0FFF715FD002201
:104C70003846214600F0A0FEB068A84200D39FE06D
:104C8000FFF7F2FD00F08CFE0028F0D1307800280C
:104C9000EBD10020B071307070800799890600D583
:104CA00042E7FFF7F9FC07990806039D029806D52D
:104CB000089008AA4C4B1846114601DF0799002DB1
:104CC00004D1480677D40020B07130700020708085
:104CD00000F066FE002801D1FFF7DEFC0025384613
:104CE00021462A4600F068FE022806D8B9787A786C
:104CF00012025118C91C81423ED1FFF7B5FD7088E0
:104D000031780029E4D00028E2D03A4979440422DD
:104D10003448FFF7A7FC002830D0374979440422F3
:104D20003048FFF79FFC00282DD0344979440422F5
:104D30002C48FFF797FC002840D105982A30C0B2D4
:104D4000079000F0D7FD0799884227D10120254D13
:104D50002870A81C402100F0BFFD6870811C1D4A0E
:104D600013461140059A10326A54C11C19400022A2
:104D70006A54031D154618E00020A6E7FFF7A4FEBD
:104D80000346002511E0002016490A46487005999F
:104D9000084610301070069D0D4305E0692011494A
:104DA00008700598401D48700223E9B2069568070F
:104DB00000D1C3E6B3E67088401FB5E67088B3E65D
:104DC0001020FFF763FC0920FFF760FC0220FFF7CB
:104DD0005DFCC046FFFF0000841E00209C210020D7
:104DE000C421002048200020BE9A0060E3FBFFFFA2
:104DF000FDFBFFFFEC460000E1460000D646000048
:104E000070B5044600F0CCFD002801D1FFF744FC4A
:104E10004B2081000B4E002530462A4600F0CCFD89
:104E20003078152806D8012181400748014201D079
:104E3000002C05D1FFF718FD0125002800D10546FB
:104E4000284670BD841E00202070200010B5FFF79A
:104E500023FC084C4B2081000022204600F0ACFDD2
:104E600020780E2801D0FFF7FFFC00F099FD002804
:104E7000F0D110BD841E0020F0B581B00092044630
:104E8000454EB14210D00F46434D002140262846E2
:104E90003246FFF7DEFB009A402A00D3324628460E
:104EA0003946FFF7C0FB3C4EB07801280ADC0028E9
:104EB00025D0012860D1F01C042100F031FC4021F4
:104EC000304628E0022824D0052855D13079F178E1
:104ED00009020818314C21680027884252D1206805
:104EE00000281BD00098401F85B22D480168A942B8
:104EF00001D2006885B22B480068711D2EE0F01CBD
:104F0000002704223946FFF7A4FB40213046A04782
:104F100038E021484021A047002733E0B07971797B
:104F2000090209182048016001684908A82929D800
:104F300001681B48016071783278120251181B4ACF
:104F4000116018491A4A0A600099C91F8DB2016898
:104F5000A94201D2006885B2F11D15482A46FFF723
:104F600062FB0F480168491B01600E48016849193E
:104F700001602068401C2060094801680120022768
:104F8000002907D105480021016006480160044856
:104F90000160384601B0F0BD082200204822002000
:104FA00050220020542200204C22002058220020B1
:104FB00048200020034800210160034801600348A5
:104FC0000160704748220020542200205022002017
:104FD000F0B581B0264F3A68264C2168002921D0CF
:104FE000002A1FD00090264D002140222846FFF7BE
:104FF00030FB0520A87023480168090A2970006861
:1050000068701D490868000AE87008682871096816
:10501000206800290ED03B263B2800D82668396836
:10502000681D12E0144800210160396013480170C6
:1050300021601BE03926392800D826682068000A3C
:1050400068712068A8713968E81D3246FFF7EBFAED
:10505000009A09492068801B2060386880193860F0
:105060000868401C086006484021904701B0F0BD28
:105070005422002050220020482200209C210020A1
:10508000082200205822002080B500290BD0064AB3
:1050900000231360054A1160054A064B1360064A57
:1050A0001160FFF795FF80BD4822002050220020AC
:1050B00054220020482000204C22002081B0F0B56E
:1050C0008EB01393022900D2B8E10746002800D120
:1050D000B4E11546002A00D1B0E10C46384603F091
:1050E00087F913A809902978002900D1A6E1641E48
:1050F000002602E0A8194178761CC8B2002801D029
:105100002528F7D1A64200D32646384629463246FE
:1051100003F078F9A41BBF19002C00D18EE1A95D22
:10512000AD19252900D020E1069404976B1C0024BA
:1051300020200A21089127460594079403E0099945
:105140000A1D09920F681D46224629786D1C00240D
:105150002D29F9D0472919DC2F29069C27DD0B467C
:10516000303B0A2B00D303E13029044600D10C4622
:10517000079B002B00D004460A2307984343581886
:10518000303807902B4620461446DCE76729069CFA
:1051900004DD722921DD73293CD122E062293EDC45
:1051A00048294CD1014601200590084617E02529E1
:1051B00058D02A2926D02E2900D0D9E029782A29AA
:1051C00000D039E16A786B1C01242A21482AB6D024
:1051D000682AB4D0732AB2D019E0682937D11021D7
:1051E000089109990B1D0993032313400968012BAA
:1051F00000D1BFE0022B00D1BFE0032B2B461446A9
:10520000A1D0C0E02978022473292B4697D0049FAF
:10521000069CAAE0752927D078291BD0A8E063292D
:1052200000D197E0642900D0A2E002900998011D06
:1052300009910068C11742184A40C00F1AE0582966
:1052400000D095E0014601200590084602E0702953
:1052500000D08DE002900998011D0991026800209C
:10526000102708E0252079E002900998011D099196
:10527000026800200A27012497420892039012D85E
:10528000012638460446394602F030FFB04209D1C3
:10529000384660430799491E079108998842264677
:1052A000F0D900E034460798411E039B002B00D143
:1052B00001460026F043002B00D1184601900298C9
:1052C000C2B2302A06D1002B04D00AA82D230370C5
:1052D00000230126881E0D280BD80AA88019491E14
:1052E000039303F093F8039B0798801901994018E2
:1052F000461E059A002B03D00AA82D218155761C45
:10530000002C1AD0002A02D05248784401E05048BC
:10531000784407900898214602F0E8FE394602F0EA
:105320006BFF0798405C0AA988552046394602F071
:10533000DDFE761CA7420446ECD9069CA64200D3AB
:1053400026460AA9049F3846324603F05BF8A41BA0
:10535000BF1907E00998011D09910068049F387082
:10536000641E7F1C002C69D02978002966D0BFE616
:10537000049FF9E73E46049F0DE0087800283FD0DF
:10538000049F069CF0E700228B5C521C002BFBD193
:10539000561E049F069C0898102827D1002EE3D0A3
:1053A0000891002023460146089A125C0F20104005
:1053B0001209022B42D31C46059B002B04D0012B63
:1053C00008D1224B7B4401E01F4B7B44185C787072
:1053D000985C38702046A41E02282FD00846481C2E
:1053E000BF1CB0422346DED3079018E0A64200D38C
:1053F00026463846324603F005F8A41BBF190CE0D8
:10540000069CA74200D3274620220498394602F082
:10541000FDFFE41B0498C0190746002C0ED0079826
:10542000B042A1D9861BA64200D326462022384688
:10543000314602F0EBFF8AE7049F96E700200EB0AA
:10544000F0BC02BC01B008473D40000053400000E2
:10545000F74000000D41000080B50449884204D3A4
:105460000349884201D200F005F880BD0000D0C099
:10547000409BD0C07A460249C91C891A401A70471D
:105480007554D0C04101C9170C4A0A408101C9179F
:105490000B4B0B40C1018908594051400201D21702
:1054A000084B13404B40C100C917074A0A405A40F5
:1054B0008000C11705480840504070476D8E502647
:1054C000B2576A3BFA19A11EDD33423DB362142A7A
:1054D000F0B587B005930492064602910C78002738
:1054E0000120002C03971BD00298401C069001203D
:1054F00000272546019729464139EAB2202A5FD381
:10550000C9B21A295CD3FFF7BDFF01460698C25DF8
:10551000E0200540680948407F1C002A1546EAD172
:105520000599C919C91D5A2903994CD8FFF7AAFF33
:10553000002C0ED002994D1CFFF7A4FF01463470D9
:105540001F2020404840691C761C2C78002C0D46FA
:10555000F2D131213170711C06910599002914D0C6
:1055600000241A4E7E44039404990F5D1F2F29D8FE
:10557000F55DFFF787FF06990D557840641C059986
:105580008C42F1D30699091906910624FFF77AFF98
:10559000641EFBD10121484019220D497944069B24
:1055A0000446D4401F2525404C5D1C70541F5B1CD5
:1055B000002A2246F4D1002006998871012102E0D8
:1055C000019900E00399084607B0F0BD8033000060
:1055D00048330000F0B595B0054600200390102A2E
:1055E0001FDC0C461A99002A03D08E1E262E04D9E1
:1055F00017E0142901D0202913D104AE3270012004
:105600006A46082782C21060701C03A9052200F0B8
:105610000AF80398431C0393284621463246FFF7B5
:1056200057FF15B0F0BDF0B586B003930F46059057
:105630000024E3439340DD430D9800900C980190C3
:105640000B990029264627D0504204900026344664
:105650000198361823468340039804781C43401C65
:105660000390491E0291964213DB3B6829465D1C5C
:105670003D600498851910463A462746EC400D4691
:1056800005992C40CC543C4617460246361A8642B1
:10569000EBDA02990029DBD1009800280DD0002E0A
:1056A00014D03B6839462F4625465C1C0C60911B84
:1056B0008D403D400598C55408E0911B8C402C401E
:1056C00000210198864202DA002C00D1012108460F
:1056D00006B0F0BD01DF704780B584B0019003488B
:1056E00001A9FFF7F7FF04B080BDC0463701006095
:1056F00080B582B002486946FFF7ECFF02B080BD7A
:105700003C02006080B586B001900291039203488C
:1057100001A9FFF7DFFF06B080BDC0467F03006030
:1057200080B584B00090019103486946FFF7D2FF2D
:10573000019804B080BDC0462C05006080B588B0DB
:1057400000900191029203930A9804900B9805909F
:1057500003486946FFF7BEFF019808B080BDC04608
:105760003B07006080B584B00190034801A9FFF7B2
:10577000B1FF029804B080BD7F08006080B584B09E
:105780000190034801A9FFF7A5FF029804B080BD6E
:10579000DB0A006080B588B000900191029203930B
:1057A0000A9804900B98059003486946FFF792FF0A
:1057B000019808B080BDC0466614006080B588B00E
:1057C00000900191029203930A9804900B9805901F
:1057D00003486946FFF77EFF019808B080BDC046C8
:1057E0002B1A006080B586B000900191029203935D
:1057F00003486946FFF76EFF019806B080BDC046BA
:10580000EA2E006080B586B0009001910292039369
:1058100003486946FFF75EFF019806B080BDC046A9
:105820002E2F006080B58AB0009001910292039300
:105830000C9804900D9805900E9806900F9807907C
:1058400003486946FFF746FF01980AB080BDC0468D
:10585000F338006080B58AB00190029103920493FE
:105860000C9805900D9806900E980790034801A992
:10587000FFF730FF02980AB080BDC046F1390060E2
:1058800080B586B0019002910392044801A9FFF708
:1058900021FF029880B206B080BDC0466E920060C3
:1058A00080B582B003486946FFF714FF0198C0B283
:1058B00002B080BD4F9F006080B588B0019002911A
:1058C000039204930A980590024801A9FFF702FF8A
:1058D00008B080BDBA53006080B584B000900191DB
:1058E00003486946FFF7F6FE019804B080BDC04644
:1058F000FCA8006080B582B003486946FFF7EAFE65
:105900000198C0B202B080BD3CA0006080B584B0F8
:105910000190034801A9FFF7DDFE029804B080BDA5
:105920005864006080B584B00190034801A9FFF776
:10593000D1FE04B080BDC0464569006080B582B02C
:1059400003486946FFF7C6FE019802B080BDC04615
:105950006E6A006080B586B00190029103920348A0
:1059600001A9FFF7B7FE029806B080BDD4740060AD
:1059700080B584B00190034801A9FFF7ABFE04B0E5
:1059800080BDC046BE9A006080B584B00090019191
:1059900002486946FFF79EFE04B080BD8183006027
:1059A00080B582B003486946FFF794FE019802B0C3
:1059B00080BDC046BB84006080B586B00190029176
:1059C0000392044801A9FFF785FE029880B206B051
:1059D00080BDC046E485006080B582B0034869465A
:1059E000FFF778FE019802B080BDC046B187006025
:1059F00080B584B00190034801A9FFF76BFE0298BF
:105A000004B080BD7588006080B584B00190044802
:105A100001A9FFF75FFE0298C0B204B080BDC04686
:105A20008B9C0060F0B583B0354A1278002A03D011
:105A30008321354A7A440BE0089A452A03D883210A
:105A4000324A7A4404E0072907D18321304A7A4454
:105A5000022300F0A1FC03B0F0BD009201904020B1
:105A600002931E5C002E1AD0052E029D08D12846F6
:105A70004130284979440522FEF7F4FD00282BD057
:105A800041350024244F7F44E0B2032102F0B4FBEF
:105A9000285D795C41402955641CA642F4D145201B
:105AA0000299085C4630009A90420FD14131154866
:105AB0003246FEF7B8FD0720114988714E80092053
:105AC00008700121019800F053FCC4E78321134AB8
:105AD0007A4402230198BCE70A4D03222A70681C0D
