:02000004C0DE5C
:1000000010B5044662B607F0ABFE5CB12068B0F5EF
:10001000807F04D16068012809D1A06818B907F071
:1000200003F802E0002007F01DF8002010BD204674
:1000300007F0CAF8052A14D30B79053A9A4210D171
:100040000A7802704A7842708A788270CA78C270E0
:100050000A7902710A79002A18BF4A1D82600120BC
:1000600070470020704700002DE9F04D8EB0044627
:1000700000780D910B9200F07F08B8F1050F0CD1BC
:1000800000204FF0000B4FF0000A099000200C9068
:100090000020089000200A90A6E0208B1D461646FE
:1000A00000F050FAD8B190F806A00D98B4F808B056
:1000B00090B18EB1E188208B0D9AF3B20095643136
:1000C00089B200F061FA0746E088052E28BF874212
:1000D00010D8334600265AE00023002605E000230E
:1000E00000264FF0000B4FF0000A0020089000207F
:1000F0000A9077E0208BCDE907ABCDF824800095FE
:1001000064210323AD4A7A4400F03EFA0D990C9025
:10011000E088002273080A9201EB560C8A46A1EB94
:100120000C0101EB060B66466BB381B28F422AD9F4
:10013000BBF1000F27D0208B9846DBB252460095CA
:1001400000F022FA0746E188208B5FFA8BF33246F3
:10015000009500F019FA0C99434639440F18E088CD
:100160008742E1D90A99012903D0324619B9013BE6
:1001700001E0013632460126944626EA01010B9E33
:100180000A915146CAE7DDF82480DDE907AB218BEF
:1001900001F44042B2F5004F05D0B2F5804F0CD1CA
:1001A00080B2C01B06E06FF0010280B297FBF2F252
:1001B00002EB500020EAE07000E000200A9001F419
:1001C0004050B0F5005F07D0B0F5805F12BF00204F
:1001D0002089A0EB0A0004E020896FEA5A0101EBB4
:1001E0005000089009930C962789E38879085808ED
:1001F0000A46B0EB570F38BF5A08E67AB242354686
:1002000003D888422CBF0D460546A8F101000428FA
:100210002CD2B8F1020F18BFB8F1070F2ED1B8F1E8
:10022000070F08BF5F46606900F095FC0097B8F1C2
:10023000070F08BFA2EB0A020CF094F80D980028F3
:1002400000F07581B8F1040F00F071810B9800285F
:1002500000F06D8148F00201D4E904B0D4460329CE
:1002600032D1217B01292FD182462FE0B8F1060F30
:1002700000F08A80B8F1070FCBD058E1B8F1040F35
:1002800008BF002E00F04D81207B012840F09880AF
:10029000B4F902102069B4F904200097A3EB4503D8
:1002A000A54E29447E44B04700F043FC20690092EB
:1002B000EA182B46B04700F033FC20692A4400912D
:1002C000791B19442B46CEE0DA468346B8F107077E
:1002D000208BB4F902E0B4F90420E3882689089958
:1002E00018BF0F460A9DF61B5B1BB8F1070F08BF2E
:1002F000CCF100010A4488468DE84C000D9A00219B
:1003000005EB0E03059151460392099A04925A4651
:1003100000F04EF90C99002900F00981884AB4F9DF
:100320000430E6880A9D2189B4F818C04FF0030E06
:10033000761B4344C91B7A44CDE9003602ABA3E8DF
:10034000064000215A46059183B26046514600F0AE
:100350002FF90B9E0D99B4F90420E388B4F818C066
:1003600024890E440C995B1B4244E41B8DE81C005D
:1003700083B260465A46761ACDE9031600210591EC
:10038000514600F015F9D2E0B4F90410B4F90200B6
:10039000237B8A1981192069012B04D0A37A9E42FC
:1003A00001D9F31A00E000236469FF25CDE9005369
:1003B0003346029400F0F8F9B9E000BFA6EB000064
:1003C000B4F902106069B4F904200097A3EB450367
:1003D000584E29447E44B04700F0ABFB6069009260
:1003E000EA182B46B04700F09BFB60692A44009155
:1003F000E943394419442B46B047E388B4F9021065
:100400002069B4F90420A77A2944A3EB4503009797
:10041000B047B4F808C0B4F90470A27AE388B4F91C
:1004200002102069009207EB0C022944A3EB45035C
:10043000013AB0472089B4F90470A37AB4F90210E4
:10044000A0EB450220690092EA19B0472089E788AD
:1004500000F081FBA37A3944A0EB450C20692A44C3
:10046000CDF800C00139B047022DFFF4E7AE207B84
:100470004FF0000BCDF81CA0012803D0A07A281A59
:1004800028BF8346D4E90401C027B4F90220B4F997
:100490000430CDE9007B0291A918EA182B46274EBB
:1004A0007E44B047D4E90401B4F806C0B4F9023080
:1004B000A27AB246B4F904603027CDE9007B0291FC
:1004C000A91803EB0C022B46511AAA19D047D4E9FC
:1004D00004012289B4F90460A77AB4F902C00C239C
:1004E000CDE9003B2B460291E9193244521A05EB43
:1004F0000C01D047A27AE388B4F90260B4F9047021
:100500000321D4E9040EB4F808C08DE80248F118BC
:100510002A442B46891ABA1A6244D047DDF81CA037
:100520008CE600F018FB206900970BF01BFF0EB063
:10053000BDE8F08D8DBF0000BDC0000005030000C8
:1005400076E90000F8B504460D480E4E6FF31F34EF
:1005500078447E44006880B1471E06EB800050F866
:10056000045C284608F076FB0068A0423846F2D1C9
:100570002846BDE8F84008F06DBB0020F8BD00BF7C
:10058000A0FB000092FB0000B0B586B0002443F24F
:100590003905CDE90051CDE90242CDE9043400210D
:1005A000002243F2390300F003F880B206B0B0BD78
:1005B0002DE9F04DA0B0289DCDE9102143F239017D
:1005C0001646984685EA0102594051EA0204274638
:1005D00014BF1F462546FFF7B5FF002800F0D48062
:1005E000DDE929218246B4FA84F00696AC46CDF8BE
:1005F00020804FEA501EDDE92B60BB1829449AF891
:10060000042007910121CDE90B3E91400A92099106
:100610000136C0F1010BCDF838C0B846BBF1010F6F
:1006200000F0B5809AF80510BAF8080016F8014CE9
:100630000F9184425B4F7F4403D3BAF80A10A14262
:100640000DD2C02C03D304F03F04002505E060B2B6
:10065000B0F1FF3F2EDD0025002400201CE0251A0C
:10066000DAF81000B8470446DAF80C00B84700EB97
:100670008500CDF834B0408804EB000BDAF80C00AC
:10068000B84710F825405846DDE90B3EDDF838C084
:10069000DDF834B09AF80750624608EB0407BEF163
:1006A000000F36D001360BF1010B002BB5D09F4265
:1006B000B3D973E0A0064FF00F0058BF0E20FFF72C
:1006C00041FFE8B105460069B8470F90E868B847B0
:1006D00004F01F040F9900EB8400408808440D903B
:1006E000E868B847697910F824409AF80600DDF800
:1006F00038C00F91A97960440025421A0D9805E091
:10070000DDF838C00025002400206246DDE90B3EFC
:10071000C3E79F420BDD0F9F07990246BC440CEBD9
:100720000700884208991046624602DD32E00F9FBA
:100730004146C8B188460A99099B864607FB01F0E5
:10074000009310ABCDF838C06043CDE901311146BC
:1007500022463B46CDE903E040460BF0EBFDDDE9E8
:100760000B3EDDF838C009E006982346009788461E
:1007700067460BF0F7FDDDE90B3EBC466119CBF196
:10078000000001EB080743E74FF0000806E0BEF168
:10079000000F03D11FFA88F040EA0C48404620B011
:1007A000BDE8F08D1B8600002DE9F04D96B00746A0
:1007B0001F980C4600211492C3F1010B4FF0000A60
:1007C00015910021A3EB0008C21AB8F1000FC8BFB1
:1007D0000121002818BF012013940697CDF83C8012
:1007E000084001251290501C0290C8F101000390AE
:1007F000A8F101000590A4EB08001C46013004900C
:100800001E9800F080010A9100F040010E9100F066
:100810002001099100F010010D9100F008010891EC
:1008200000F004010C9100F0020100F001000B90B7
:1008300003200791119010949A4500F331810B9891
:100840001C4620B90798A8B3129898B92AE01298C4
:10085000F0B1149800953D46139F00EB0A060598E9
:1008600039463246231A20980BF07CFD00F044F9FB
:100870000798F8B1149826181098A04205D002984D
:1008800013993246009500F043F900F069F90FE042
:1008900014981399234600955044421E00F03DF9E8
:1008A000079838B114981399534600952044421E76
:1008B00000F033F90C9828B9089800284FD0129806
:1008C000E0B92EE01398061B129800B31498059F08
:1008D0000095314600EB0A052098E31B2A460BF0F1
:1008E00041FD0120DDF83C80F11B2A46069F0125D1
:1008F0000090069800F025F9089880B31098A0425F
:1009000016D11498159D4FF0010826181CE0149874
:100910003146234600955044421E00F0FEF80898E8
:10092000E8B100F011F92044421E00F0F6F816E09C
:100930000095159D13984FF0010841191498261839
:100940000298324600F0E4F8CDF800800498DDF813
:100950003C8032464119384600F0F3F801250D98E5
:1009600020B9099898B3129898B929E0DDE91401E3
:1009700046181298D8B1059800953D46139F324607
:10098000231A209839460BF0EDFC00F0B5F80998D1
:10099000E8B11498061B1098A04205D0029813994C
:1009A0003246009500F0B4F800F0DAF80DE0139943
:1009B00038463246234600950BF0D4FC099830B1F6
:1009C0001498139953460095021B00F0A6F80E9850
:1009D00028B90A9800284FD01298E8B930E0DDE92C
:1009E000140100EB01081398061B1298E8B1059F4B
:1009F0002098314642460095E31B0BF0B3FCF11BF7
:100A00004246DDF83C80069F0120012500903846D3
:100A100000F097F80A9878B31098B846A04215D11C
:100A20001498159D0127061B1BE0069F3146424680
:100A30002346009500F071F80A98DDF83C80D8B1A3
:100A400000F082F8021B00F068F815E00095159D93
:100A50001398012741191498061B0298324600F09A
:100A600057F8049800974746324641194046DDF84A
:100A70003C8000F066F80125601E0AF1010A034679
:100A8000BBF1010FBCBF234600201199ABEB400026
:100A900001EB000B15980231119101381590CAE64F
:100AA00016B0BDE8F08D2DE9F04D86B08D68022DB1
:100AB0001FD8B0F902A0B0F904B00868D1F80480DA
:100AC0000E460590C86808F0C5F804463069B76856
:100AD00008F0C0F80ECE5943434651430122AA40C4
:100AE000CDE90301504659468DE89400059A0BF074
:100AF00021FC06B0BDE8F08D012003993246434643
:100B00000090E0192F460125014438460BF02ABC1D
:100B100000EB0A0320980BF025BC38460BF022BCF2
:100B20002089B4F90270B4F90420E388A0EB4501F0
:100B300070472089B4F90430B4F90210A0EB4502E3
:100B4000704743460BF00EBC159813995346009519
:100B5000014414987047B4F90210B4F904207047A6
:100B6000049800953246434600EB0A0170470000A6
:100B70002DE9F04DD4B02BAC0E460546A421984685
:100B8000174620460DF0DAFE0DF1080BA421584659
:100B90000DF0D4FEA42E01D8022E05D24FF0FF3462
:100BA000204654B0BDE8F08D2046294632460DF06F
:100BB000C8FE2B4900207944C2B2B2420BD2AB5CD2
:100BC000312BEBD37A2BE9D8313B0130CB5CFF2BB7
:100BD000A354F1D1E2E74FF0000E5FFA8EFCB4456A
:100BE00005D214F80C0010B90EF1010EF5E73A2306
:100BF000B246CDE900785FFA8EF5B5421ED20027E5
:100C00007146C8B2B04208D214F80080013107FB27
:100C100003873A0AFFB22254F3E7AAF1010A5FFA06
:100C20008AF00BF80070605D002808BF0EF1010E1D
:100C3000E1E71BF800100AF1010A19B95FFA8AF01E
:100C4000B042F6D3ACEB00018C1901998C42A5DCC3
:100C500058442246A0EB0C0100980DF072FE9FE76D
:100C60003EF500002DE9F04DACB0019202AE8B468E
:100C70008046A6211C4630460DF060FEBBF1780F81
:100C800040D8A4464FF0000AD34505D018F80A0012
:100C900018B90AF1010AF7E7DA46ABEB0A008A2134
:100CA00048436421B0FBF1FE3A2051467246594553
:100CB00017D218F80140531E7246002A0DD4B75CB3
:100CC0009A4204EB0727B7FBF0F404FB1075B55408
:100CD00098BF3A2F03D3013AEFE74FF0FF320131CB
:100CE000E5E7019D0EF101040020844204D0315C4F
:100CF00009B90130F9E704460AEB0E00001B013088
:100D0000604505D94FF0FF3A50462CB0BDE8F08D54
:100D100028465146312277460DF017FE06483A46DE
:100D200078449442F0D8315D0134415C05F80A10F2
:100D30000AF1010AF5E700BF1EF400002DE9F845AD
:100D4000062B84BF0020BDE8F8851C4690468A46E5
:100D5000074600250026A6420AD2554508D838463F
:100D6000294608F050FD48F8050001360435F2E741
:100D70000020A64228BF0120BDE8F8852DE9FF4DDF
:100D80000629CDE9022061D8002B5FD00C4611B9AD
:100D9000029900200870601E4FF0000B4FF0000811
:100DA00000902D48784401901FFA88FAA24551D24C
:100DB0000298A3EB0B06019A1F46314600EB0B0588
:100DC000039850F82A0020F00043284607F0D2FC90
:100DD00028460DF01BFEA8B3B04233D283440398DB
:100DE0003B4650F82A00B0F1FF3F12DC02981B4A44
:100DF000A3EB0B06314600EB0B057A44284607F0BF
:100E0000B9FC28460DF002FEE0B1B0421AD283448C
:100E10003B460098504512D00298114AA3EB0B06AE
:100E2000314600EB0B057A44284607F0A3FC284620
:100E30000DF0ECFD30B1B04204D283443B4608F1E2
:100E40000108B1E7029839460DF078FD002004B0A2
:100E5000BDE8F08D0120FAE7DADC0000F6DD0000E5
:100E600095DC0000B0B502290AD3032908D804682C
:100E700082F00042944203D14268B2F1FF3F01DDAB
:100E80000020B0BD049C3CB1002CF9D020CB013C2B
:100E900085F00045AA42F7D1022904BF0120B0BD68
:100EA0008168034A00209142B8BF0120B0BD00BF55
:100EB000650000801CB505290FD104460498032164
:100EC00000902046FFF7CEFF38B1E068012804D833
:100ED0000599022903D2884203D000201CBD481C7A
:100EE000FBD121694CF251320020914238BF0120E0
:100EF0001CBD012804BF2C207047042804BF5620C5
:100F00007047032804BF31207047022814BF4FF0F8
:100F1000FF3054207047F8B53AB1044608780A28E3
:100F200003D883000133934201D90020F8BD26463F
:100F30004D1C002706F8040B874224BF0120F8BD92
:100F40002846002108F05FFC46F827002078043589
:100F50000137F1E770B5AEB00446002002220090E0
:100F6000212019491EAD2B4679440BF03FF914AEF0
:100F7000212029462022334603F006FF01AD21201F
:100F800032460123294603F0FBFEB8B905F10800FB
:100F90001EAD4121402340262A4603F011FF084898
:100FA00029464022484406F0FBFE06484FF4104113
:100FB0004844A0F8BE1226802EB070BD06F0D3FEC5
:100FC000EC0E00001005000010F200002DE9F041C9
:100FD0008CB06C4D00216C4609EB050080F8BC120A
:100FE000A0F8BA1220460DF0FBFC81B2ADF82C003F
:100FF000A1B1052900F0C080064600F0D3F862498F
:101000006F20022309F80100494409EB05004E70E6
:101010000121A0F8BA3202F0C9F97DE068460BF070
:101020006BF9DFF864810A9019F80810B0290CD127
:10103000484609EB08004078042806D109EB050072
:1010400000F2BA20FFF786FF27E039F805004F4687
:1010500002F0B1F919F8050018B1484646F6AA7130
:1010600017E0484619F8081009EB08004278494B88
:10107000494F00207B447F440D2807D01E5CB142BD
:1010800002D13E5CB24254D00130F5E748464FF4FD
:10109000DA4109EB0500A0F8BE123C484946484435
:1010A00090F8510088B1484609EB050090F8BC1251
:1010B00001F0EF02B0F8BE1280F8BC221046B1F584
:1010C000104F0ED19022002113E0484609EB050095
:1010D00090F8BC12B0F8BE02C3B2020A0846194624
:1010E00007E02B4A4B4601234A4482F85D300A0A46
:1010F000C9B2034648464D4409EB0806B5F8BA02A2
:101100003254321802305170D906A5F8BA0203D40D
:1011100081B2202007F070F80BF0E6F8A04202D16F
:101120000A980BF0E9F8BDF82C0018BB0CB0BDE82C
:10113000F0811A497944095C79B1494609EB080103
:10114000097931B1494609EB0501B1F8B812052911
:1011500003D148464FF4CE419BE71149794451F8F9
:10116000200007F077FD8047494609EB0501A1F80B
:10117000BE0292E706F0F7FD00F014F8052006F035
:10118000F2FD00BF10050000EC0E0000681000002A
:10119000000000008DF1000098F10000E7F0000071
:1011A000CCF000000020ADF82C000A980BF0A4B899
:1011B0002DE9F845324C7C44204607F04BFD8088F1
:1011C00002F0F9F8204607F045FD8088C0B2FF28FC
:1011D0004CD02C48784407F03DFD8088000645D06F
:1011E000DFF89080244B59F8080009EB03060189C9
:1011F00000F111040A0A7170C18909F80320027C08
:101200002046F170090A3271B1701F4F7F44B84710
:1012100070712046B8470246B01D214606F0C0FD59
:1012200059F8085005F11100B8472F35044600F170
:10123000060A2846B8475FFA8AF107347054E0B2CC
:1012400006442846B84702463046294606F0A8FD1F
:1012500059F808002F30B84708492044C0B2494423
:10126000A1F8BA024FF41040BDE8F88546F68510A3
:10127000BDE8F885D8080000EC0E0000100500005D
:10128000460A0100280A0100FDD7000080B5134876
:10129000784407F0DFFC80790E49042200F0010059
:1012A00080F01B0009F8010009EB010001214171E8
:1012B000817030210271C270082241700649494490
:1012C000A1F8BA22002181710321C1714FF41040AD
:1012D00080BD00BFEC0E0000100500006C0901008D
:1012E00010B51A4C7C44204607F0B4FC808802F00C
:1012F00062F8204607F0AEFC8088C0B2FF280ED00E
:101300001348784407F0A6FC8088000607D00D4CEF
:1013100009EB0400807828B14FF4D64010BD46F6A2
:10132000851010BD0B48784407F094FC808801219B
:1013300009F8040004484844A0F8BA124FF41040D9
:1013400010BD00BFEC0E00001005000018090100E0
:10135000FA080100D608010010B50B4809EB00019E
:101360000C79002C08BFF824F82C84BF4FF4CE4031
:1013700010BD4844214603F03FFD04484844A0F80E
:10138000BA424FF4104010BDEC0E000010050000F2
:101390002DE9FC41564D09EB05000679564C7C447D
:1013A000204607F057FC808802F005F8204607F039
:1013B00051FC8088C1B246F68510042900F2908065
:1013C000012202FA01F111F0160F00F0898009EBF9
:1013D00005008078802819D0E8B909EB05000121C3
:1013E000002201240027053001F03BFE4149494419
:1013F000C1F8B402042081F8B0720F7581F8B67399
:1014000081F8A47281F89441CF7700E0002009EBC5
:101410000501C97819B14FF4D640BDE8FC81354CBF
:10142000311A09EB040787F8A81209EB05010844F3
:101430000530C7F8AC02012002F084F8387D082896
:101440004CD109EB04000021017590F8B00200288E
:1014500048D009EB05004FF02008012100220023AD
:1014600000263030CDE9000809EB0400283003F0F5
:101470009BFCD8BB09EB040707F1280003F090FCA4
:1014800009EB05040821204603F0B6FC3220221D9A
:1014900020212023667009F8050004F13005284654
:1014A00003F08AFCD7F8B41204F1240001F0F6FD31
:1014B00004F1280007F11501082206F071FC0F481D
:1014C000784407F0C7FB0830202122463023CDE9BD
:1014D000005803F079FC3820A7F8BA024FF4104006
:1014E000BDE8FC814FF4D540BDE8FC8106F03BFC33
:1014F000EC0E0000100500005E0801003C07010032
:10150000F0B59FB002AF1E4614460D46012100976C
:1015100015AB324601F010FE0DB1412504E007F194
:10152000080001F0ADFC212507F108012046412209
:1015300006F036FC28461FB0F0BD00002DE9F04D46
:1015400094B0B44CDFF8B8A27C4409EB0A0500F073
:10155000A2F9AE78877900F09EF9A97890F8290071
:101560004FF0000848B1022907D1A64848448079C5
:101570000738B0FA80F04FEA5018A748784407F0CF
:1015800069FB002590F82900012E0AD0B8F1000F60
:1015900007D130B19B48484480790738B0FA80F0D1
:1015A000450909EB0A00012E90F803B007D19648CF
:1015B000484490F8510010B14FF4D5408EE009EB4B
:1015C0000A008078022800F28780BBF1020F07D35F
:1015D00040F082808D4859F80000C06B00287BD015
:1015E00009EB0A00007900287BD0012E05D109EB18
:1015F0000A00053006F064FA0390B8F1000F0CD031
:1016000009EB0A000622417902EB81010022C9B2EE
:101610000844012101F025FD1390804C7C4400F02A
:101620003AF9808801F0C7FE00F035F98088C1B230
:1016300046F68510042951D8012202FA01F111F071
:10164000160F4BD00AF0F6FDAA284DD109EB0A047B
:1016500007F001000121671D0490384601F0EEFDFE
:101660000290412004F8010B0BAB04993846224646
:10167000FFF746FFC7B2ABF10100022837D21420B2
:101680008DF8170000208DF816000DF11600841C4F
:101690003846214600F0C6F85C48BBF1020F59F805
:1016A000000032D1C06B00283ED007F0D3FA0146CB
:1016B000142000222346009009EB0A00433008F072
:1016C00037FCC7B2049C012F2FD109EB0A0043302D
:1016D0000DF09CF9C7B228E04FF4D64014B0BDE835
:1016E000F08D4FF4CE40F9E746F68210F6E7474812
:1016F000002159F800000089CDE9000109EB0A0139
:10170000481C01F1430239460AE0C08916210090C5
:101710000020019009EB0A0000F143020DF11600D0
:10172000962301F0C3FCC7B2049C09EB0A0080F8C1
:1017300042701CB909EB0A000421417009EB0A0050
:101740000BA920223844433006F02AFB304C012EEE
:1017500007F1630109EB0400A0F8BA1231D0029836
:1017600078B3B8F1000F43D009EB040090F82400DF
:1017700040B109EB0400042200F1200113A806F097
:101780001BFBA8B34C440025042284F8245004F128
:10179000200013A906F00AFB139B214A09EB0A0655
:1017A000092106F1C8007A4406F0E4FF94F8BC026F
:1017B00086F8D05040F0100084F8BC0206F0B4F96E
:1017C0001BE0322F3FF6F8AE09EB0A053A4605F169
:1017D000C80005F1430106F0E3FA7819002180F80A
:1017E000C81000F04FF80398C0B206F07BF904E08F
:1017F0001DB100F047F806F09FF94FF410406DE777
:10180000EC0E0000F00F000068100000D808000087
:1018100010050000B406010080060100E00501008B
:1018200036D300000A46014602484844013002F01F
:101830009CBF00BFEC0E000010B5114B0F496FF0BC
:101840006F02002808BF692200284B444944B3F8BE
:10185000BA4218BFA01E84B20A554FF0000208BF5A
:101860006FF07A02441C0230A4B2A3F8BA020A55FF
:1018700081B22020BDE8104006F0BEBCEC0E000096
:101880001005000009EB040090F8BC1241F01001B3
:1018900080F8BC127047204607F0DCB9B0B50948A3
:1018A00000250021082209EB0004012084F8AC0384
:1018B00004F2AD30A4F89C5306F080FA84F8B553D6
:1018C000B0BD00BF100500002DE9F04D8CB0DFF871
:1018D0005082002109EB0800C0F8A81390F8AC036F
:1018E00002282ED0012840F0178109EB08010020C2
:1018F000C1F8A403B1F89C13002900F0F68009EBAD
:10190000080090F83803FD282AD24FF0010A09EBAD
:101910000801022281F8AC23C1E9E80009EB0804C0
:10192000B4F89C2304F54E7000EB0A01A2EB0A0206
:1019300006F036FAB4F89C03A0EB0A00A4F89C0366
:10194000D2E009EB0800B0F89C130929C0F0AF8081
:1019500009EB080090F84003FC2815D8092224E080
:10196000FE2800F0A280FD2840F0D6800329C0F0B8
:101970009E8009EB08004FF0030A90F8391390F8A5
:101980003A0341EA0020C2E7FD2840F0C5800B2958
:10199000C0F08D8009EB08040021002204F24130E0
:1019A00001F05FFBB4F89C130B2202EB000A8A459E
:1019B0007DD800208346082817D009EB080058443A
:1019C00090F838130BF101000029F3D009EB08055A
:1019D0000AAC082205F54E71204601F0A5FB05F280
:1019E000AD302246014601F0FDFC09EB080000F590
:1019F0005076304601F0FEFA0390304601F08EFA40
:101A00000746304601F0A2FA0290304601F0B1FAE2
:101A10000546304601F0C3FA0446304601F0CAFAE2
:101A2000019030465C2101F0EBFA30465C2101F078
:101A300007FB0298384328430443304601F03CFA40
:101A40002043039804D1BBF1080F65D3002863D06D
:101A500000283FD109EB080090F83403D0B3019877
:101A60000325384308BF042509EB080067B390F845
:101A7000A40278B3142009EB08060DF11204142215
:101A80008DF81300002006F548718DF81200A01C97
:101A900006F086F920461621224602F066FE7019ED
:101AA000214600F04FFBA8B936E0052901D20020FD
:101AB0001BE009EB08000021002200F2393001F0A0
:101AC000D0FA4FF0050A22E700F54871284400F0EB
:101AD00039FB68B109EB080090F8BC12C0F8A8A364
:101AE00041F0100180F8BC1201200CB0BDE8F08D6F
:101AF00009EB080090F8B50370B909EB0801012063
:101B0000D1F8A02381F8B503013ABAF1000FC1F86A
:101B1000A0237FF403AFE8E7012006F024F900BF1B
:101B20001005000080B58CB0009102AB01210022AD
:101B300001F002FB0CB080BDB0B594B001AD0C4615
:101B40002946FFF7EFFF0A48784407F083F88079C9
:101B5000C00705D105F1080001F092F9212100E04C
:101B6000412105F10800224602F0FFFD14B0B0BD8E
:101B7000B40001002DE9F04D96B0DFF8D083824625
:101B8000484609EB0800857804791DB1FF2D01D086
:101B9000802D13D1DFF8B8734846002609EB070003
:101BA00090F8A412A9B190F8370390B9484609EB10
:101BB00008004079FD2804D201260AE04FF4D640FF
:101BC000A9E10021FE2808BF0521FD2808BF032147
:101BD0000E460DF1080B58460CF002FFADF834002C
:101BE000000405D00020ADF834004FF4DE4072E16F
:101BF00002A80AF081FB0C9000F0A0FA007D0928F1
:101C000040F067814846FF2D09EB07004AD1407F2D
:101C1000002800F0458100F091FA90F83603002882
:101C200000F0578100245A225046214606F0C6F89B
:101C3000484609EB08004079002800F0318109EBA3
:101C400008000AF1250529224E46411D284606F0C6
:101C5000A7F809EB0706284606F54871FFF76CFF61
:101C60000121284686F8364386F8341301F0A2FA9B
:101C7000002800F01581B8484946484490F85100C2
:101C8000002840F0268109EB07010422284681F84C
:101C9000AC2391F8BC2242F0100281F8BC2205F07E
:101CA00053FFFDE090F8A60270B9A31B18D409EB0E
:101CB0000802002168463244C0E9001109EB070020
:101CC0002830053200F04AF9484609EB0700407F0A
:101CD000A0B300F033FAB0F89C030119642902D9CB
:101CE0004FF4D540F7E009EB070509EB0801224660
:101CF0002844053100F54E7006F052F8B5F89C0303
:101D00002044A5F89C0309EB0705FFF7DDFD95F8D6
:101D1000BC1201F0100208B1002AF4D000F00EFA53
:101D2000D0F8A003104309D14846032241F0100126
:101D300009EB070080F8AC2380F8BC12494609EB98
:101D4000070009EB080190F8A402897839B398B923
:101D5000202069460EAA234609EB0704C1E90020AA
:101D600009EB080104F594704A1D012100F0F6F812
:101D700094F8A40200285CD000F0E0F990F8A602E4
:101D800040B3202069460EAA6023C1E9002009EB78
:101D9000070101F5947001F5CC72012147E068B9A3
:101DA0000021684609EB08022346C0E9001109EB4F
:101DB0000700053200F5947000F0D0F84846002185
:101DC00009F8081009EB0700012180F83713A0F883
:101DD000BA1265E009EB070020256946002300F5EB
:101DE000EC7290F8B6432830C1E90025012100F0DB
:101DF000B5F884B909EB070606F12804204603F07C
:101E000003F8684606F5EC7201212B46C0E900256F
:101E1000204600F0A3F868460EA909EB080200234B
:101E2000C0E9001509EB0700012100F5947000F0EE
:101E300095F8484609EB0700407FB8B300F07EF9FB
:101E400090F8340320B900215A22504605F0B6FF1D
:101E500040484C4659F80000017A827A037B807B27
:101E60008AF801108AF804000AF14E0008218AF865
:101E700002208AF8033002F0BFFF002009EB0801BE
:101E8000487009F8080009EB07000221A0F8BA120F
:101E9000407FB8B10AF105000EA9202205F080FFAD
:101EA0000C980AF029FA4FF4104433E04846002118
:101EB00009EB080209F80810517009EB070002212C
:101EC000A0F8BA120AF105010EA8202201F0BBF811
:101ED00020B346F6851004460C980AF00DFA09EB7B
:101EE0000705002109EB0800B5F89C23A5F8BA12F4
:101EF000297505F54E7105F053FFB5F89C03A5F85B
:101F0000BA020AF0F1F9584502D10C980AF0F4F936
:101F1000FFF7C4FC204616B0BDE8F08D09EB0701C1
:101F2000484691F8A4220A204AB191F8A61231B984
:101F30004846012109EB070080F8A6120020494617
:101F40004FF4104409EB07010875DAE7EC0E0000C6
:101F500010050000D8080000681000001CB50446F9
:101F60000598019004980090204602F01DFF20B9CA
:101F70002046BDE81C4002F013BF05F0F4FE00004F
:101F800070B5184D09EB050606F53170FFF7F2FD47
:101F9000044696F8BC02C00621D509EB050090F86E
:101FA000AC03042804D0032808D105F061FD07E044
:101FB00009EB0500012180F8AC1310E005F028FDC5
:101FC00068B909EB050000214FF4D544A0F8BA1216
:101FD000017590F8BC1201F0EF0180F8BC122046A8
:101FE00070BD00BF10050000B0B5002851D0514CA5
:101FF00009EB0401D1F8A00391F8AC13022902BF48
:1020000009EB04010138C1F8A00328B309EB04056A
:10201000D5F8A823B5F89C3305F54E7081189A1AA7
:1020200005F0BEFEB5F8A803B5F89C13081AA5F88C
:102030009C0395F8BC0200F0EF0085F8BC0209EBA8
:102040000405FFF741FC95F8BC1201F0100108B13E
:102050000029F4D0002961D14FF4104009EB0402AB
:1020600092F8AC1302291DD1D2F8A023D2B909EB02
:102070000400032180F8AC1305F0FAFC002850D1CD
:1020800009EB04000022002180F8AC234FF4D54076
:102090001DE028480022484490F8AC13027546F62B
:1020A00085101CE0032915D109EB040300210A2245
:1020B00093F8A452597703214DB193F8A63233B95E
:1020C00009EB0401012281F8A6220321002209EB79
:1020D00004031A7509EB0402B2F8BA22023A164B4D
:1020E00094B2050A4B441D55541C0232A4B2B0F5FB
:1020F000104F18550F4B09EB0304A4F8BA2201D175
:10210000032905D109EB0304FFF7C8FBB4F8BA2291
:1021100091B2202006F070F80020B0BD05F078FCE8
:1021200008B10120B0BD09EB0400002101754FF496
:10213000D54093E710050000EC0E0000484609EB7F
:1021400007007047142200F5507005F035BE0000FE
:102150002DE9F8455A4D09EB050006795B4C7C44A6
:10216000204606F077FD808801F025F9204606F02C
:1021700071FD8088C1B246F68510042900F29D8069
:10218000012202FA01F111F0160F00F0968009EB1E
:1021900005008078802808D000286FD149490322A3
:1021A000494481F8942100220A7509EB0501C97898
:1021B000052935D8012933D0A0BBDFF80881881E56
:1021C00000274FF0000A042838BF012709EB080058
:1021D000407F38B90AF02EF8AA281CBF46F68210B4
:1021E000BDE8F88509EB08044FF00108002118222A
:1021F00004F5487084F81D80A4F8B6A384F8A5A25D
:1022000084F8A472A4F81EA084F8A6A205F0D6FD56
:1022100009EB050084F8368384F8A7A2807801E0F2
:1022200080292BD1274C09EB040191F8A422B2B3E9
:1022300091F8A71299BB802831D109EB05014879A3
:1022400002282CD8CA78802A29D009790A3931295C
:1022500025D8012809D109EB05008179382904D155
:10226000C179322901D1007AC8B11748484490F8A1
:10227000510038B146F68A20BDE8F8854FF4D640C3
:10228000BDE8F88509EB0400012180F8A71290F859
:10229000BC1241F0100180F8BC1205F079FC09EB8A
:1022A000050109EB0400053180F8A862C0F8AC1202
:1022B000022001F047F94FF41040BDE8F88500BF57
:1022C000EC0E000010050000681000009EFA0000EF
:1022D0002DE9F04190B07C4C7C44204606F0BAFCDD
:1022E000808801F068F8204606F0B4FC808846F645
:1022F0008515C0B204283DD8012101FA00F010F084
:10230000160F37D06B4D484609EB05008078022840
:1023100007D3494609EB0501C97811B14FF4D645F9
:1023200028E040B9484609EB05000079072802D2A9
:102330004FF4CE451EE003AC20460CF051FBADF847
:10234000380000041AD00020ADF838004FF4DE4009
:1023500005460D9809F0D0FF5748494600214844EA
:1023600001752846054609F0BFFFA04202D10D982D
:1023700009F0C2FFA8B210B0BDE8F08103A809F0CF
:10238000BBFF0D90484609EB0500807890B101280D
:10239000E8D109EB050200216D46C5E90011464D63
:1023A0001379053209EB0500283000F091F84FF45D
:1023B0001040D7E7DFF80081484609EB0800007DB0
:1023C0000A2808D1484609EB050040790A2805D9B2
:1023D0004FF4D540BCE746F68510B9E709EB050791
:1023E00009EB080629227D1D06F2E920294605F0A1
:1023F000D7FC787980000130295C2844084445786E
:1024000086F81C533148784406F024FC807929462C
:1024100040070ED42948494659F80000006C28B1FD
:10242000412DD5D100024130014602E0012DCFD12E
:1024300001210FAD284600F031FE0026684609EB69
:10244000080704232A46C0E9006607F12800314640
:1024500000F03EF807F2E920314600F0EFFE20B12F
:102460000120014600F046F80BE009EB080090F867
:10247000BC1241F0100180F8BC1200F2E92005F016
:1024800075FB0F484946484490F8510000283FF436
:102490008EAF0C48494609EB0001D1E90123013315
:1024A00093428B60FFF683AF49464844012180F890
:1024B0005D107CE7EC0E000010050000D80800005D
:1024C000681000000000000024F90000F6F700008A
:1024D0001CB504460598019004980090204602F02F
:1024E00063FC20B92046BDE81C4002F059BC05F051
:1024F0003AFC00002DE9F04DB0B08A46002844D0E7
:1025000031480DF198084FF0000B0021002243469E
:10251000CDF800B009EB000404F2E92000F00CFE55
:102520001EAE202504F12800012100233246CDE90A
:102530000065FFF7CDFF03AF384602F065FC384673
:10254000012132462023CDE90065FFF7C1FF204875
:10255000784406F07FFB80794FF482712022C0F32B
:102560004000CDE900101948314609EB000740460C
:102570003B4600F0EDFE797894F81C23C81C3944E2
:102580008A70A4F8BA02902108E00F484FF0850B3A
:1025900009EB00010020A1F8BA026921BAF1000F8D
:1025A0000ED10A4A4A441154074909EB0103811C20
:1025B000104480F801B02020A3F8BA1205F01CFEE8
:1025C00030B0BDE8F08D00BF10050000EC0E00003B
:1025D000ACF60000B0B5284D09EB050000790128E4
:1025E0001CBF4FF4CE40B0BD244C7C44204606F0C6
:1025F00031FB808800F0DFFE204606F02BFB808850
:10260000C0B2FF2835D01E48784406F023FB8088EE
:1026100000062ED009F00EFEAA281CBF46F6821036
:10262000B0BD09EB050044791648784406F012FB6A
:102630008088C0B2844219D04FF4D540082C17D8F6
:102640000121A14011F48B7F12D00F4D7D4428460B
:1026500006F000FB408800F0AEFE284606F0FAFACD
:102660004088204205D0204600F012FC4FF4104074
:10267000B0BD46F68510B0BDEC0E000012F60000AD
:10268000F4F50000D2F50000B0F500004FF4DA4098
:10269000704700002DE9F0418CB00AAD0021062200
:1026A000284605F08BFB9DF82C0001214FF0010816
:1026B00040F00A008DF82C00284600F077FEA81C98
:1026C000012100F073FE124C124E7C447E442046E1
:1026D000B047114F0230294606227F44B8470DF11A
:1026E00007052021284602F087FB2046B047083026
:1026F00029462022B84720468DF82780B047013070
:102700000DF127010122B8470CB0BDE8F08100BFF0
:1027100032F5000085650000D39A00002DE9F845E8
:10272000044600274BF21D184BF21E1A012514F81F
:10273000016BB7420CD220460121002200F091FC2F
:1027400080B2404507D0504504D001370434F0E74B
:10275000002500E002252846BDE8F8852DE9F04D6A
:1027600092B0D84E484609EB0600847844F08001C8
:1027700080292FD1C77805791CB9022F01D3802F6A
:1027800028D109F057FDAA2827D10DF1180B58467A
:102790000CF026F9ADF84400000423D000204FF4DB
:1027A000DE41ADF8440010980C4609F0A5FD214625
:1027B000C5480C4600215A22484400F059FA2046E8
:1027C000044609F091FD584502D1109809F094FD96
:1027D000204604E04FF4D64001E046F6821012B0E5
:1027E000BDE8F08D06A809F087FD1090CCB1B64C7D
:1027F00049464FF4D54109EB0402B2F81A33002BD5
:10280000D2D0B2F81E239A42CED109EB040000F2D6
:10281000E920FFF783FF002800F0A28000F06EF9A6
:10282000CEE7012F00F28E80DFF89C8200215A2231
:102830004C4609EB080000F01BFA09EB0600407952
:102840000B2880F0FB80A14A09EB080059F8022010
:10285000947A137A92F80CC0927B80F8C64209EB06
:10286000060480F8C82280F8C53280F8C7C200F29A
:10287000E9202922611D05F093FA6079062303EB14
:102880008002A15C47B14B4642F0010209EB06030E
:102890009A5C072342EA01210A4619464B4609EB96
:1028A0000803002AA3F81A2300F0C880800009EB6F
:1028B00008044FF0000A4F46013004F12808039441
:1028C000A4F81EA308440490404602F09DFA04F5C3
:1028D000947002F099FA7D4859F8000011300CF01C
:1028E00095F811300DF11702012351468DF81700AC
:1028F0006846C0E900AA4046754C7C44A04773482E
:1029000059F8000000F1110738460CF07FF8034633
:10291000684651463A46C0E900AA4046A047684684
:1029200011235146C0E900AA40466A4A7A44A047AA
:102930000398B0F81A030146FC2859D88DF81410F2
:1029400001235EE0604F494609EB0701B1F81E2301
:10295000B1F81A132A448A420ED94FF4D54123E71D
:10296000484609EB04004FF4104490F8BC1241F0C3
:10297000100180F8BC1228E709EB060109EB0708F3
:102980004FF0000A68462B4602954C464F1DC0E9A1
:1029900000AA08F1280051463A4600F09DF8684622
:1029A000029B51463A46C0E900AA08F5947000F02F
:1029B00093F8B8F81E03B8F81A1309F806A02844CB
:1029C000A8F81E0380B2884248463F491DBF09EB64
:1029D00001000121A0F8BA12494401BF0222A1F866
:1029E000BA2209EB060080F801A04FF41040E7E698
:1029F000FD22000A03238DF815108DF814208DF8A0
:102A00001600DFF8C4A000276846DDF81080C0E992
:102A1000007705AA394609EB0A0404F1280000F002
:102A20005BF8A5EB0801B4F81E030531CBB28DF8B5
:102A30001710B4F81A13184488420AD9109809F0EC
:102A40005BFC00214FF4D540002901463FF4B0AEB5
:102A5000B6E6684609EB0A0539464C46C0E90077F8
:102A600009EB0600804405F12800424600F034F8E6
:102A700068469DF8173039464246C0E9007705F5AB
:102A8000947000F029F8B5F81E039DF8171009F8A6
:102A900006700844B5F81A13A5F81E0380B28842E0
:102AA00006D14846002109EB06004170022000E0F3
:102AB0000120494609EB0A01A1F8BA0201214FF4AD
:102AC0001040C1E7EC0E000010050000D80800001F
:102AD000DB01000064D800001CB504460598019095
:102AE00004980090204602F05FF920B92046BDE826
:102AF0001C4002F055B905F036F900002DE9F04D03
:102B0000A0B03A4C00250DF1080A09EB0400A0F82A
:102B1000BA5250460BF064FFADF83400000407D001
:102B20000C98ADF8345009F0E7FB4FF4DE4546E071
:102B300002A809F0E1FB09EB04080C9018AF202172
:102B4000684601242B46CB4608F12806C0E90071EF
:102B500021463A463046FFF7BFFF304602F054F9AF
:102B60006846202321463A460760436030462026C7
:102B7000FFF7B2FF684629462A4605600EAC08F208
:102B8000E920234600F0D8FA1A48784406F062F8A3
:102B9000807969466422C0F34000C1E900201448EE
:102BA0003946324609EB00052046104C2B4600F012
:102BB000CFFB68784FF410450230A8F8BA0209F04C
:102BC00093FB504502D10C9809F096FB09EB0400E9
:102BD00000215A2200F04CF8BDF8340018B92846FC
:102BE00020B0BDE8F08D05F0BEF800BF1005000074
:102BF000EC0E000072F00000B0B50B48484490F8AD
:102C0000510010B146F682140BE0084809EB0005AC
:102C1000FFF7A4FD044695F8BC02C00648BF04F0C7
:102C200041FF2046B0BD00BF681000001005000045
:102C300010B518B1FFF762FF010A01E06921852094
:102C40000A4B094A4B444A44B3F8BA421155611C35
:102C500089B25054A01CA3F8BA0281B22020BDE86A
:102C6000104005F0C9BA00BFEC0E000010050000CE
:102C700000F5317005F0A2B84FF4DA4070472DE945
:102C8000F0458BB000230DF102010024152C03D078
:102C900021F814300134F9E74FF0130A4FF0000C1B
:102CA0004FF0010EBCF1080F40D010F80C80002747
:102CB000082F38D0C7F107045FFA8AF60EFA04F439
:102CC000354604EA0804142D08D831F81530042BD1
:102CD00088BF033321F815300135F4E731F8163099
:102CE000072B88BFAAF1010A5FFA8AF5132D0FD8C6
:102CF00001EB450631F815307688072E4FF00006B7
:102D000088BF012663F3430621F815600135EDE71E
:102D1000002C18BF0124BDF82A30013763F34304A7
:102D2000ADF82A40C4E70CF1010CBBE700230020FA
:102D300000240D2B0CD031F8135004B935B1C4B2B6
:102D400030350130155501240133F2E70024FBE74B
:102D5000030602D130201070012001F11A034FF058
:102D6000010E00260D254FF02E0C082E19D03446EA
:102D7000072C16D833F814700134002FF8D05FEA0E
:102D8000CE741EBFC4B202F804C00130C7B24FF007
:102D9000000E11F815400136013001353034D4559C
:102DA000E3E7C0B20BB0BDE8F0850000BCB52D482C
:102DB00000214FF47272002509EB0004204604F054
:102DC000FDFF2046002100F0F1FA01200021082239
:102DD000A4F89C5384F8AC032348484480F851502D
:102DE00004F2AD3004F0EAFF84F8B55384F8A7523A
:102DF0001E48784405F02EFF4078012818BFFFF7E1
:102E000049FC1B48784405F025FF407838B1194843
:102E1000784405F01FFF808800F0CDFA02E0FF2023
:102E200000F036F81448784405F014FF007800B13B
:102E3000BCBD01208DF807008DF806000F4C7C44C6
:102E4000204605F007FF29300DF10601012209F0A7
:102E5000AFF9204605F0FEFE0DF10701012209F051
:102E6000A7F9BCBD10050000681000000AEE0000C4
:102E7000F8ED0000ECED0000D6ED0000BEED000026
:102E800090F84010012262F35F010170704700006A
:102E90001CB50DF106040146204600F087FA0548EE
:102EA000784405F0D7FE04302146022209F080F96B
:102EB0001CBD00BF5CED000010B50446124859F877
:102EC0000000C06B68B1114920460322794404F028
:102ED00073FFB8B10E4920460322794404F06CFF19
:102EE00080B10C4920460422794404F065FF38B9CA
:102EF000094904F118000222794404F05DFF08B189
:102F0000002010BD012010BDD8080000BED2000076
:102F1000B3D2000098D200008CD2000010B509494D
:102F200003220446794404F047FF40B9064904F1FE
:102F3000170001220124794404F03EFF00B100246F
:102F4000204610BD62D2000053D200004178C6294D
:102F50000DD1817863290AD1C178762907D1017909
:102F6000A92904D14079142804BF0120704700200A
:102F70007047817D752910D1C17DC6290DD1017E93
:102F800063290AD1417E762907D1817EA92904D1FE
:102F9000C07E142804BF012070470020704741788C
:102FA0006A2904D18078C12804BF0120704700201D
:102FB0007047000010B504460B4859F80000C06B7C
:102FC00068B10A4920460322794404F0F5FE40B175
:102FD000074920460322794404F0EEFE08B10020A0
:102FE00010BD012010BD00BFD8080000C2D10000F4
:102FF000B7D1000040786A38B0FA80F040097047D5
:10300000C12200F000B870B514460E460546FFF721
:1030100053FF30B92846FFF781FF10B968786A2856
:1030200001D1002070BD29780020EA2998BFB14263
:1030300000D370BD685C001BB0FA80F0400970BD21
:10304000C222FFF7E0BFB0B5431E0139002032B104
:10305000541E9D5C8A5C6A4010432246F7E7C0B26A
:10306000B0BDF0B56FF0070400290CBF082418218B
:1030700000250023042D04BF1846F0BD465D002A3C
:10308000C9B2374618BF07F07F07002D18BF374673
:1030900007FA01F6214401353344EBE70A0E0170CB
:1030A000C2700A0C090A827041707047F0B589B08D
:1030B0000E9E1C46034601270F981546FF2E88BF1B
:1030C000022738B107F114020DF10200194604F08D
:1030D00067FE0FE00DF10200C219184601F045FB32
:1030E000B6F5807F31BF8DF802608DF80360300A3D
:1030F0008DF802000DF1020607F11401F01900F13C
:103100001402304601F060FB07F1180130462A46F0
:103110002346FDF7A7FDB0F1FF3FC2BF80B209B063
:10312000F0BD012004F01FFE013922B18B5C013A91
:1031300000F8013BF9E770472DE9F04D8CB090F8AD
:103140000080B8F10B0F31D29B4615468A46461CCB
:1031500002AC474637B1304600F024F901C4013FC4
:103160000436F7E705F078F9009502AD21204246D4
:1031700029462B4609F03AF82120294620225B46B1
:1031800001F002FEBAF1000F06D0149921205A4630
:10319000012301F0F5FD50B905F05EF902A8002108
:1031A000202204F00BFE0CB0BDE8F08D022004F0EC
:1031B000DAFD00002DE9F0418AB004780B2C36D2FC
:1031C0008846451C6F46264636B1284600F0EAF888
:1031D00001C7013E0435F7E7052C24D1009880F0A3
:1031E00000402C2818BF54281BD1124859F8000061
:1031F000818839B1019A82F000428A4202D0C088A7
:10320000824210D10C48029981420CDC039840455F
:1032100009D1049A4CF2503100208A4288BF012023
:1032200002E03128E1D001200AB0BDE8F08102209F
:1032300004F099FDD8080000640000802DE9F045F5
:103240008BB08A46194959F80180B8F80470F7B173
:103250000678022E1DD30B2E25D2451C01AC36B1AB
:10326000284600F09FF801C4013E0435F7E70198B5
:1032700080F000402C2818BF54280ED1029880F00E
:103280000040B84203D0B8F80610884208D14FF089
:10329000010A50460BB0BDE8F0853128EED0F8E7C2
:1032A0004FF0000AF5E7022004F05DFDD8080000A9
:1032B0002DE9FC4D154602780C460B2A1146019269
:1032C00040D22021461C4FF001084FF0000B217026
:1032D000A91E00911D48784482460198834527D253
:1032E000304600F05FF8074620F0004304EB08008A
:1032F000A5EB0801524605F03DFA204629460BF0A1
:10330000B4FB009AC1B2914219DAB7F1FF3F02DC77
:10331000272201306254C1B201302F2204360BF152
:10332000010B5FFA80F80020625404F80800D4E72B
:10333000A8F1010000212154C0B2BDE8FC8D072096
:1033400004F011FD022004F00EFD00BF0BB80000D8
:10335000F0B587B01C4615460E46074605F07CF8CA
:103360000C983346069005A806A9CDE90054CDE98E
:1033700002100D9840F20161002808BF40F201419F
:103380003846032201F0F4FC50B90598C00703D079
:10339000207840F00100207005F05EF807B0F0BD25
:1033A00004F0E1FC01210022FFF75BBECA4341EAC1
:1033B000022101807047C143C9B2B1EB102F18BF81
:1033C00008F0EDBE7047000080B50549494491F80A
:1033D000A812814228BF80BD012004F0C4FC00BFB8
:1033E0001005000070B5002407235D1C04BFE0B287
:1033F00070BDCE5CE4B2D55C34442C44C454FF2C84
:103400004FF0000488BF0124013BEEE7F0B5002433
:1034100007235D1C04BFE0B2F0BDD55CCE5C240682
:1034200002D0AE4202D9013E002401E0FF36012461
:10343000771BB6B2AE42C75438BF0124013BE8E760
:10344000BCB50E4D044609EB050090F89401C00789
:1034500005D000F0A7FD2830002100F011F809EB9D
:10346000050090F89401800706D500F09BFD00F55B
:103470009470002100F004F8BCBD00BF10050000EE
:103480001CB504460598019004980090204601F070
:103490008BFC20B92046BDE81C4001F081BC04F043
:1034A00062FC000010B50446FFF7CAFF0648484416
:1034B000D0F8AC122144C0F8AC1290F8A812091B45
:1034C00080F8A81210BD00BF1005000070B50120E3
:1034D000FFF77AFF1A4E09EB0600D0F8AC02057828
:1034E000FC2D01D8012423E0FE2D11D0FD2D23D188
:1034F0000120FFF7D7FF02200224FFF765FF09EB49
:103500000600D0F8AC020178407841EA00250FE0CF
:103510000120FFF7C7FF04200424FFF755FF09EB44
:10352000060000210022D0F8AC02FFF79AFD054604
:1035300000F050FD284670BD022004F014FC00BFCE
:10354000100500002DE9F04DB0B00646C94878449A
:1035500005F080FB857924A80BF042FA84B2ADF81F
:10356000BC00002C40F0E8840B9624A8C5F3C004EE
:10357000374608F0C1FE2E9020460DF1580B002C66
:103580000D94DFF8D4694FF0000A4FF0040818BF1B
:1035900001200BF1280108240BF104020BF10C03AC
:1035A00080F001000A91CDE90832079000F022FD79
:1035B000007DC0B203281BD0042829D0062835D1AD
:1035C00000F0E2FC00F0AA8400F020FD00F00FFD06
:1035D00000F0DAFC28D009EB060484F894A1FFF788
:1035E00075FF01212061072084F89411082416E05A
:1035F0000B98022800F0BF8000F0C6FC00F08E841B
:1036000000F0F1FC84F81480C4E9020A082403E005
:10361000484609EB06008068002853D10620494639
:1036200009EB06010875C4E70820F8E7A0F10801D6
:103630000329C0F0738407287CD0012800F096800D
:10364000022800F05583052861D00028AED109EB8F
:103650000605002122464FF0000A05F11500C5E9D4
:103660000211296104F0AAFB95F8B603002800F0C6
:10367000078100F090FC00F005817F495846102238
:10368000794404F08DFB48467C4909EB060090F82C
:10369000B60302280CD1DFF8C418484659F80100D7
:1036A000406C002804BF40F6BB10C7F2B86001466A
:1036B0000898FFF7F3FC09EB06005946283000F0A4
:1036C00055FCDFE000F060FC00F0288400F096FC80
:1036D0000B98012813D100F08DFCD0F8B412C0680B
:1036E00088420CD109EB06040822D4F8AC1204F18C
:1036F000150004F055FB012084F8B002082400F006
:1037000069FC00F070FC052120612175082400F09F
:103710003BFC00F00384494609EB0601096921B12D
:103720000446814238BF0C4617E000F063FC80F885
:10373000148056E3484609EB06000069002800F0B3
:103740005181494609EB060191F8A812002900F0C1
:10375000E5830C46884238BF0446E0B2FFF7A2FE7C
:1037600000F057FC091B082401611FE7484609EBDC
:1037700006008068D2E109EB0601484691F8A422D0
:103780001046002A57D091F8A612002953D109EB10
:10379000060069462022002590F8B6434A60C1F829
:1037A00000B000F5CC7001215A462B46FFF768FEA9
:1037B0000C9714BB09EB060404F5CC75284601F000
:1037C00023FB5F464FF0200B68460121C0E9007BD8
:1037D00028463A465B46FFF753FE68460EAA04F1B8
:1037E000280501215346C0E9002B2846FFF748FE73
:1037F000284601F009FB5D46BB462B460EAD6846E8
:10380000202709EB060401210560476004F1280028
:103810002A46FFF735FE04F5CC7059463A4604F0C7
:10382000BFFA3A4604F5DC7029460C9F04F0B8FA5A
:1038300094F8A4020824002800F0D88000F0ABFB24
:1038400000F0EB8000F0D6FB90F8B60360B9684654
:10385000002109EB060220234FF0000A00F0E5FBEF
:1038600002F5EC72FFF70CFE48460A2109EB060050
:1038700001759BE6AEE6000051CB0000191BA85B6A
:1038800000F0D8FB09EB060505F5947001F0BCFAD1
:1038900095F8A402002800F0FA804846002109EBC0
:1038A000060090F8A62290F8B65380F89411002AEA
:1038B00000F0A080684609EB060243460C9700F032
:1038C000B4FB02F52672FFF7DBFDDA4F002D4FF057
:1038D000000168467F4400F0AC8009EB0605002437
:1038E000C0E90011434605F1280B05F56E7221462B
:1038F0005846B84768464FF0200A05F5CC72214675
:10390000C0E9004458465346B847684605F5DC729E
:1039100000F063FB684605F5EC7200F05EFB68465C
:103920004FF0200AC0E90044002458465346C24ADA
:1039300021467A44B84795F8B603022814D1684660
:1039400021465346C0E9004409EB0600BB4F00F195
:10395000280528467F443A46FFF792FD68462146EF
:103960003A46534600F04DFB09EB060768462146F0
:10397000434607F12805C0E9004407F57072284660
:10398000FFF77EFD684607F56F722146434600F05B
:1039900038FB97F8B60300240DF1580B022810D11C
:1039A0000825584621462A4604F008FA684621466A
:1039B0005A462B46C0E9004409EB06002830FFF7C1
:1039C0005FFD684609EB060143464FF0000AC0E977
:1039D000004401F1280001F571722146FFF750FD06
:1039E0000C9F54E000F006FB0475DFE500F0E9FAF7
:1039F00017D1DBE54FF0000A002D42D0904909EBCA
:103A0000060505F5CC70794400F0B0FA8D4905F152
:103A10002800794400F0AAFA39E000F0D2FA00F068
:103A2000E881894909EB06002830794400F09EFAC4
:103A3000BCE509EB060B4FF0200A0024C0E9001199
:103A40000BF128050BF5CC7221465346284604920B
:103A5000B84768460BF5DC7221465346C0E900447E
:103A60002846B8476846049A214660234FF0000A6A
:103A7000C0E900440BF59470B8470C9F0DF1580B4A
:103A800005E009EB060000F5CC7001F0BDF94046F9
:103A90003C46FFF799FC09EB06054246D5F8AC1207
:103AA00005F5267004F07CF900F0A1FA95F8B6034C
:103AB00060B100F0ABFA09EB06004246D0F8AC1258
:103AC00000F56E7004F06CF900F091FA00F09EFAC7
:103AD00000F08DFA4D4609EB0607FFF7F7FC0B994E
:103AE000B86027460824022913D1DFF8741429444A
:103AF00091F8511069B1DFF86C24494609EB0201D5
:103B0000496819B9494609EB02014860494649F834
:103B100002A04946012209EB06010A7588B100F0AE
:103B200033FA00F0FB810B98022810D0BB46012F1E
:103B300004D1242400F062FA00F04CFA01250020A0
:103B4000BBE04846032109EB060001752EE5022083
:103B5000FFF73AFC00F04EFAD0F8AC0201780229E7
:103B600030D0012974D0002940F0A08000F056FA2E
:103B700040F09C80354D7D44284605F06BF88088E8
:103B8000FFF719FC284605F065F88088C0B20428C4
:103B900018BF022840F05F8109EB060524240C972A
:103BA000D5F8AC020130C5F8AC0295F8A80201388E
:103BB00085F8A80200F022FA00F00CFA0120A8779C
:103BC00000252AE000F0F7F900200546002900F062
:103BD000148101200C97FFF765FC242400F00EFAF5
:103BE00000F0D9F900F00C812046012109EB06070D
:103BF00087F89411FFF756FC082487F894A100F089
:103C0000FDF9D7F8AC1207F52770224604F0C8F882
:103C100000F0E0F9012087F8940100F0CCF90120D0
:103C200021B9494609EB060181F8940100210C9F56
:103C300008243EE0A9FBFFFFAFC800008DC80000CC
:103C40009BC700009FC7000097C7000086E00000E8
:103C50000C974778382F28D8082F26D3B81C3C4615
:103C60000690C0B2FFF7B0FBBF485D4609EB060BFC
:103C7000784404F0EFFFDBF8AC126A46A7F10803C2
:103C800008300824C2E9005703938A1C202101F060
:103C90009BF8DBF8AC022246AB463844811F28462D
:103CA000FFF7D1F9002800F0E0800C9F01250721E3
:103CB000002000286CD0BB460120074600F093F995
:103CC0002061002F5F460DF1580B4FF008040AD019
:103CD0004DB940B148460D9909EB060090F8A40291
:103CE000084300F035814846022109EB06000175C2
:103CF00000F04AF900F01281484609EB060000691D
:103D0000012818D14846079909EB0600D0F8AC0203
:103D10000078AE38B0FA80F04009084202BF494648
:103D200009EB0601C8770120FFF7BCFB00F071F931
:103D3000013901610846A0B14946013809EB060185
:103D400091F8A852A84238BF0546002D00F0E68041
:103D5000E8B2FFF7A7FB00F05CF9491B0161FFF730
:103D600025BC0B9802281FD100F058F916D000F09E
:103D700012F919D06846002109EB060223464FF0DC
:103D8000000A00F052F902F52772FFF779FB0BE009
:103D90000029ADD003293FF409ACBDE0484603211A
:103DA00009EB060080F8941100F030F900F003F9F7
:103DB00081B190F8A60268B909EB06006B460021B4
:103DC0004FF0000AD0F8AC22C3E900112830434676
:103DD000FFF756FB00F00BF94846012109EB0600FE
:103DE0000175D0E9021201390132C0E90212FFF770
:103DF000DDBB00F01FF9FFF7D9BB0125072158E70C
:103E000009EB06070595002568462346D7F8AC223E
:103E1000C0E9005507F5CC702946FFF731FB00F0EB
:103E2000D9F84FF0080B5846FFF7CEFAD7F8AC1286
:103E30000EAC5A462046FFF777F907F115002246E7
:103E40000146FFF7CFFA80B32846059D0C9F072156
:103E50000DF1580BECE6012803D10D9800287FF4F2
:103E60009BAE00250721284623E7484609EB0601BB
:103E7000039B0C9FD1F8AC0291F8A412E1B190F829
:103E80003A1080F8321009EB0601484691F8A80272
:103E900091F8A4220D3881F8A802D1F8AC020530BF
:103EA000C1F8AC0242B1012593E60820FFF7FAFA07
:103EB000059D0DF1580BB0E6811C1A46584603F0DB
:103EC0006FFF9DF8580032287FF4F0AE099809EB97
:103ED0000605D5F8AC72C5F8AC022420FFF7B0FA9D
:103EE000069908227818C5F8AC0295F8A802401A7D
:103EF00085F8A8020EAC0A992046FFF715F905F1DE
:103F0000150022460146FFF76DFA012500283FF40F
:103F100084AE072100208AE6052919D108F0E4F9CA
:103F200024A9884202D12E9808F0E6F9BDF8BC0019
:103F300060B930B0BDE8F08D2E980025ADF8BC50CA
:103F400008F0DAF9044848440575204603F00BFFF1
:103F5000012003F008FF00BF10050000D808000092
:103F600068100000000000008CDF0000E0B51022A7
:103F70000023CDE900124FF48071002200F0F4FE1E
:103F800000B98CBD03F0EFFE484609EB060090F83F
:103F9000A80200287047484609EB060090F8A602E0
:103FA0000028704709EB050000212346D0F8AC2219
:103FB000CDE900117047484609EB060090F8A412BD
:103FC00070474846092109EB0600017590F8B603D1
:103FD000002870472046FFF765BA21465346C0E9DE
:103FE00000445846384709EB0604FFF76FBA4046CD
:103FF000FFF758BA484609EB060070472046FFF71E
:10400000E3B9C0E900442846FFF73ABA4046FFF753
:10401000DBB9484609EB060001697047484609EBE1
:10402000060090F8A40200287047C0E9001102F1D0
:104030002800704709EB0600283000F0E5BED0E903
:104040000120121A00208A4228BF0120704782688E
:10405000891805D2426891429EBF81600120704755
:104060000020704710B5D0E901239A420AD00468B5
:10407000E45C0C708168013106D24468A14298BFAB
:10408000816001E000200870D01A18BF012010BD27
:10409000D0E901239A4202D00068C05C0870D01AAF
:1040A00018BF0120704770B500F098F8032E04D9AE
:1040B00020682AB105F0D2FB04E0002028600BE064
:1040C00005F0A1FB2860A06810F1050F04D8616815
:1040D0000430884298BFA0600020032E88BF0120D2
:1040E00070BDB0B504460D460068D4E90112104415
:1040F000891A2A460AF05FF8B0F1FF3F07DDA16890
:10410000091807D26268914298BFA16002E00021BD
:10411000C5E90011C043C00FB0BDB0B50446154697
:104120000A460068D4E901131844C91A2B46FCF763
:1041300005FE40B1A26802EB8501914203D362689B
:10414000914298BFA160B0BD70B500F04DF80DD39D
:104150002A6802440846114622460AF0F4FBA86881
:10416000001903D26968884298BFA8600020A6425F
:1041700028BF012070BD70B500F036F80BD32A6857
:10418000104422460AF0DFFBA868001903D26968D0
:10419000884298BFA8600020A64228BF012070BDB9
:1041A000B0B542B103688268134413F0030318BF2B
:1041B000C3F1040301E08268002344681944A51A8E
:1041C0008D4201D2002107E05518016811441944BD
:1041D00002D2A54298BF85600846B0BD04460D4690
:1041E0004068A168461A704714460546D0E9012088
:1041F000161AA64270470000F0B5C1F3C004C1F31F
:1042000000121A4D1A4E1B4F1B4BC2F1000C164ADE
:104210006442254002EA0C0285EA40156A40C1F377
:1042200040156D422E407240C1F3801676423740F1
:104230007A40C1F3C017490141EAD06004F0980107
:104240007F42C0B23B4048400CF079015A404840A0
:1042500005F0F301484006F0AE01484007F01E01AA
:1042600041401046F0BD00BFE2996DB7618EBCF2CF
:10427000C4B35F3EA8E2AB2E70E4434FF8B50D46E1
:1042800006461446002101203778FFF7B5FF57B1E5
:1042900007F01F0201365040F6E7FFF7ADFF15F8B3
:1042A000012B013C5040002CF7D108241CB1FFF732
:1042B000A3FF013CFAE780F00100F8BDF8B5144611
:1042C0000A4601460A487844FFF7D8FF05460E46DD
:1042D0002327781D08BFF8BD284631463A460AF024
:1042E00021FB00F01F00053F04F8010BF1E700BFC0
:1042F000EAA900002DE9F04597B0144602460020D7
:104300001429CDE9140020705CD11E9900209A4632
:1043100011B1012956D108208DF828000AAD1146A7
:104320001422681C03F03CFD152000266F46002176
:10433000002280B12B780138083243EA0121052A96
:1043400007DB053A21FA02F303F01F03BB550136E0
:10435000F5E70135EDE73AB1C2F1050001FA00F0E9
:1043600000F01F00B85501360DF1500838463146AF
:104370004246FFF7A3FF9DF80000154A00217A444A
:104380008E4209D020281BD24B1C534518D87D5C87
:10439000555D65541946F3E7731C06F108000025C6
:1043A0006619082D11D09DF85070202F08D25F1982
:1043B000574505D818F805700135D75D7754EFE7F4
:1043C0000020207017B0BDE8F08500227254F9E794
:1043D0007CA800002DE9F04DAEB0029314468A4649
:1043E000074606AE4FF0000B0025AC422ED0502001
:1043F000514622462B4600960190384601F053FA6A
:10440000002823D4804685B1C345424638BF5A466A
:104410004AB11AA831460AF0A3FAC34500D3A8B19D
:10442000002802DD12E0C34510D21AA831464246E8
:104430000AF087FA369A32B10020CDE90368059078
:10444000029803A990470135C346CEE70020A54254
:1044500038BF4FF0FF302EB0BDE8F08D10B590B0F2
:104460001C4600230693222305930DF11E03002909
:10447000049304AB18BF01218DE80E00DDE912237F
:10448000214604F005FC00280AD4159A904205D173
:1044900014990DF11E000AF063FA20B1002003E028
:1044A0004FF0FF3000E0012010B010BD2DE9F045C5
:1044B00095B00F4605460DA820211C4616460AF069
:1044C0003DFA0DF1040840460AF08AFAADF83000D2
:1044D000000408D00020ADF830000B9807F00CFF66
:1044E0004FF0FF3516E001A807F006FF0B90684675
:1044F0000DF1340A314622460760212753463846DB
:1045000007F074FE2022384651462B4600F03CFC52
:1045100090B9002507F0E8FE404502D10B9807F05E
:10452000EBFE0DA820210AF015FABDF8300018B9ED
:10453000284615B0BDE8F08503F015FC2DE9F04DD7
:10454000C4B0002926D406460079FF2825D023AF21
:1045500006F12D0B14460D462122384659460AF025
:10456000F0F9384621212A460AF0B8F940200DF129
:10457000D00A20213A462523CDE900A006F10D00FE
:1045800000F026FC2D495046794400F059F8B0F16E
:10459000FF3F08DD4FF0FF3601E06FF001063046C7
:1045A00044B0BDE8F08D0DF14B0734A8394600F05A
:1045B00051F80DF10A085846414600F069F823A861
:1045C0003946424600F0AEF8A8B330787178B27838
:1045D000F3780AF1200AA270E370207061703079DC
:1045E00001302071584600F0B0F80246601D0021ED
:1045F00000260AF073F904F1090000212A460AF0A6
:104600006DF904F10D00514620220AF09AF99DF847
:104610008C000428C3D19DF8CC100120202260F327
:104620005F0104F12E0084F82D1023A901310AF056
:1046300088F90026B3E76FF00206B0E7D4BC0000AB
:10464000E0B501AB202200F0CBFB08B901988CBD8E
:1046500003F089FBBCB50C460C49054641222046B7
:1046600079440AF06EF9212021462A46202300F0E1
:104670008FFB40B901A9212007F0A4FD18B90198CA
:1046800040000130BCBD03F06EFB00BF64BC000005
:10469000F0B589B007780C4607F0FE01022936D143
:1046A000661C411C202230460AF04DF9032004F11B
:1046B00021050DF12302314601238DF82300284600
:1046C00000F060F86E461F2130460AF037F90720E7
:1046D000294632468DF81F0028460F4B7B4400F0D8
:1046E0005FF80E4A2846294620237A4400F04AF80B
:1046F00094F840007840C00705D0094928462A466A
:10470000794400F056F804202070002001E04FF0BA
:10471000FF3009B0F0BD00BFA0BB0000B2BB00007D
:104720007CBB0000E0B513460A460146212000F09C
:1047300023FB40B901A9212007F044FD18B90198D5
:10474000400001308CBD03F00EFB10B586B001AC0B
:104750002121224600F009F82046002105F053F8F7
:1047600006B010BD142300F023BBB0B588B06D4671
:1047700000F0F5FA284620212246FFF7F3FF08B0A3
:10478000B0BD0000BCB5054D20247D44CDE90054EA
:1047900000F02AFB00B9BCBD03F0E5FAF2BA000054
:1047A0001CB52024009400F017FB00B91CBD03F0D9
:1047B000DAFA80B5202300F01BFB10F1DF0100D0F6
:1047C00000B980BD03F0CFFAB0B588B06D4600F0F7
:1047D000C6FA284620212A46202300F0EDFA009848
:1047E000010E2070E170010C000AA170607008B029
:1047F000B0BD2DE9F04DC2B00C4607461FA82821D8
:104800001E4690460AF09AF8EA4650460AF0E8F842
:10481000ADF82C00000406D00A980025ADF82C5005
:1048200007F06AFD38E0684607F066FD0DF1A40B5D
:104830000A9004203A4623460BF141058DF8A40066
:104840001FA82946FFF732FE26B12022304629460E
:104850000AF077F80CAD21201FAA0123294600F0A9
:104860008FFA80BB0BF1010605F1090140223046A9
:104870000AF067F89DF8A40004280CD19DF8E41014
:104880000125202265F35F0108F8011B31464046EF
:104890000AF057F800E0002507F026FD504502D148
:1048A0000A9807F029FD29A8202141300AF052F882
:1048B0001FA828210AF04EF8BDF82C0018B9284688
:1048C00042B0BDE8F08D03F04EFA10B58AB00DF19C
:1048D000030409A8002100232246FFF78AFF20468F
:1048E000FFF733FF0AB010BD70B58CB00D4604AEB3
:1048F0001446014630462A460AF023F800202121BA
:1049000032462B46CDE90040CDE90200022007F0F7
:104910007DFC0CB070BD00002DE9F04D96B09246C4
:104920000D468046009371B16E1E01AC40460023D7
:10493000F1B22246FFF75DFF2046FFF706FF58F869
:1049400026B0044602E04FF0000B002401AF164EE3
:104950000021524638467E44B047781D0021224649
:104960008DF80850B04707F1090000215A46B047BA
:1049700007F12D0207F10D0340462946FFF739FFE5
:1049800007F14E0238464E21FFF71EFF009C3846C5
:10499000522171232246FCF765F90128A4BF0021AA
:1049A000215416B0BDE8F08D839F00002DE9F0453D
:1049B00087B0924698460A460646FF2903D88DF8E6
:1049C000002001250FE00020B0EB124F06D192B27B
:1049D0006846002109F07DFF022504E068460021B9
:1049E00009F07CFF04256F46314614227C192046CD
:1049F00009F0A7FF04F1140205F114013846FFF78E
:104A0000E3FE05F11801384652464346FCF72AF901
:104A100007B0BDE8F0852DE9F04DA4B00D4607467E
:104A200018A828219B46924609F088FF202410A848
:104A3000214609F083FF0DF11008404609F0D0FF30
:104A400086B2ADF83C003EB10E980024ADF83C4073
:104A500007F052FC25461DE004A807F04DFC0E901F
:104A6000EBB218AD10A93A462846FFF71FFD4820C3
:104A700069465346239022A823AAC1E9004BC1E905
:104A800002204FF4C0610322284600F071F9D0B92A
:104A9000DDE9225407F028FC404502D10E9807F0CA
:104AA0002BFC18A8282109F055FFBDF83C0050B98F
:104AB00016B14FF0FF3003E02C9800B1056020469E
:104AC00024B0BDE8F08D03F04EF90000F0B589B0D8
:104AD00014460D46064600F097F90C4F304629461D
:104AE00022467F44B84701AC3046214600F01AF810
:104AF000304600F089F9304621462022B84730463A
:104B000021462022B84709B0F0BD00BF2B000000AD
:104B1000E0B513460A460021CDE90011002100F05E
:104B20000DF98CBDE0B520220023CDE90012012152
:104B3000002200F003F98CBD2DE9F04DB4B00DF169
:104B40008F048A4615460646214600F07DF839490D
:104B500020467944FFF774FDB0F1FF3F36DC0320B7
:104B600001950DF10B080DF1CF0B314601238DF8A6
:104B7000CF0008F101075A462F4C38467C44A04725
:104B800013AD1F21284609F0D9FE072039462A46D1
:104B90008DF86B003846294B7B44FFF701FE284A0D
:104BA00008F121053946202328467A44A0470220EF
:104BB0000DF1AF0829465A4601238DF8CF00404633
:104BC000A04740463946FFF73BFD20B14FF0FF308C
:104BD00034B0BDE8F08D9DF84B00C00705D01949F1
:104BE00028462A467944FFF7E4FD04203146202276
:104BF0008DF80B00384609F0A4FE0DF18F0013A9C3
:104C0000FFF728FD0028E1D013AC0DF10B02204680
:104C10002146FFF787FD0028D8D09DF88C00611C45
:104C2000202200F001008AF80000019809F089FEB6
:104C30000020CDE70AB7000005FCFFFFE4B6000046
:104C4000F2B6000098B6000070B59CB001AE054603
:104C50000C46304600F0D8F808493046082279441E
:104C6000FFF734FF304629462022FFF751FF304638
:104C70002146FFF757FF1CB070BD00BF5EB60000B5
:104C800070B5A6B009AC0546204609F0A9FEADF8FE
:104C90005000000410D00020ADF85000139807F029
:104CA0002BFB4FF0FF3507F01FFBA04202D11398FA
:104CB00007F022FB2C4624E009A807F01DFB0DF1AC
:104CC0005706139028463146FFF7C4FC9DF897001D
:104CD000C00705D0164928462A467944FFF769FDE2
:104CE000701C01AE3146FFF7AFFF124930467944E0
:104CF000FFF7A6FC00280FD4139807F0FDFA4FF039
:104D0000FF340DF15700412109F024FEBDF8500099
:104D100058B9204626B070BD01AA074B284629463F
:104D20007B44FFF73DFD0025BDE703F01CF800BF05
:104D300082B500006EB500003CB500001CB504460D
:104D40000598019004980090204600F02DF820B9B5
:104D50002046BDE81C4000F023B803F004F81446D8
:104D600020232A4600F028B803B44FF0120057E081
:104D700003B44FF0240053E003B44FF026004FE09B
:104D800003B44FF02A004BE003B44FF02B0047E090
:104D900003B44FF02D0043E003B44FF02E003FE08A
:104DA00003B44FF039003BE003B44FF03C0037E070
:104DB00003B44FF03D0033E003B44FF03E002FE06A
:104DC00003B44FF03F002BE003B44FF0480027E05E
:104DD00003B44FF04B0023E003B44FF04F001FE04B
:104DE00003B44FF051001BE003B44FF0590017E03B
:104DF00003B44FF05B0013E003B44FF062000FE028
:104E000003B44FF068000BE003B44FF0690007E013
:104E100003B44FF06A0003E003B44FF07B00FFE7F8
:104E200000490847018080002DE9FC4DCDE90023B1
:104E30000D4604463A4800260A9949F800104844AD
:104E400038490B9FC680067106724944D7F808E0BE
:104E500097F804C0344B354878447B448046344846
:104E6000784482463348344A78447A448346334807
:104E7000CA627844C1E909303148324AC1E901ECDB
:104E8000C1E907A87A447844C1E90362C1E9050B86
:104E90003878F82809D17878012806D1B87808B987
:104EA000F87898B346F686201EE0DFF87880009800
:104EB000019949F8080009F04DFD00210020A842A1
:104EC0000CDA04EBC0023E781379B34204D1517975
:104ED0007A7891420CD001210130F0E7C8070CBF6D
:104EE0004FF4DC404FF4DA40BDE8FC4D01F007BF61
:104EF00054F8300003F0AEFE044601F0A3FB09EBCA
:104F00000800A047BDE8FC4D00F09AB8054859F8E4
:104F1000000010B140680028F4D14BF20700E3E72D
:104F200018040000780C0000B3010000010100002B
:104F3000F5000000DD00000017010000F700000090
:104F40009B0100008D010000024959F801104860E2
:104F5000704700BF780C000001F060BE0249494470
:104F6000C88001F089BE00BF1804000010B5044BD2
:104F700059F8034049F803106260C1E9004010BDD0
:104F8000780C0000FEB5002604460296CDE90066C6
:104F900001F03AFB1A4F002039F8071003F02CF902
:104FA000054601F045FB17482A4629F807604844A2
:104FB000468015484844C680144809EB00016846FD
:104FC000FBF738F878B19DF80000F8280FD19DF86C
:104FD000010001280BD19DF80410029A0020E06026
:104FE000C4E90121FEBD216A46F6872002E0216A5C
:104FF0004FF4D5408847606A80474FF0FF30FEBDD0
:10500000FE040000F00F000018040000EC0E000089
:1050100001F060BE024801214844017201717047ED
:105020001804000080B5054800214844017101F0D2
:1050300009FBBDE8804000F003B800BF1804000081
:1050400070B51C4D59F80500E8B11B4C002609EB62
:105050000400007950BB09EB0400C088C0B959F8BE
:105060000500416851B1466009EB0500884709EB2E
:105070000400C088B0F5604FE9D117E0006818B1AE
:1050800049F80500E3E770BD4BF2070001F037FE79
:1050900059F8040050B1094909EB0402127A19F8D1
:1050A000011001F00101114318BF8047BDE87040B5
:1050B00001F0DCBA780C00001804000008050000BC
:1050C00010B5016A044646F685108847606ABDE857
:1050D0001040004710B5054809EB0004A1690448D9
:1050E000784488476069BDE810400047780C0000AC
:1050F000DDFFFFFF10B50549034800F08AF960693C
:10510000BDE81040004700BF24040000780C0000F8
:1051100010B50549034800F07CF96069BDE810400E
:10512000004700BF24040000780C000010B50548BB
:1051300009EB0004A1690448784488476069BDE828
:1051400010400047780C000085FFFFFF10B50549AF
:10515000034800F05EF96069BDE81040004700BFF9
:1051600024040000780C000010B50549034800F045
:1051700050F96069BDE81040004700BF24040000FA
:10518000780C000070B500F03FF90D483146492217
:1051900000F04EF949302146722209F053FC0948CB
:1051A0000499002D49F800100748084978447944CB
:1051B00018BF014600200022BDE8704008F036BA52
:1051C0002804000024040000E8B40000CEB400006D
:1051D00070B500F019F909483146492200F028F964
:1051E00049302946412209F02DFC054800F017F905
:1051F00004497944BDE8704008F018BA280400005A
:105200002404000072B40000B0B500F00DF90A48A3
:10521000A91C112200F00CF9113005F116014A22E7
:1052200009F010FC054800F0FAF805497944BDE89A
:10523000B04008F0FBB900BF2804000024040000BF
:1052400088B40000B0B500F0EFF80F482946A3225B
:1052500000F0EEF804990E4B0E4A7B447A44002984
:1052600018BF1A46A330631C122103F083FA0748C3
:105270000599002249F80010002007497944BDE84B
:10528000B04008F0D3B900BF280400002404000097
:10529000039900009E9800004CB40000F8B5006926
:1052A0001D4616460C4680470E4F31464B2209EBF1
:1052B00007005B3009F0C6FB0B4849F8005044B1C9
:1052C00009EB07002146112209F0BCFB084979448B
:1052D00001E00649794400200022BDE8F84008F0CA
:1052E000A5B900BF280400002404000018B4000081
:1052F0000AB40000B0B500F097F80748294611221B
:1053000000F096F8054800F08AF805497944BDE8B0
:10531000B04008F08BB900BF28040000240400004E
:10532000F0B3000010B500690C468047044800F057
:1053300076F804497944BDE8104008F077B900BF19
:1053400024040000D8B3000010B500690C46804763
:10535000044800F064F804497944BDE8104008F0BE
:1053600065B900BF24040000C4B30000F8B500F024
:105370004BF81248134A0C21334609EB00077A44D4
:10538000384603F0F7F907F10C002946AD2209F081
:1053900059FB07F1B90000902046DDE9062300F033
:1053A0004BF807480899002249F8001000200649E8
:1053B0007944BDE8F84008F039B900BF280400007E
:1053C000240400001297000084B300007CB500F0B4
:1053D0001BF80A4806992A46234649F8001008484F
:1053E00048440090304600F027F80649002000228B
:1053F000794402B0BDE8704008F018B924040000F8
:10540000280400005CB3000000691C4615460E46E7
:10541000004709EB010459F80000A1690847002280
:1054200049F8004000207047006914460D460047C7
:10543000484409F007BB00002DE9F04D9B46154696
:10544000064609F0E3FA07460898314609F0D6FA0D
:10545000202100EB070A08242E46C1553CB13046F6
:10546000594600F04BF806468B46013CF6E72148CA
:105470000024A6FB000110EB05083046594600F059
:105480003DF850EA010204F10104F8D1671E2546F7
:10549000781C0FD03046594600F030F88B4600EBB0
:1054A0008001013FA6EB4101064630310AF80510A4
:1054B000013DEDE70AEB0400B8F1000F15D02E21F5
:1054C00043464170023009210B4A7A4403F052F9F5
:1054D00000200021CA1D0AD00AEB01022244537A9F
:1054E000302B04D150720139F4E700214170BDE83E
:1054F000F08D00BF001F0AFAFC9500002DE9FC4D5D
:105500008B46B0F10A014FF0000E7BF1000101D291
:1055100000233DE082460A381F4E4FF09937019034
:105520006BF100000024009017EB0E02B04646EB32
:1055300004035FEA53034FEA32050A2003EB830CAE
:10554000A5FB0026019806EB4C06811A009870EB2B
:10555000060104D2BAEB02017BEB060117D2691EE9
:1055600063F10000BAEB02027BEB060246464FF005
:10557000000238BF0122002A18BF0646681C43F10A
:105580000003002A0ABF1C460F468646CCE7AE46FB
:1055900070461946BDE8FC8D99999919F0B59BB0F4
:1055A000044606F047FEAA281AD1261D0DF16B010C
:1055B0003046FEF757FD002847D00DF16A0130460E
:1055C000FEF750FD002840D09DF86B00012803D85D
:1055D0009DF86A20072A0CD3216A4FF4D54037E0A2
:1055E000216A46F682108847606A1BB0BDE8F04029
:1055F000004714AD30462946FEF78FFD28B34C48CE
:105600009DF86A1059F80000032955D3149AB0F890
:1056100006C0B0F804E0032322F000422C2A05D093
:10562000562A03D0312A18BF542A1FD18B4202D0E8
:105630009E1C8E4240D10026B3420ED055F82670F3
:105640000136B7F1FF3FF7DD36E0216A46F68720E5
:105650008847606A80471BB0F0BD1E468E4209D263
:1056600055F826700136002FF8D525E0302A23D1D1
:105670000423DBE7159E26F00046764518BF6645F5
:105680001AD1169E26F00046642E15D88B420BD2F6
:1056900005EB810353F8085C012D0DD853F8043C49
:1056A0004CF25035AB4207D8302A3FD1179A22F03E
:1056B0000042013A022A39D39DF86B204AB30125F2
:1056C0001C4E09EB060202F10803026814A8FFF75A
:1056D00023F9013021D001A817494922794409F062
:1056E00030F99DF86A1021B114A801AA4923FBF7EB
:1056F00045FB9DF86B00A0B110482A467844009005
:1057000009EB060001A900F108032046FFF73AFD66
:10571000A1E7216A46F682209AE7216A4BF2070048
:1057200096E7A16906487844884794E70025C7E7CB
:10573000D8080000E008000084B000004500000028
:105740001B000000B0B504460948484400F10805B4
:10575000284609F05BF9E269014628469047216A2C
:105760004FF410408847606ABDE8B040004700BF72
:10577000E00800002DE9F0418AB01C2403ADCDE91A
:10578000005400F0FDFA4FF0FF34042806DB10F05F
:10579000030103D11F2805DD4FF0FF3420460AB076
:1057A000BDE8F08104380421DDE91078002690FB83
:1057B000F1F42846002104F051F838600435002740
:1057C000A742EBDA2846314604F048F848F80600CC
:1057D00004360137F4E72DE9F0418AB01D240DF1BC
:1057E0000B05CDE9005400F0CBFA052809DB411E7A
:1057F0004FF0FF34890706D19DF80B1019B9202806
:1058000005DD4FF0FF3420460AB0BDE8F0810538D1
:105810000421DDE9106890FBF1F42846012104F031
:105820001DF83060053500260027A742EBDA284630
:10583000314604F013F848F8060004360137F4E75F
:10584000B0B58CB0044606F0F5FCAA281AD10BA816
:105850000DF10B0200210023FEF7CBFFD8B10DF1B3
:105860000B00FEF772FF0DF10705024600212846E6
:1058700009F034F8E269284604219047216A4FF480
:1058800010400BE0216A46F682108847606A0CB02F
:10589000BDE8B0400047216A4BF207008847606AC4
:1058A00080470CB0B0BD10B58AB0044602A8009085
:1058B000204600F00AF8002805D4DDE90C2302A9EF
:1058C000204600F025F90AB010BD2DE9F04D8CB04E
:1058D0000746412016460D46012198468DF81000D6
:1058E000FA6904AC20469047FA692846202190477F
:1058F000204600213246002308F08CFCFA6901465C
:1059000020469047204600214246002308F082FCB2
:10591000FA69014620469047396A4FF4604088474B
:10592000F96A38468847002800F18B803C1D04A99D
:1059300020222046FEF708FC002800F082800DF1AE
:105940000F012046FEF78EFB00287AD00DF10E01E4
:105950002046FEF787FB002873D09DF80E009DF8C7
:105960000F1088426DD841012046FEF768FB0028E1
:1059700067D014988DE8600104A9202208F0E1FFA7
:105980009DF80E004FF0000BC0B26FEA0B080BEB56
:10599000000AD3451FDA9DF80F007D68FE6808EB0A
:1059A0000002DDE9010102F09FF9A919012804D0E4
:1059B000002846D104A8024602E0084604A90A4687
:1059C00002F066F920462021FEF741FBA8F101080C
:1059D0000BF1010BDDE79DF80F00584536D0A020F4
:1059E000FA6901218DF80D000DF10D009047396A1B
:1059F0004FF460408847F96A38468847B0F1FF3F66
:105A00001FDD20460DF10E01FEF72CFBC8B120462C
:105A100003A9FEF727FBA0B19DF80E009DF80C101E
:105A200041432046FEF70BFB58B19DF80C0020289F
:105A300007D19DF80E009DF80F2000EB0B0191425D
:105A4000A2DD4FF0FF300CB0BDE8F08D04A9009846
:105A5000202208F085FF002818BF4FF0FF30F2E742
:105A60002DE9F04595B0074642200DF11305884613
:105A70001646114620229A468DF81300681C08F03D
:105A800060FF05F121005146202208F05AFFFA6913
:105A9000284641219047396A4FF460408847F96AA7
:105AA00038468847002826D43C1D0DF112012046B7
:105AB000FEF7D8FAE0B102A92046FEF712FBB8B112
:105AC0009DF8120001281BD8A8B1029B3846314628
:105AD00042460095FFF7F9FE002814D40DF113019A
